S0100000566F7465723242322E737265635E
S31508000000000008240D8E000831820008338200089B
S31508000010358200083782000839820008000000008F
S31508000020000000000000000000000000212D0190E3
S315080000303B82000800000000B12D0190152E0190AA
S315080000405D8E00085D8E00085D8E00085D8E0008D6
S315080000505D8E00085D8E00085D8E00085D8E0008C6
S315080000605D8E00085D8E00085D8E000841820008DE
S31508000070598200087182000889820008B182000846
S31508000080C9820008E18200085D8E00085D8E0008BE
S315080000905D8E00085D8E00085D8E00085D8E000886
S315080000A05D8E00085D8E00085D8E00085D8E000876
S315080000B0F98200085D8E00085D8E0008218300081D
S315080000C05D8E00085D8E00085D8E00085D8E000856
S315080000D039830008518300085D8E0008698300088B
S315080000E05D8E00085D8E0008000000005D8E000829
S315080000F05D8E00085D8E00085D8E00087983000815
S315080001005D8E00085D8E00085D8E000891830008EC
S31508000110A98300085D8E00085D8E0008C18300086B
S31508000120E98300080184000819840008318400085E
S315080001304984000861840008798400085D8E0008F7
S3150800014000000000000000000000000000000000A1
S315080001508184000899840008B18400085D8E00082F
S315080001605D8E00085D8E00085D8E00085D8E0008B5
S315080001705D8E00085D8E00085D8E00085D8E0008A5
S315080001805D8E00085D8E0008C9840008E1840008B9
S315080001905D8E00085D8E00085D8E00085D8E000885
S315080001A05D8E00085D8E00085D8E00085D8E000875
S315080001B05D8E00085D8E00085D8E00085D8E000865
S315080001C05D8E00085D8E00085D8E00085D8E000855
S315080001D05D8E00085D8E00085D8E00085D8E000845
S315080001E05D8E00085D8E00085D8E00085D8E000835
S315080001F05D8E00085D8E00085D8E00085D8E000825
S315080002005D8E00085D8E00085D8E00085D8E000814
S315080002105D8E00085D8E00085D8E00085D8E000804
S315080002205D8E00085D8E00085D8E000800000000E7
S315080002305D8E00085D8E0008000000005D8E0008D7
S315080002405D8E00085D8E00085D8E00085D8E0008D4
S315080002505D8E00085D8E00085D8E00085D8E0008C4
S315080002605D8E00085D8E00085D8E00085D8E0008B4
S315080002705D8E00085D8E00085D8E00080000000097
S315080002805D8E00085D8E00085D8E00080000000087
S30D08000290000000005D8E000865
S31508000298F8B500BFF8BC08BC9E467047F8B500BF5D
S30D080002A8F8BC08BC9E4670472D
S315080002B010B5054C237833B9044B13B10448AFF392
S315080002C000800123237010BD900D0024000000005B
S315080002D09802000808B5034B1BB103490348AFF35E
S315080002E0008008BD00000000940D00249802000854
S315080002F010F8012B11F8013B012A28BF9A42F7D0C2
S31508000300D01A7047034613F8012B002AFBD1181A96
S3150800031001387047000000000000000000000000DF
S3150800032001F0FF01102A2BDB10F0070F08D010F898
S31508000330013B013A8B422DD010F0070F42B3F6D19C
S31508000340F0B441EA012141EA014122F007047FF0B5
S3150800035000070023F0E80256083C85EA010586EA0C
S31508000360010685FA47F5A3FA87F586FA47F6A5FA48
S3150800037087F68EB9EED1F0BC01F0FF0102F0070254
S3150800038032B110F8013B013A83EA010313B1F8D1FF
S315080003900020704701387047002D06BF35460338E0
S315080003A0073815F0010F07D1013015F4807F02BF19
S315080003B0013015F4C03F0130F0BC0138704700BF6A
S315080003C081F0004102E000BF83F0004330B54FEAF8
S315080003D041044FEA430594EA050F08BF90EA020F65
S315080003E01FBF54EA000C55EA020C7FEA645C7FEAF8
S315080003F0655C00F0E2804FEA5454D4EB5555B8BF1B
S315080004006D420CDD2C4480EA020281EA030382EA8B
S31508000410000083EA010180EA020281EA0303362D1D
S3150800042088BF30BD11F0004F4FEA01314FF4801CF0
S315080004304CEA113102D0404261EB410113F0004F02
S315080004404FEA03334CEA133302D0524263EB4303B9
S3150800045094EA050F00F0A780A4F10104D5F1200E57
S315080004600DDB02FA0EFC22FA05F2801841F10001B2
S3150800047003FA0EF2801843FA05F359410EE0A5F186
S3150800048020050EF1200E012A03FA0EFC28BF4CF0B7
S31508000490020C43FA05F3C01851EBE37101F000456D
S315080004A007D54FF0000EDCF1000C7EEB00006EEB7A
S315080004B00101B1F5801F1BD3B1F5001F0CD3490804
S315080004C05FEA30004FEA3C0C04F101044FEA44525B
S315080004D012F5800F80F09A80BCF1004F08BF5FEAE2
S315080004E0500C50F1000041EB045141EA050130BDC2
S315080004F05FEA4C0C404141EB0101013C28BFB1F5D4
S31508000500801FE9D291F0000F04BF01460020B1FA1E
S3150800051081F308BF2033A3F10B03B3F120020CDAF1
S315080005200C3208DD02F1140CC2F10C0201FA0CF0CF
S3150800053021FA02F10CE002F11402D8BFC2F1200C34
S3150800054001FA02F120FA0CFCDCBF41EA0C019040EA
S31508000550E41AA2BF01EB0451294330BD6FEA040433
S315080005601F3C1CDA0C340EDC04F11404C4F120021E
S3150800057020FA04F001FA02F340EA030021FA04F330
S3150800058045EA030130BDC4F10C04C4F1200220FA87
S3150800059002F001FA04F340EA0300294630BD21FAC5
S315080005A004F0294630BD94F0000F83F4801306BF8B
S315080005B081F480110134013D4EE77FEA645C18BF7F
S315080005C07FEA655C29D094EA050F08BF90EA020F16
S315080005D005D054EA000C04BF1946104630BD91EA0E
S315080005E0030F1EBF0021002030BD5FEA545C05D111
S315080005F04000494128BF41F0004130BD14F5800450
S315080006003CBF01F5801130BD01F0004545F0FE41C3
S3150800061041F470014FF0000030BD7FEA645C1ABFF8
S31508000620194610467FEA655C1CBF0B46024650EA2F
S31508000630013406BF52EA033591EA030F41F400215B
S3150800064030BD00BF90F0000F04BF0021704730B5E1
S315080006504FF4806404F132044FF000054FF00001B6
S3150800066050E700BF90F0000F04BF0021704730B577
S315080006704FF4806404F1320410F0004548BF40424C
S315080006804FF000013EE700BF42004FEAE2014FEAA1
S3150800069031014FEA02701FBF12F07F4393F07F4F7C
S315080006A081F06051704732F07F4208BF704793F07F
S315080006B07F4F04BF41F40021704730B54FF4607492
S315080006C001F0004521F000411CE700BF50EA010295
S315080006D008BF704730B54FF000050AE050EA01023E
S315080006E008BF704730B511F0004502D5404261EBAE
S315080006F041014FF4806404F132045FEA915C3FF4EF
S31508000700D8AE4FF003025FEADC0C18BF03325FEA8B
S31508000710DC0C18BF033202EBDC02C2F1200300FA3C
S3150800072003FC20FA02F001FA03FE40EA0E0021FA61
S3150800073002F11444BDE600BF7BB972B90029BEBFF9
S3150800074000204FF0004106E008BF00281CBF6FF0EC
S3150800075000414FF0FF3000F0F3B9ADF1080C6DE938
S3150800076004CE002909DB002B1ADB00F06DF8DDF852
S3150800077004E0DDE9022304B07047404261EB410121
S31508000780002B1BDB00F060F8DDF804E0DDE902234E
S3150800079004B0404261EB4101524263EB43037047A8
S315080007A0524263EB430300F04FF8DDF804E0DDE95D
S315080007B0022304B0404261EB41017047524263EBA9
S315080007C0430300F041F8DDF804E0DDE9022304B054
S315080007D0524263EB4303704753B94AB9002908BF2D
S315080007E000281CBF4FF0FF314FF0FF3000F0A8B9CA
S315080007F0ADF1080C6DE904CE00F026F8DDF804E04A
S31508000800DDE9022304B070479FED0B6B41EC170B33
S315080008109FED0B5B27EE066BBCEEC66BB8EE464B40
S31508000820A4EE457BFCEEC77B16EE101A17EE900A6F
S31508000830704700BFAFF30080000000000000F03DE5
S31508000840000000000000F0412DE9F047089D8E46A3
S3150800085004468846002B4AD18A42174662D9B2FA1C
S3150800086082F64EB1C6F1200301FA06F820FA03F320
S31508000870B74043EA0808B4404FEA174E1FFA87FC08
S31508000880B8FBFEF1230C0EFB118843EA084301FB73
S315080008900CF29A4209D9FB1801F1FF3080F0EA8080
S315080008A09A4240F2E78002393B449A1AA3B2B2FB55
S315080008B0FEF00EFB102243EA024300FB0CFC9C45AB
S315080008C009D9FB1800F1FF3280F0D6809C4540F22A
S315080008D0D3803B44023840EA0140A3EB0C030021D5
S315080008E01DB1F3400022C5E90032BDE8F0878B420E
S315080008F005D90DB1C5E9000100210846F5E7B3FAA7
S3150800090083F1002946D1734502D3824200F205815C
S31508000910841A6EEB030201209046002DE5D0C5E946
S315080009200048E2E7002A00F09080B2FA82F6002E2C
S3150800093040F0A4808A1A030C4FEA174E80B2BCB264
S315080009400121B2FBFEFC0EFB1C2243EA024304FB18
S315080009500CF29A4207D9FB180CF1FF3802D29A42D8
S3150800096000F2E080C4469B1AB3FBFEF20EFB12337C
S3150800097040EA034302FB04F49C4207D9FB1802F140
S31508000980FF3002D29C4200F2CA8002461B1B42EA92
S315080009900C40A5E7C1F120068B4022FA06F71F4353
S315080009A00EFA01F420FA06F32EFA06FE4FEA174964
S315080009B0234300FA01F81FFA87FCBEFBF9F01C0C6A
S315080009C009FB10EE44EA0E4400FB0CFEA64502FAAB
S315080009D001F209D93C1900F1FF3A80F09C80A6453E
S315080009E040F2998002383C44A4EB0E041FFA83FEB9
S315080009F0B4FBF9F309FB13444EEA044403FB0CFC6D
S31508000A00A44508D93C1903F1FF3E80F08280A4452D
S31508000A107FD9023B3C4443EA0040A4EB0C04A0FB0C
S31508000A2002EC64457346E14662D35FD05DB1B8EB2C
S31508000A30030264EB090404FA06F622FA01F31E43DC
S31508000A40CC40C5E9006400214FE7B1FBF2FC010C7C
S31508000A5041EA0E4180B240EA01423B4638463C46EE
S31508000A60B846BE462026B1FBF7F1A2EB080241EADA
S31508000A700C4166E7014618E710462CE7C6F1200246
S31508000A802EFA02F3B740B14020FA02F24FEA174EA7
S31508000A900A43B3FBFEF8BCB20EFB1833110C41EA4D
S31508000AA0034108FB04F9B04089454FEA104380B278
S31508000AB03ED9791808F1FF3C01D289451FD8A1EB28
S31508000AC00901B1FBFEF909FB04F80EFB191192B2F4
S31508000AD042EA0142424529D2BA1809F1FF31C4D285
S31508000AE04245C2D2A9F102013A44BEE7F0459DD279
S31508000AF0BEEB02036CEB070C0138E14696E7A7EB61
S31508000B0009094944A8F1020CB1FBFEF909FB04F8EE
S31508000B10DBE773467FE7504666E70846FDE63B4453
S31508000B20023A33E7ACF1020C3B441CE749469CE722
S31508000B30A1EB0901C446B1FBFEF909FB04F8C4E7B9
S30908000B40704700BF2D
S30708000B447047EA
S31508000B4810B50022064C4FF400631146204600F003
S31508000B580FF820460021BDE8104000F005B800BF90
S31508000B682C700024000000005FF800F0C1EB01902B
S30D08000B785FF800F017EC01908C
S31508000B8010B5074C10214FF400630022204600F0F0
S31508000B900BF820461021BDE8104000F009B800BF48
S31508000BA02C700024000000005FF800F017EC01909C
S30D08000BB05FF800F0C1EB0190AB
S31508000BB810B50021474800F0A3F80121454800F080
S31508000BC89FF8454C0021454800F09AF8012143480A
S31508000BD800F096F86379012B26D00123A0682268CD
S31508000BE8637102233B4923713D4BC3633D4B036441
S31508000BF83D4BC364136843F480531360136843F486
S31508000C08005342F8203B4FF4A07300F081F8002304
S31508000C186371002850D123681A6842F001021A60E5
S31508000C281A6842F480321A60304C4FF4A072304980
S31508000C38304800F069F805222F49204600F064F884
S31508000C48E36C2E4A1B6893422DD0183293422AD059
S31508000C581832934227D01832934224D01832934236
S31508000C6821D0183293421ED0183293421BD018321C
S31508000C78934218D002F55672934214D0183293420A
S31508000C8811D0183293420ED0183293420BD018322C
S31508000C98934208D01832934205D01832934202D0AC
S31508000CA8183293420DD11A6822F010021A601A688F
S31508000CB822F008021A6010BD236943F00403236171
S31508000CC8B2E71A6822F002021A601A6822F00402C9
S31508000CD8F0E700BF0CD000302C7000248CD200300E
S31508000CE841EC019051EC01905DEC0190B87100243B
S31508000CF80CD500301C72002400D0003010000240C9
S31508000D085FF800F0A50D00005FF800F035E20190E5
S30D08000D185FF800F021F50190D7
S31508000D20094A0520518808B513880B4491880B4455
S31508000D30D18812890B44054913440822B3FBF0F005
S31508000D4004F0D0FFC0B208BD00D000300000002477
S31508000D50044B834205D1044B04481B68996B00F089
S31508000D6007B870471C720024EC6B00244CD6003080
S30D08000D705FF800F03D0A0000DF
S31508000D78044B834205D1044B04481B68996B00F061
S31508000D8807B870471C720024EC6B00240CD5003099
S30D08000D985FF800F03D0A0000B7
S31508000DA0044B834205D1044B04481B68996B00F039
S31508000DB007B870472C700024EC6B00248CD20030E6
S30D08000DC05FF800F0ED110000D8
S31508000DC8044B834205D1044B04481B68996B00F011
S31508000DD807B870472C700024EC6B00240CD0003040
S30D08000DE85FF800F0ED110000B0
S31508000DF0F0B585B0002309220A2701AC0193636088
S31508000E00C4F80730002918BF1346B1FBF7F607FBED
S31508000E10161531463035A554013AF3D1E11808F0D4
S30B08000E204FFC05B0F0BD11
S31508000E2830B58BB00446282200216846224D08F0C2
S31508000E383BFC002C3AD12149684609F0B8FA2969D9
S31508000E486846FFF7D1FF1E49684608F035FC1D4C71
S31508000E5869691D4803F044F869461C4800F054F8C7
S31508000E682146686900F03CF801222346684611467F
S31508000E7800F03EF8204600F03FF8154B1860238925
S31508000E881048012B1CBF0623638100F039F86389D3
S31508000E984BB90C4800F028F8638923B90D4A136042
S31508000EA801220D4B1A6000200BB030BD28222146BE
S31508000EB8684604F009FFCAE740230024A09E02906A
S31508000EC8AD9E0290B40D0024B29E0290CC9E02906C
S31508000ED8B00D0024AC0D00245014002400000000B6
S31508000EE85FF800F0CD9002905FF800F00993029041
S31508000EF85FF800F0259102905FF800F0B59102902E
S31508000F085FF800F0FD9302905FF800F0F96B029025
S31508000F1870B5134D134E2B683268934204DA124A99
S31508000F28D05C01332B6009E0B2F5007F07DA0024AC
S31508000F380E4B0F481C6000F027F8204670BD0C4C75
S31508000F48204600F019F83060204600F021F8638939
S31508000F5813B9204600F014F8064B18790123E1E77F
S31508000F68AC0D0024B00D0024A4230024501400243A
S31508000F78B40D0024A02300245FF800F0B591029070
S31508000F885FF800F0099302905FF800F0E193029089
S30D08000F985FF800F0FD930290DA
S31508000FA01FB5D3B204460293C2F307230193C2F3D3
S31508000FB007430093130E0A46044908F0ABFA204685
S31508000FC004B0BDE81040FFF79DB900BFE09E02904F
S31508000FD010B5044613460A46034908F09BFA20460C
S31108000FE0BDE81040FFF78EB9F89E02909D
S31508000FEC38B50C2504466A439B580A46034908F04B
S31508000FFC8BFA2046BDE83840FFF77EB9039F02906E
S3150800100C10B5044613460A46034908F07DFA2046ED
S3110800101CBDE81040FFF770B9039F029072
S315080010282DE9F04F9FB018220021044601A808F0C0
S315080010383BFB2822002107A808F036FB32220021AC
S3150800104811A808F031FBA64BD3F80090B9F1000FA8
S3150800105806D1A44800F084F948461FB0BDE8F08FC9
S31508001068A14E002C4FD1A14907A809F0A0F931696A
S3150800107807A8FFF7B9FE9E4907A808F01DFB71697E
S315080010889C4802F02DFF07A99B4800F069F901A9B9
S31508001098706900F07DF901AB0122022107A800F06A
S315080010A86FF901A800F064F9BDF80C3013B10623EE
S315080010B8ADF80E30002501A800F05EF9A8462F46BF
S315080010C8AA46A946BDF80E3013B9B8F1000F20D0C4
S315080010D8394601A800F048F901A800F049F901A81D
S315080010E800F04AF9B7F5007F09D1002101A800F0F8
S315080010F83BF901A800F03CF901A800F03DF901A860
S3150800110800F042F9A8E72822214607A804F0DCFDE2
S31508001118B5E7122D00F2BE80DFE805F00A222A326A
S315080011283A424A545C646C767E86909AA1ABB200C1
S31508001138326811A87149A846FFF72EFF012504460B
S3150800114807EB040B381D6E4BA144BBF5007F18440A
S3150800115880F2A480224611A95F4609F030F9B1E762
S31508001168726811A867490225FFF716FF0446E7E7DC
S31508001178B26811A864490325FFF70EFF0446DFE79E
S31508001188F26811A861490425FFF706FF0446D7E760
S31508001198726911A85E490525FFF7FEFE0446CFE7E2
S315080011A8B26911A85B490625FFF70EFF0446C7E78B
S315080011B8594B11A896F82B2007255849FFF712FF0F
S315080011C80446BDE7564A11A856490825FFF71AFFE7
S315080011D80446B5E7544A11A854490925FFF712FFEA
S315080011E80446ADE7524A11A852490A25FFF70AFFED
S315080011F80446A5E7504B11A896F829200B254F4910
S31508001208FFF7F0FE04469BE7F28B11A84C490C251C
S31508001218FFF7DAFE044693E7328C11A849490D25EB
S31508001228FFF7D2FE04468BE7474B11A896F82C2001
S315080012380E254649FFF7D6FE044681E7444B11A812
S3150800124896F82D200F254349FFF7CCFE044677E785
S31508001258012111A807F050FD1025044670E7002162
S3150800126811A807F049FD041E04BF4FF00008112510
S3150800127866E7012111A800F083FF122504465FE7F7
S31508001288002111A800F07CFF041E04BF4FF00008D7
S31508001298132555E700244FF0010851E7C7F50077ED
S315080012A811A90AF1010A3A46A4EB070B09F087F8CF
S315080012B84FF4007101A800F057F801A800F058F893
S315080012C8BDF80C3001A853451CBF0623ADF80E30EF
S315080012D800F052F811AB5A461F48D9193CE700BF27
S315080012E8581400240E9F029040230024A09E0290C2
S315080012F8AD9E0290B29E0290429F02905A9F02901B
S31508001308A0230024659F0290709F02907B9F0290FD
S31508001318879F0290909F029080060024989F0290CB
S315080013286E230024A09F02907E230024A99F029082
S315080013388E230024B19F02905C060024B89F029071
S31508001348C19F0290C99F029014060024D29F02905A
S31508001358F0050024D99F0290A42300240000000069
S315080013685FF800F0F96B02905FF800F02D93029091
S315080013785FF800F0B59102905FF800F0FD930290CF
S315080013885FF800F0259102905FF800F0E19302906B
S30D080013985FF800F0CD90029009
S315080013A0084BF02283F8232000229A600649074B4F
S315080013B0D9634FF0E023064959619A6107221A61F9
S315080013C0704700BF00ED00E029060000000000009D
S309080013D0FFC3090040
S315080013D410B40D4B1B24DC604C1E1C610B4C5C6169
S315080013E49861BFF34F8F0AE0074B9B6813F0060F0B
S315080013F4FAD0054B93F8203002F8013B013900294D
S31508001404F2D15DF8044B70470050005203250005DD
S3150800141410B5002407E022464FF480712046FFF7F2
S31308001424D7FF04F58074B4F5803FF4D310BDED
S3150800143407E0064BDB6913F0400FFAD0034B9A62B8
S3150800144401300278002AF4D1704700BF0010014029
S3150800145400B583B000230193030903F130028DF824
S315080014640420392A02D957338DF8043000F00F00C6
S3150800147400F130038DF80530392B02D957308DF831
S31508001484050020238DF8063001A8FFF7D1FF03B025
S309080014945DF804FBF2
S3150800149810B483B00468019401FA03FC019921EA9F
S315080014A80C0101919A40019B1A430192019B036022
S30D080014B803B05DF8044B704710
S315080014C008B50823012211460848FFF7E5FF084B2F
S315080014D0CA225A6253225A621C230122114605481F
S315080014E0FFF7DAFFBFF34F8F08BD00BF0048025869
S30D080014F000400058E0440258D0
S315080014F808B51223022203211148FFF7C9FF04235E
S3150800150807220F210F48FFF7C3FF03231A460721AF
S315080015180D48FFF7BDFF0423012211460B48FFF7C4
S31508001528B7FF0423002201210948FFF7B1FF094B39
S315080015380022DA624FF40B72DA6009221A6008BDD3
S31508001548000002582400025854440258F04402582D
S30D080015589844025800100140F6
S3150800156008B514232A223F211848FFF795FF0823B8
S3150800157040F2666240F6FF711548FFF78DFF1423A7
S315080015803F2211461348FFF787FF1C230022032139
S315080015901148FFF781FF0C23042207210F48FFF7A4
S315080015A07BFF0F23012211460D48FFF775FF0D4BF0
S315080015B00D4A9A6001225A604FF480521A600B4A0B
S315080015C0DA6040F6F8729A6108BD00BF0008025852
S315080015D024080258080802584C4402585044025835
S315080015E0E8440258003C00400700072000004084F9
S315080015F020B14FF48032024B9A6170470122FAE714
S30908001600000C025872
S3150800160482B00021019140F6633303FB00F0084BD6
S3150800161483FB0023C017C0EBA312019102E0019BD0
S3150800162401330193019B9342F9DB02B0704700BF73
S30908001634D34D621012
S3150800163810B5054C00231A4601212046FFF728FF56
S3110800164840F6F873A36110BD003C00409A
S31508001654F8B505460C4616460120FFF7C7FF174F8F
S315080016647C601123002203211548FFF713FF00238A
S31508001674012211463846FFF70DFF092301221146B8
S315080016843846FFF707FF0AE00C4B5B6913F0020FB5
S31508001694FAD015F8012B094B83F82020013C002CBD
S315080016A4F2D1064B5B6913F0080FFAD016B1FFF7AF
S315080016B4C1FFF8BD0020FFF799FFF8E7003C00409A
S309080016C40C3C00408C
S315080016C8F8B505460C461646144F796011230222CA
S315080016D803211348FFF7DCFE00230122114638468A
S315080016E8FFF7D6FE0923012211463846FFF7D0FE32
S315080016F80AE00A4B5B6913F0010FFAD0074B93F817
S31508001708303005F8013B013C002CF2D116B1FFF741
S315080017188FFFF8BD0020FFF767FFF8E7003C004099
S309080017280C3C004027
S3150800172C10B582B000240194ADF8004066238DF8FC
S3150800173C04302246012101A8FFF786FF99238DF86C
S3150800174C04302246012101A8FFF77EFF1920FFF776
S3150800175C53FF90238DF80430012204210DEB010070
S3150800176CFFF772FF224602216846FFF7A7FF1648C5
S3150800177CFFF75AFE9DF80000FFF766FE9DF801007C
S3150800178CFFF762FE9DF80030C22B0AD0C22B03D19C
S3150800179C9DF80130182B0FD00C48FFF745FE02B008
S315080017AC10BD9DF80120152AF0D10948FFF73CFE1B
S315080017BC084B01221A60F2E70748FFF735FE054B7E
S315080017CC02221A60EBE700BFC0BC0008F4BC000894
S311080017DCD4BC0008D00D0024E4BC0008B2
S315080017E870B40E46039D10491B24CC605C1E0C6120
S315080017F840EA020C0D484CEA0000486112F4406FB2
S3150800180800D08E61BFF34F8F0AE0074A926812F03C
S31508001818060FFAD0044A92F8202005F8012B013B56
S31508001828002BF2D170BC7047005000520001000529
S3150800183808B500231A461F211648FFF729FE002374
S315080018481F2211461448FFF723FE142301220321F9
S315080018581248FFF71DFE0023012203211048FFF74F
S3150800186817FE1223022203210E48FFF711FE04234E
S3150800187800220F210C48FFF70BFE122303221146FC
S315080018880A48FFF705FE1D23002207210848FFF727
S31508001898FFFD08BD88440258E04402580010025863
S315080018A8000C02580008025824080258080802586A
S309080018B81044025870
S315080018BC38B5344C0E23012211462046FFF7E6FDB7
S315080018CC00234FF020124FF030112F48FFF7DEFDA2
S315080018DC082309220F212D48FFF7D8FD08230922D2
S315080018EC0F212B48FFF7D2FD00234FF0301211467B
S315080018FC2848FFF7CBFD16232A223F212648FFF757
S3150800190CC5FD0C2340F6991240F6FF712348FFF7E4
S3150800191CBDFD16233F2211462148FFF7B7FD0423C8
S3150800192C022203211F48FFF7B1FD082309220F21C4
S3150800193C1D48FFF7ABFD0423032211461B48FFF78E
S3150800194CA5FD1B4D1C23002203212846FFF79EFDEF
S3150800195C0423032211462846FFF798FD0E2301227D
S3150800196C11461448FFF792FD0E230022012120464A
S3150800197CFFF78CFD104B4FF4A8125A600F4A1A60E9
S3150800198C38BD00BF7C440258000402582004025893
S3150800199C2404025808040258000C0258240C025855
S315080019AC080C025800100258201002580810025849
S315080019BC4C440258D444025800500052010000040A
S315080019CC10B50C4B02221A600A4B1B6813F0020F57
S315080019DCFAD1084B9B6813F0200FFAD1054C00225C
S315080019EC2260042303210448FFF750FD034B2360B0
S315080019FC10BD00BF005000524C44025801000001B3
S31508001A0C82B00023019308E0019B01330193019AEC
S31508001A1C40F603239A42F7DD0138002802DD00233D
S30D08001A2C0193F4E702B07047CC
S31508001A3410B50E4B1B24DC60104340F480705861CB
S31508001A4412F4406F00D09961BFF34F8F0024074BFF
S31508001A549B6813F0200F07D00120FFF7D1FD01344E
S31508001A6442F210739C42F2DD10BD00BF00500052D2
S31508001A7430B585B005460024ADF80C40224621460B
S31508001A846620FFF7D5FF224621469920FFF7D0FFA7
S31508001A941920FFF7B5FD03AB009302234FF4105248
S31508001AA421469020FFF79EFE0DB905B030BD1548B6
S31508001AB4FFF7BEFC9DF80C00FFF7CAFC9DF80D0065
S31508001AC4FFF7C6FC9DF80C30C22B09D0C22B03D1F4
S31508001AD49DF80D30182B0ED00B48FFF7A9FCE4E748
S31508001AE49DF80D20152AF1D10848FFF7A1FC084BEB
S31508001AF401221A60D9E70748FFF79AFC044B022229
S31508001B041A60D2E700BD0008F4BC0008D4BC00087B
S30D08001B14CC0D0024E4BC000816
S31508001B2008B5FFF7CDFC174B1A6DA3F12963A3F58A
S31508001B305923A3F647439A4200D008BD114B002209
S31508001B401A65FFF779FEFFF7D7FCFFF709FDFFF7E0
S31508001B50B5FE0D48FFF76EFCFFF7E8FD0120FFF71D
S31508001B6089FF0A4B1B6813B1094B1B681BB9094847
S31508001B70FFF760FCFEE7FFF74DFCFFF711FC00F0EE
S31508001B800BF8FEE70040005814BD0008D00D0024ED
S31508001B90CC0D002430BD00085FF800F0BD0200003F
S31508001BA010B5144B1B24DC6040F001205861013944
S31508001BB01961BFF34F8F08E00E4B9B6813F0040FB3
S31508001BC0FAD012F8011B0B4B19620A4B9B6813F0EB
S31508001BD0020FF1D00024074B9B6813F0200F07D0A3
S31508001BE00120FFF70FFD013442F210739C42F2DD2B
S30D08001BF010BD00BF00500052B1
S31508001BF808B5054B1B22DA60044A5A61BFF34F8FB2
S31508001C080220FFF7FFFE08BD00500052EB2D180F03
S31508001C1838B5104C104B114D04F10F001049C4E9A2
S31508001C280035104BA3600023A381A37308F0BFFBFC
S31508001C380D4904F1190008F0BAFB0C4904F129000A
S31508001C4808F0B5FB0A4904F1390008F0B0FB094B5E
S31508001C581D6038BD60140024D002A8C000E1F5054F
S31508001C6882A50290E80383068CA5029095A50290A2
S30D08001C78A4A5029088080024C7
S31508001C8001380A280AD8DFE800F0060E161E221ABE
S31508001C9026313B4512000A68234B1A60224B5A68C4
S31508001CA0224B1A6070470A781F4B1A73F6E70A88A0
S31508001CB01D4B5A81F2E70A881B4B1A81EEE70A6820
S31508001CC0194B5A60EAE70A78174B9A73E6E70A78D7
S31508001CD0154B5A73E2E70A68134BC3F80F204A6894
S31508001CE0C3F813200A89A3F81720D7E7104B01F188
S31508001CF0100251F8040B914243F8040BF9D1CDE7D1
S31508001D000C4B01F1100251F8040B914243F8040BF5
S31508001D10F9D1C3E7084B01F1280251F8040B9142A7
S31508001D2043F8040BF9D1B9E76014002488080024A5
S31108001D3079140024891400249914002456
S31508001D3CF7B5284D022204460A262B46114603F00F
S31508001D4C10F9AB1C204604220221102703F009F9CE
S31508001D5C6B1C20460522022103F003F92B1F204693
S31508001D6C0322022103F0DEF8AB1E20460B220221C9
S31508001D7C03F0D8F8A5F1080320460622022103F041
S31508001D8CB2F8A5F10C0320460122022103F0ABF8A8
S31508001D9CEB1C204607220221009603F07FF805F17A
S31508001DAC0D03204608220221009703F077F805F167
S31508001DBC1D03204609220221009703F06FF82823F9
S31508001DCC324602210093204605F12D0303F066F8EE
S30D08001DDC03B0F0BD6C140024ED
S31508001DE87FB501284FF0000406460D46CDE90244A2
S31508001DF800F388800123029395E0042EFAD192E035
S31508001E08524B1B683BB9A4F10803022B03D8504868
S31508001E1800F0DAF80FE00C2C0DD8DFE804F007110B
S31508001E282214303E4750575E63686D00494AE96890
S31508001E38494802F00DFB7268484B1A6004B070BD39
S31508001E4802F00EFCF7E7338964224548039303AB8F
S31508001E58009342F21073E96802F032FB039B338160
S31508001E68E9E7738901223F48039303AB00934FF6CA
S31508001E78FF73E96802F024FB039B7381DBE7736849
S31508001E883C223948039303AB00934FF44873E96837
S31508001E9802F042FB039B7360CDE70123334A3448BB
S31508001EA80093344BE96802F06FFBC4E70123324A12
S31508001EB832480093324BE96802F066FB3EE001239C
S31508001EC8304A31480093314BE968ECE71023304A29
S31508001ED8E968304802F0D0FBADE70A232E4AE968DC
S31508001EE82E48F7E710232E4AE9682E48F2E72823F2
S31508001EF82D4AE9682D48EDE72D4800F065F800F009
S31508001F08DBFF98E702AA89682A4803F0C5FD012875
S31508001F18044602D00C2C7FF470AF032E7FF46AAF08
S31508001F28012C18BF0C24029B0A4E002B3FF468AFFD
S31508001F38214800F049F8062C7FF47DAF00231F4A94
S31508001F481F4813601F4A136062E700BF581400242D
S31508001F580CA602906014002435A60290880800246E
S31508001F6851A6029073A6029095A602906E140024B4
S31508001F78B1A60290D00000246D140024BEA60290D3
S31508001F88A00000246C140024D2A602907C00002429
S31508001F9889140024F3A602906F14002402A702905D
S31508001FA8791400241AA70290991400242AA70290E3
S31508001FB83CA70290F4000024B6A50290D825002470
S31508001FC856A70290D42500245FF800F0F96B029012
S31508001FD873B53E4C0C263E4D3E48D4E9001200F037
S31508001FE8A3F829683C4801F07BFF2B7B3B4A7343DF
S31508001FF8D018D0E901018DE803003948D358D4E947
S31508002008121200F091F83748D4E9031200F08CF858
S31508002018354B186800F08CF801462F4801F060FF28
S315080020286B893248D4E9211200F07EF82B893048AA
S31508002038D4E9061200F078F86A682E492E48B2FBE9
S31508002048F1F301FB13220092D4E9091200F06CF8A7
S31508002058AB7B2A4A7343D018D0E901018DE80300FF
S315080020682748D358D4E90C1200F05EF86B7B254A4A
S315080020787343D018D0E901018DE803002248D358E4
S31508002088D4E90F1200F050F8204B1B68A3B105F1EC
S3150800209829031F48D4E91B1200F046F805F119036D
S315080020A81C48D4E9181200F03FF805F10F031A483E
S315080020B8D4E9151200F038F8184B1948D4E91E1255
S315080020C802B0BDE8704000F02FB800BFF400002445
S315080020D8601400246DA702907CFF02907C000024FF
S315080020E89CA70290CFA70290481B0024FEA702903F
S315080020F831A8029040420F0064A80290D00000243C
S315080021089DA80290A0000024D0A802905814002484
S3150800211803A9029036A9029069A902909914002485
S315080021289CA90290000000005FF800F0F96B029085
S30D080021385FF800F06B4E019000
S31508002140002307B5014601AA0848019303F0A8FC35
S31508002150019B3BB9064B53F8200000F00DF803B07D
S315080021605DF804FB034800F00BF8F8E7F4000024D8
S3150800217094390390CFA902905FF800F0696C029039
S30D080021805FF800F0F96B02900C
S3150800218810B52C4C69B1002323602B4A2B4B127BC4
S315080021982B49FEF727FF01462368084601332360C3
S315080021A810BD23680A2BF7D801A252F823F000BFFE
S315080021B893210008E5210008EF210008F921000805
S315080021C8052200080D220008152200082122000809
S315080021D82B2200083122000837220008164A194B14
S315080021E8927B1949D5E7144A184B527B1849D0E708
S315080021F8114B18491A89FEF7E7FECCE70E4B164924
S315080022085A89F8E70C4B15495A68F4E70A4B1449F2
S315080022181A68FEF7C1FEBEE7124A1349FEF7F2FE30
S31508002228B9E7124A1249F9E7124A1349F6E7134A6F
S315080022381349F3E75C140024601400247C00002486
S3150800224819AA0290D000002425AA0290A00000240A
S3150800225836AA029048AA029058AA029062AA029040
S315080022686DAA02906F1400247BAA029079140024A0
S315080022788AAA02908914002498AA0290991400241C
S30908002288A5AA029063
S315080022902DE9F04F002391B09E4C4620099300F09B
S315080022A017FA2368FBB101229B4EDFF8DC829B4BB1
S315080022B01146F07903F0A4FD98F80C30BBB1984D9F
S315080022C008F13904974F2946204600F009FA98B1D3
S315080022D001223B46F079114603F092FD4FF47A70DD
S315080022E000F0F6F9EFE70A2000F0F2F9D9E7D8F896
S315080022F000308B4A1BBA1360894C20208A4B22680F
S31508002300DFF888A21A600022114600F009FA874B06
S3150800231001220221CAF800000090F07903F070FD4E
S31508002320B8F80A202146DAF8000000F0E1F9DAF8F0
S315080023300030012202210093F0797D4B03F060FD05
S315080023407C4B01221A6009A9DAF8000000F0E0F9CE
S3150800235078B9099B1A68B2F80890A9F118039BB2D4
S31508002360C92B05930AD909980028ECD000F0B4F9CE
S31508002370E9E70021102002F0BBFCF4E76E4B1B686E
S31508002380002BF0D157680AAC6C4A136007F11802A3
S315080023903B460792186822465968083303C2144612
S315080023A0079A9342F6D10A9800F0C2F90A900446B1
S315080023B00B9800F0BDF90B900546BDF83E0000F0FD
S315080023C09BF9BB685E4A5F491360FB6806905360D9
S315080023D03B8AADF83E00A1F11A00138100F030FAED
S315080023E000F0A6F9D7F81230DFF8A4B1D3B9DBF8B4
S315080023F00030012B05D0544B0122F079114603F029
S31508002400FFFC0123CBF80030069ADFF888B1052ACD
S3150800241000F24481DFE812F03500C400FB00010138
S31508002420420134019842DBF8002026D198F80D3095
S31508002430DBB9464B1B789806E6D5444B1B7813F058
S3150800244010030CBF022103218A42CBF80010DBD00F
S315080024503F49404AF079002B18BF0A463E4B009286
S315080024600122114603F0CCFCCEE7013B012BCBD869
S31508002470364B1B789B06C7D4DFE7012AC1D0374BFA
S31508002480BAE7DBF80030B9F1190F03F10103CBF80D
S31508002490003040F00381324B0022DFF8FC901A60CE
S315080024A0304BDFF8F8B01978C9F800400229CBF8A4
S315080024B000500AD12C492D4800F036F92C49002243
S315080024C0284B0C602B491A700D60DBF800202A4B4C
S315080024D02A4913441D4C8B4289BF294BCBF800303F
S315080024E09B18CBF8003082BFD9F800300133C9F801
S315080024F000303B7E237000F0F7F823780122032191
S31508002500F0790193D9F8003000931E4B03F078FC5C
S3150800251029E700BFB01B00243023002476B00290C0
S31508002520441B00248AB00290481B0024B7B00290CE
S31508002530D9B00290781700246C170024701700246D
S315080025406017002489140024FFB00290581700244D
S315080025506AB0029070B0029022B102903FB1029028
S315080025604C1700248C17002484170024881700248D
S31508002570801700247C170024002D3101FFC99A3BDF
S31508002580006396C56BB1029060140024741700248A
S315080025905C170024901700245417002450170024B1
S315080025A000F04AFEDBF80430B9F1B90F03F1010374
S315080025B0CBF8043072D13C4907F1190000F0ACF8A9
S315080025C03A4B2246384819782B4681F02001C1F348
S315080025D0401100F099F8364B197803297FF4C3AEF9
S315080025E0DFF8E890334FD9F800303348E21A3B68F1
S315080025F00094EB1A00FB02330122F079CDE901536E
S315080026002E4B03F0FDFBC9F800403D60ABE6DBF856
S3150800261008300133CBF80830A5E600F00DFEDBF8EC
S315080026200C30B9F1BC0F03F10103CBF80C3035D1EE
S3150800263007F119001D4F1C4900F062F839782B463E
S31508002640224681F020011848C1F3401100F05CF8D9
S3150800265098F80D30002B3FF486AE194B164A2B44DA
S3150800266039781848934281F0200184BF0134164B0B
S31508002670C1F3401188BF5B19224600F045F872E69F
S31508002680DBF81430B9F1E10F03F10103CBF814308C
S3150800269004D00599079800F093F964E6DBF818303A
S315080026A00133CBF818305EE6CC1400245817002402
S315080026B028230024C414002400CA9A3BA7B1029018
S315080026C0002D31010C160024006396C5C814002499
S315080026D05FF800F04D0501905FF800F01D4B019082
S315080026E05FF800F07D3801905FF800F08D09000072
S315080026F05FF800F0953301905FF800F0654E0190A1
S315080027005FF800F07D1F00005FF800F0BD0D0000C7
S315080027105FF800F0D93701905FF800F04D1E000011
S315080027205FF800F0593201905FF800F0697A02907C
S30D080027305FF800F06B4E019002
S31508002738034B187801280ABF022200201A7070472E
S309080027488C170024B8
S31508002750194B13B55C7B012C0BD0022C22D034B953
S31508002760164B186800F038F8154BC3E9000402B098
S3150800277010BD01A9684600F02BF8019B114AA3F584
S31508002780FA630F4C934289BF009B019303F1FF3311
S315080027900093009800F020F82060019800F01CF8DB
S315080027A06060E4E7054B064C186800F015F8064B20
S315080027B020601868F2E700BF60140024541700244C
S315080027C0F41A002400CA9A3B50170024000000009F
S315080027D05FF800F0697A02905FF800F06B4E01909E
S315080027E0F8B50F4610490968E1B1104E0C25DFF817
S315080027F044C031684D430CEB05044CF805002272C1
S31508002800002263720A4B62811868676000F014F848
S31508002810336801335A4203F0030302F0030258BF38
S3150800282053423360F8BD00BF7817002460180024AF
S315080028305C640024101B00245FF800F06B0701900D
S3150800284070B50546094E0C46FDF75CFD294602465D
S31508002850304600F011F82046FDF754FD21460246A1
S31508002860304600F005F8C04370BD00BF4070002434
S315080028705FF800F0C5EA01905FF800F005EB0190FB
S315080028802DE9F041234E074600F108030D46D6F818
S315080028900F00D6F8131003C3B6F8172006F119016E
S315080028A01D481A80FFF7CCFF00F04AF81B4BC7F803
S315080028B01200D3F80080B8F1000F28D100F044F8D0
S315080028C0044620B90146BDE8F04102F011BAADB29E
S315080028D0294600F029F82A463946206800F038F8D3
S315080028E0054640B14146022002F002FA2046BDE8FC
S315080028F0F04100F01DB80A4821467389094A006864
S3150800290000F01AF80028F1D029460320ECE7BDE8C4
S31508002910F08100BF60140024601700246C1700249F
S3150800292074170024441B00245FF800F0414B019003
S315080029305FF800F01D4B01905FF800F059340190E4
S315080029405FF800F06B4E01905FF800F0054B0190C0
S30D080029505FF800F03D680190F4
S3150800295837B5FFF7F9FE002000F02AF80F4C104D9E
S315080029682023E0820221237601226B7B0D48002B67
S3150800297814BF1823192300930B4BC07903F03CFAAC
S315080029886B7B2046002B14BF18211921FFF774FF0B
S31508002998064A13680133136003B030BDF41A0024DD
S315080029A86014002430230024D1B102904C1B002463
S30D080029B85FF800F0654E01907E
S315080029C00E4B70B50E4C064618680D4600F01CF8FE
S315080029D0002320600520636000F01AF82A46314675
S315080029E0E08204F1180007F0EEFC29462046FFF7BE
S315080029F047FF044A53690133536170BD54170024D5
S31508002A00681800244C1B00245FF800F06B4E0190F8
S30D08002A105FF800F0654E019025
S31508002A18F0B50C461F4E85B01746054600F058F81F
S31508002A283060204600F054F87060012000F04CF839
S31508002A38A022F08206F119001749377607F0BFFC7D
S31508002A48164B1B78022B14D1154E164F33681649A8
S31508002A58EA1A3B681548E31A009501FB0233012276
S31508002A680321CDE90143124BC07903F0C5F9356056
S31508002A783C60104B1B781B0702D4062000F020F890
S31508002A88B9210448FFF7F8FE0B4A53680133536027
S31508002A9805B0F0BD381A0024BC17002428230024E2
S31508002AA8B0170024AC17002400CA9A3B3023002428
S31508002AB8F1B10290581700244C1B002400000000AE
S31508002AC85FF800F04D0501905FF800F0654E01903B
S30D08002AD85FF800F06B4E019057
S31508002AE02DE980489A4C8BB02368002B00F0928021
S31508002AF0DFF8D4B20122974B11469BF8070003F082
S31508002B007FF9954C4FF0FF32216803A800F0B8F919
S31508002B10DDE90323102AF5D10C229049DFF8AC82AF
S31508002B2053438F4DCA1851F803A08E495368577AF4
S31508002B300093137A8C4A0193D8F800300133C8F809
S31508002B4000302B689A188A4268D82A60874B884AC8
S31508002B50196839B1002119600121864B19604FF4B3
S31508002B60FA7313601368002B04DD013B13600BB97D
S31508002B70804A1360804C236801332360FFF7DCFD2D
S31508002B8008B1FFF7E9FE7D491422DFF84492096887
S31508002B90B9F808300129B3FBF2F322684AD8934200
S31508002BA003DA00232360FFF7D7FEBAF1000FA8D097
S31508002BB0724B1B68023B012BA3D8714C21788A06FD
S31508002BC003D4704B1B68002B9BD001F00203019ABB
S31508002BD01A4396D011F0100650466B4940F0FA8019
S31508002BE000F066F9B922314668480296069606F05C
S31508002BF05FFD99F80D30012B00F09680022B00F04E
S31508002C00A380002B7FF47DAF3A46D8F80010604BBE
S31508002C10186896E00A2000F03BF965E703F145439A
S31508002C205B4A03F5160303F5C6432B6013680133A5
S31508002C3013608BE7934248DA0021102206A8216028
S31508002C4006F036FDFFF784FD022000F025F9514C09
S31508002C5099F80D30E082002B64D0012B48D14E4BF9
S31508002C601B68002B5ED04D4E04F118004C4996F8AF
S31508002C702130721C06F04EFC96F8223006F111023D
S31508002C80484904F1210006F045FCB28C464906A8DD
S31508002C9006F040FC0698BDF81C209DF81E30C4F8C6
S31508002CA02B00A4F82F2084F831303224344B1B78BB
S31508002CB0190702D4062000F0EBF821463548FFF73D
S31508002CC0DFFD3A4A936801339360394C2368013330
S31508002CD0FA2B23607FF769AF0026284B01229BF861
S31508002CE007001E601146334B03F08AF826605CE73E
S31508002CF0314B183403F110061868083353F8041CCE
S31508002D002246B34203C21446F6D11A889B7822801B
S31508002D102A4AA37011682A4B19609188927999807A
S31508002D209A71C2E71824C1E706AA02A9009800F01A
S31508002D30B7F8244A06A902A800F09EF83A4606996A
S31508002D400298FFF769FEDCE63A4629685FE700BFA6
S31508002D50781700241BB202905C640024101B002420
S31508002D6050170024FFC99A3B002D3101641800242E
S31508002D70B81700246C170024B41700245C17002425
S31508002D8058170024D4250024BC170024381A002418
S31508002D9054170024041A0024D8250024F61B0024FE
S31508002DA030B2029038B2029040B202904C1B002416
S31508002DB07017002448B20290C8390390DB39039093
S31508002DC02F1A002400D3CEFE302300244C170024EB
S31508002DD06014002400F068F800283FF492AE214EF3
S31508002DE00021BC2230460291069106F061FC99F852
S31508002DF00D30012B25D0022B2DD04BB91A4B186854
S31508002E0000F05AF83060D8F8000000F055F8706005
S31508002E10032000F041F8A322F082144914483776BB
S31508002E2007F0D1FA23781B0702D4062000F030F801
S31508002E30BC210C48FFF724FD0E4AD3680133D36042
S31508002E405FE606A902A800F01FF8029800F034F819
S31508002E5030600698D9E7044B186800F02DF8306002
S31508002E602868D2E74819002454170024BC17002400
S31508002E70611900244C1B00245FF800F07D7A02904B
S31508002E805FF800F0BD0701905FF800F0697A0290DC
S31508002E905FF800F04D0501905FF800F0654E01906F
S31508002EA05FF800F0157A02905FF800F06D1E0000DA
S31508002EB05FF800F0F11D00005FF800F06B4E01901E
S31108002EC0014B01221A60704764180024B8
S31508002ED00A4608B509280AD8DFE800F03B053E0986
S31508002EE0092B2E0932384FF400511D482AE00728CD
S31508002EF035D1032933D8DFE801F0020A181A00226F
S31508002F004FF48051164800F033F8002206E00122FB
S31508002F104FF48051124800F02BF801224FF400615B
S31508002F200F48BDE8084000F023B80022F0E7012268
S31508002F30E6E74FF48061D8E74FF48041094801E09D
S31508002F4040210948002AECD00122EAE74FF4004163
S31508002F50F4E74FF40041C8E74FF48041C5E708BDE0
S31508002F6000100258000C0258000802580000000021
S30D08002F705FF800F0590F02900A
S31508002F7808B500210620FFF7A7FF00210720FFF75D
S31508002F88A3FF00210920FFF79FFF00210820FFF76C
S31508002F989BFF01210520FFF797FF642000F044F8FE
S31508002FA800210520FFF790FF01210620FFF78CFF77
S31508002FB8642000F039F800210620FFF785FF012173
S31508002FC80720FFF781FF642000F02EF8022107206A
S31508002FD8FFF77AFF642000F027F803210720FFF798
S31508002FE873FF642000F020F800210720FFF76CFF24
S31508002FF801210820FFF768FF642000F015F8002172
S315080030080820FFF761FF01210920FFF75DFF64200B
S3150800301800F00AF809200021FFF756FF6420BDE8EA
S31508003028084000F001B800005FF800F04D0501906F
S31508003038B0FA80F210210248520900F005B800BF1C
S3150800304800100258000000005FF800F0590F0290BF
S31508003058021E4FF04001024818BF012200F004B8CA
S31508003068000C0258000000005FF800F0590F0290A3
S315080030782021024808B500F003F808BD000C0258DC
S30D080030885FF800F04D0F0290FD
S315080030908021024808B500F003F808BD0008025868
S30D080030A05FF800F04D0F0290E5
S315080030A88021024808B500F003F808BD000C02584C
S30D080030B85FF800F04D0F0290CD
S315080030C04FF48071024808B500F006F808BD00BF45
S315080030D000080258000000005FF800F04D0F02904B
S315080030E02021044808B500F007F8B0FA80F0400936
S315080030F008BD00BF000402585FF800F04D0F0290AB
S3150800310030B58FB00D4604463422002101A806F0DA
S31508003110CFFA32232A2101A85C43B4FBF5F49C427A
S31508003120A8BF1C46224606F0C3FA04F1380301A9D3
S3150800313004480DEB03040A2304F8343C00F004F8B1
S315080031400FB030BD04B402905FF800F0F96B02903E
S31508003150002302282DE9F34101930DD101AA4968FC
S31508003160294802F09DFC019D4DB1284800F060F801
S31508003170002002B0BDE8F08101230193F5E701388C
S315080031800328F5D8DFE800F00206090F204B0122D4
S315080031901A60EDE71E4B0022FAE7322200211D488D
S315080031A006F086FAE4E71B4E00233246374632F825
S315080031B0021B01338D42B8BF0D46192BF7D11648AD
S315080031C0002400F035F8DFF86080144800F030F885
S315080031D0134800F02DF83388E21C21464046043493
S315080031E000F026F8294636F8020BFFF789FF602C0F
S315080031F0F1D121463A8E0B4800F01AF82946388E46
S31508003200FFF77EFFB4E700BFCC01002407B40290A5
S31508003210601C0024641C002425B4029044B4029067
S31508003220B2B4029066B4029059B40290000000004D
S30D080032305FF800F0F96B02904B
S315080032380F4B10491B6870B50F4C586A2368A3B121
S315080032480B684CF24F360D4AC31A0D4D934296BF7A
S315080032580C4A1823B3FBF2F335F81320B24295BF8C
S315080032680132002325F813202360086070BD00BFCB
S31508003278EC6B0024241C0024601C0024FF083D0075
S30D08003288641C00240071020019
S31508003290002302282DE9F34101930DD101AA4968BB
S315080032A02A4802F0FDFB019D4DB1294800F060F85F
S315080032B0002002B0BDE8F08101230193F5E701384B
S315080032C00328F5D8DFE800F00206090F214B012292
S315080032D01A60EDE71F4B0022FAE7322200211E484A
S315080032E006F0E6F9E4E71C4E00233246374632F884
S315080032F0021B01338D42B8BF0D46192BF7D117486B
S31508003300002400F035F8DFF86480154800F030F83E
S31508003310144800F02DF8338804F127022146404668
S31508003320283400F025F8294636F8020BFFF7E8FEA0
S31508003330B4F5707FEFD121463A8E0B4800F018F8A5
S315080033402946388EFFF7DCFEB2E700BFCC01002421
S3150800335007B40290281C00242C1C002473B4029085
S3150800336099B40290B0B4029001B50290F4B40290F8
S30D080033705FF800F0F96B02900A
S31508003378002313B5044601A96846CDE9003300F0D1
S3150800338833F813490B680BB3009B124803F0030282
S31508003398019B00FB0233104A934234BF00200120E8
S315080033A802FB10330D4A181B0D4B4CF24F3498424A
S315080033B896BF0C4B1820B0FBF3F032F81030A34236
S315080033C895BF0133002322F810300B6002B010BDF8
S315080033D8281C002400CA9A3B00286BEE2C1C0024E3
S315080033E8FFC99A3B005A62025FF800F0697A0290B0
S311080033F84FF480324FF0104106F0E1BFA0
S30B080034040020FFF7F7BFE8
S3150800340C034BD3F823200260B3F827308380704728
S3090800341C4023002417
S3150800342008B50120FFF708FE0A2000F009F8002079
S31508003430FFF702FE0A20BDE8084000F001B80000C8
S30D080034405FF800F06DDA019057
S307080034487047BD
S31508003450002373B5036006460B600D4613601446D9
S3150800346001931E2201AB0121134800F029F880B907
S31508003470019BC3F3002203F00703013B3260052BCF
S3150800348016D8DFE803F0030D1515081200232B6084
S31508003490236002B070BD4FF400532B600023F7E79A
S315080034A000232B604FF48043F2E74FF40053F8E70C
S315080034B000233360EDE700BFE0740024000000003D
S30D080034C05FF800F09B0702907B
S315080034C8F0B59FB004460D466422002105A806F00B
S315080034D8EBF803AA04A902A8FFF7B6FF94F8313057
S315080034E8029EC3F3800355EA03020ED056B91C4858
S315080034F800F04EF8204600F053F8204600F058F839
S315080035081FB0F0BD0DB9002BFAD1012EF8D105A9C7
S31508003518134800F049F8049D039F05A910480B9520
S315080035280A9700F031F80E4800F036F8204600F001
S3150800353843F8204600F024F80A4A0B4B0B49002F9B
S3150800354808BF13460A4A0B48002D08BF0A463146E3
S31508003558CDE90032084B3246007902F04DFCCFE738
S31508003568E074002401B7029005B702900AB70290E2
S315080035780EB702903023002412B70290000000000C
S315080035885FF800F0096101905FF800F08109029080
S315080035985FF800F02F0402905FF800F0AB03029082
S315080035A85FF800F0B56001905FF800F0F507029043
S315080035B85FF800F0516101905FF800F06D600190C6
S315080035C808B5024800F004F8002008BD92B7029032
S30D080035D85FF800F0F96B0290A0
S307080035E0704724
S315080035E837B50446104DFFF777FDA8B900F02CF853
S315080035F80E4B1B8801930E4B009301220D4B03219A
S31508003608687B02F055FC0123084A20460A4903B09C
S31508003618BDE8304000F014B800F016F8064B1B88D1
S315080036280193064BE8E700BF30230024B41C0024A6
S31508003638B6B7029001000002B61C0024E0B7029053
S315080036485FF800F0194C02905FF800F061DA019013
S315080036580A4B1A68012A04D0022A09D03AB100226C
S3150800366804E0074A4FF08071916102221A60704798
S31508003678034A4FF480719161F1E700BFB01C00243A
S3090800368800000258D6
S3150800368C402307B58DF80730FEF7D0F8FEF710F98A
S3150800369C0020FEF7E9F9002206201146FEF7C4F9C8
S315080036AC01210DF107020846FEF774FA3220FEF7DF
S311080036BCA7F9FEF79BFA03B05DF804FBC3
S315080036C808B572B6FEF77EF9FEF792FA62B608BD35
S315080036D8024B00221B681A65704700BF386E002423
S315080036E80028034A034B126808BF0023136570476E
S30D080036F8386E0024B9A3624DE7
S31508003700F0B589B0002307460D466A4649686748FA
S31508003710009302F0C5F9009C06462CB1644800F0F7
S31508003720DFF8002009B0F0BD022861D0032800F0B8
S3150800373098800128F5D11422214603A8019405F0A2
S31508003740B7FF082F029401D05A48E8E702AB632274
S315080037502146A86802F0C8F902AB0C2231468DF85A
S315080037600700E86802F0C0F902AB1F2231468DF85F
S315080037700500286902F0B8F90723172221468DF8B3
S3150800378006008DF8043002AB686902F0ADF902ABA9
S315080037903B2221468DF80C00A86902F0A5F93B22C8
S315080037A08DF80D0002AB2146E86902F09DF9029AF0
S315080037B08DF80E0004948DF80F40CDE906440AB141
S315080037C03D48ACE701A93D4800F096F810B1029BC8
S315080037D001330293002203A9384800F091F810B18A
S315080037E0029B01330293029B002BE9D1344896E7EA
S315080037F01422214603A8029405F05AFF314B1B6890
S315080038000BB931488BE7314B02A92C4893F826208F
S315080038108DF80B2093F827208DF8092093F8282097
S315080038208DF80A2007228DF8082093F829208DF8AC
S315080038300C2093F82A2093F82B308DF80D20224679
S315080038408DF80E3000F058F80546224603A91B48A5
S3150800385000F056F80543EDB20DB11D485FE71D4867
S315080038605DE72146142203A8029405F021FF2246AB
S3150800387003A9124800F038F8224602A90F4800F0BA
S3150800388037F89DF80B309DF80A209DF8091003F5C6
S31508003890FA63114800F024F89DF80E309DF80D20C3
S315080038A09DF80C100D4800F01BF83AE75C0200245E
S315080038B0E5B802900BB9029029B90290386E002437
S315080038C058B90290D825002467B90290F61B00243F
S315080038D08AB90290A8B90290C3B90290D3B90290E6
S315080038E05FF800F0F96B02905FF800F0C7430290AA
S315080038F05FF800F00D4402905FF800F01F43029055
S30D080039005FF800F05B4202903B
S3150800390838B54FF48033064D14468AB2AB61014682
S315080039180A23044800F008F80CB90123AB6138BD3E
S31508003928000C0258286D00245FF800F085470290BD
S315080039382DE9F743002406464FF0050901270194A7
S315080039488DF8034000F030F8DFF8548000F164057C
S3150800395800F02AF8A84208D90134052000F028F80A
S315080039686435042C01DDBEB90024012201A88DF8AE
S3150800397804901146FFF7C4FF0A2301220DF103013B
S31508003988404600F019F8054B9F619DF80330DB07A0
S31508003998DED403B0BDE8F083B047E5E7000C02586B
S315080039A8286D0024000000005FF800F061DA019035
S315080039B85FF800F04D0501905FF800F0B9490290EC
S315080039C830B5002485B066230121224603A803944E
S315080039D8ADF808408DF80C30FFF792FF9923224678
S315080039E8012103A88DF80C30FFF78AFF012001246E
S315080039F800F056F890230122042103A88DF80C300C
S31508003A08FFF77EFF0A23022202A91B4800F044F8A2
S31508003A181A4B1B4D22469C6103219DF809300193D8
S31508003A289DF808300093174B287B02F0E5F99DF8B6
S31508003A380830C22B18D19DF80930287B152B08D1D8
S31508003A48114B2246022102F0D7F9104B1C6005B02B
S31508003A5830BD182B08D10E4B2246022102F0CCF9AC
S31508003A680A4B02221A60F2E701220A4B287B114602
S31508003A7802F0C2F9EBE700BF286D0024000C0258D3
S31508003A8830230024A6BA0290CABA0290D02000248D
S31508003A98E4BA0290FFBA02905FF800F0B9490290BA
S30D08003AA85FF800F06DDA0190E9
S31508003AB02DE9FF41DFF8B080002600910546274B27
S31508003AC00C4617460321012298F80C0002968DF839
S31508003AD00C6002F095F906233246012102A88DF8FA
S31508003AE00830FFF711FF8DBB1D48C4F30743C4F325
S31508003AF00721E2B20068012819D1202264BA0421FC
S31508003B008DF809308DF808202A46ADF80A4002A833
S31508003B10FFF7FAFE3846FFF70FFF124B0122032183
S31508003B2098F80C0002F06CF904B0BDE8F081212089
S31508003B30E40D8DF80B1005218DF80C202A468DF81A
S31508003B4008008DF809408DF80A30E0E7012DE1D12B
S31508003B506023324629468DF80830D8E724BB029000
S31108003B60D02000243BBB02903023002438
S31508003B707FB5002306462248154602930C468DF863
S31508003B800C30204BCDE9001201220321007B02F004
S31508003B9037F9B5F5803F00D3FEE71B4AC4F3074360
S31508003BA0C4F30720E1B21268012A1AD1032164BAC4
S31508003BB08DF809308DF808100421ADF80A4002A8DE
S31508003BC0124CFFF7A1FE3146AAB2104800F024F8BD
S31508003BD0204600F025F80128FAD10D4B986104B06B
S31508003BE070BD1322240E8DF80C1005218DF80820BF
S31508003BF001228DF809408DF80A308DF80B00DEE7B2
S31508003C00302300244FBB0290D0200024286D0024C6
S31508003C10000C0258000000005FF800F0914E029078
S30D08003C205FF800F0C55202909E
S31508003C282DE9F04FDFF8E49085B04FF00008DFF88B
S31508003C38E0A0DFF8E0B007460C461646304BCDE95B
S31508003C4800120122032199F80C0002F0D5F8B045B4
S31508003C5809D32C4B0122032199F80C0005B0BDE8BD
S31508003C68F04F02F0C9B824F0FF05A6EB08030022B6
S31508003C7801212D1B02A8029205F580758DF80C20E6
S31508003C889D4228BF1D4606238DF80830FFF738FEE3
S31508003C981D4AC4F30743C4F30720E1B21268012A90
S31508003CA81ED102218DF8093063BA8DF8081004214F
S31508003CB8ADF80A3002A8FFF723FE3946AAB25046DD
S31508003CC800F02EF8504600F027F80128FAD1CBF86C
S31508003CD8180000202C44A8442F44FFF729FEB6E70D
S31508003CE812228DF80C108DF80A3005218DF8082057
S31508003CF8220E8DF80B008DF809200122DAE700BF9D
S31508003D086DBB02908BBB0290D02000243023002480
S31508003D18286D0024000C02585FF800F0C55202907E
S30D08003D285FF800F02D4D029032
S31508003D30F0B5074685B0124800260C461546114BC5
S31508003D400396CDE9001201220321007B02F058F800
S31508003D50B123324603A801218DF80C30FFF7D4FDB4
S31508003D602A4621463846FFF703FFC123324601217A
S31508003D7003A88DF80C30FFF7C7FD05B0F0BD00BFEE
S30D08003D80302300249FBB0290CA
S31508003D88F7B50024B12305460E46174601A822466C
S31508003D98012101948DF80430FFF7B2FD3A46314601
S31508003DA82846FFF73DFFC1232246012101A88DF8C1
S30F08003DB80430FFF7A5FD03B0F0BDC7
S31508003DC82DE9FF41324D0026324B01220321287B7B
S31508003DD88DF80E604FF02B088DF80F6002F00CF87E
S31508003DE8012201240DF10E002B4F11468DF80E8085
S31508003DF8FFF786FD0DF10F010A230122274800F077
S31508003E085BF8BC619DF80F30224603210093244BCA
S31508003E18287B01F0F1FF0623324621460DF10E00F4
S31508003E288DF80E30FFF76CFD2F23324621460DF12B
S31508003E380E008DF80E30FFF763FD052000F038F800
S31508003E48224621460DF10E008DF80E80FFF758FD23
S31508003E5822460DF10F010A23104800F02DF8BC611F
S31508003E689DF80F302246032100930E4B287B01F05C
S31508003E78C3FF9DF80F302246032113F0020F287B53
S31508003E8814BF094B094B01F0B7FF04B0BDE8F08130
S31508003E9830230024C0BB0290000C0258286D002469
S31508003EA8D7BB0290FBBB02901EBC029031BC0290A5
S31508003EB85FF800F04D0501905FF800F0B9490290E7
S31508003EC801EB410152F821200146014800F004B8E7
S31508003ED868F80290000000005FF800F0F96B02909D
S31508003EE8CBB207B50193C1F307230A0E0093C1F3B2
S31508003EF807430146024800F007F803B05DF804FBDB
S31508003F0843BF0290000000005FF800F0F96B0290CA
S31508003F182DE9F04F89B00023496807AA8F48079307
S31508003F2801F0BAFD079B33B18D4800F089FA0020E5
S31508003F3809B0BDE8F08F1B28DFF88C9218BF054634
S31508003F4800F1010006BF1B23012503460593059BBF
S31508003F589D42ECDAD9F800604EB9A5F10803012BA1
S31508003F6805D835467F4800F06BFA0135EFE76B1E32
S31508003F78192BFAD8DFE813F01A00200024002800C5
S31508003F883D00410047004F00530059002C017701B6
S31508003F98300064016A016F01730179017F015600D7
S31508003FA8850193012C003A003700E7016E4B6F48EC
S31508003FB81968FFF795FFD8E76B4B6D485968F8E716
S31508003FC8694B6C489968F4E7674B6B48D968F0E71A
S31508003FD8654B6A485969ECE7634B69499A696948C0
S31508003FE800F02EFAC1E704F0DFFDBEE7FDF7F0FFA3
S31508003FF8BBE75D4B64491A69F1E75B4B6348998BE4
S315080040081A7F090AECE7584B614A93F82910614860
S31508004018FFF756FFA9E7604A60496148E0E7614A41
S315080040286149FAE7614A6249F7E7DFF8A0A14FF064
S315080040380C08604F9AF800305F4E08FB03F35F4898
S315080040483168FA5800F0FCF99AF80130F16808FB6B
S3150800405803F35A48FA5800F0F3F99AF80230B169A6
S3150800406808FB03F35548FA5800F0EAF99AF80330BA
S31508004078716A08FB03F35148FA5800F0E1F99AF80F
S315080040880430316B08FB03F34C48FA5800F0D8F9AA
S315080040989AF80530F16B08FB03F34848FA5800F01C
S315080040A8CFF99AF80630B16C08FB03F34348FA5877
S315080040B800F0C6F99AF80730716D08FB03F33F4814
S315080040C8FA5800F0BDF99AF80830316E08FB03F380
S315080040D83A48FA5800F0B4F99AF80930F16E08FB2C
S315080040E803F33648FA5800F0ABF99AF80A30B16F74
S315080040F808FB03F33148FA5800F0A2F99AF80B308E
S31508004108D6F8841008FB03F32C48FA5800F098F9F7
S315080041189AF80C30D6F8901008FB03F32748FA5893
S3150800412800F08EF99AF80D30D6F89C1008FB03F3C0
S315080041382248FA5800F084F99AF80E30D6F8A810EA
S3150800414808FB03F31D48FA5800F07AF91C4800F0F2
S3150800415877F91C4800F074F907E700BF8C040024B7
S3150800416853BF02900CA60290402300247FBF0290FA
S3150800417892BF0290A1BF0290B4BF0290C0BF02903E
S31508004188D6BF0290EEBF0290F5BF02900BC0029010
S315080041985C0600242FC002906E2300244BC00290B0
S315080041A868F802907E23002461C002908E230024BA
S315080041B876C0029090030024CC0300248DC0029098
S315080041C896C00290C8C002905814002430230024D0
S315080041D86F4800F035F96F4800F032F96E4800F07C
S315080041E82FF96E4800F02CF96D4800F029F96D484A
S315080041F800F026F9674800F023F96B4800F020F923
S315080042086A4800F01DF96A4800F01AF9694800F08A
S3150800421817F9694800F014F9684800F011F9684870
S3150800422800F00EF9674800F00BF95A4800F008F94B
S31508004238654800F005F9654800F002F9554889E728
S31508004248634B644A93F82B106348E1E6634B644A68
S3150800425819786448DCE65E4B6349DA8BBFE65C4B43
S3150800426862491A8CBBE6624874E7594B614A93F867
S315080042782C106148CCE6564B604A93F82D106048D6
S31508004288C6E6604F0026DFF8A8813146013617F8DA
S31508004298012B404600F0D4F8082EF6D165E600F062
S315080042A8D3F84FF47A720646DFF888A1DFF88881D2
S315080042B8B0FBF2F102FB1102534800F0C1F80022E4
S315080042C81746DAF80030A3EB070B0BF11F0BDBF1E7
S315080042D800030BF01F0B03F01F0358BFC3F1000BB5
S315080042E80C2303FB0B835B682BB32AB9474800F0FA
S315080042F8A7F8474800F0A4F80C234FF47A7203FB92
S315080043080BFB58F80BC008EB0B0EA6EB0C00DEF8F7
S3150800431808B0B0FBF2F3BCFBF2F102FB130002FB98
S3150800432811C2CDE902BBDEF8044000900194394871
S3150800433800F086F801220137202FC2D10AB936487B
S3150800434808E7364806E74FF0000B354E0627DFF82C
S31508004358DCA0D84616F8012B72B10BF1010B4146C1
S31508004368304800F06DF89BFBF7F307FB13B3052BF2
S3150800437802D1504600F064F808F10108B8F1200F98
S31508004388E8D1BBF1000F01D12748E3E62748E1E663
S3150800439800C1029095C6029014C1029023C10290EA
S315080043A832C1029054C1029074C1029082C102902F
S315080043B892C10290A2C10290B0C10290BFC10290F8
S315080043C8CEC10290DDC10290ECC1029002C20290F1
S315080043D8402300248006002418C2029014230024CF
S315080043E80C0300242EC2029043C2029054C20290C3
S315080043F86FC202901406002488C20290F0050024B1
S3150800440898C2029028230024B9C20290DFC20290FB
S315080044181AC3029055C302907DC3029089C30290BD
S3150800442800008038D1C30290E0C302907BFF029057
S31508004438A5C20290902100249421002400000000BF
S315080044485FF800F0F96B02905FF800F061DA019006
S3150800445830B585B000230446084603A915460393D4
S3150800446800F022F820B90D4800F022F805B030BD52
S31508004478039800F021F82860C3B22146020E01937A
S31508004488C0F307230093C0F30743054800F010F864
S31508004498044B012283F82A20E8E700BF01C40290EA
S315080044A815C40290402300245FF800F0BDCD0190A2
S315080044B85FF800F0F96B02905FF800F06B4E019018
S315080044C873B514461D46002306462A460846019330
S315080044D8214601AB01F004FB019B024633B12A468B
S315080044E82146084800F014F802B070BD069B31460C
S315080044F81860054800F00CF8044B012283F82A20B6
S31508004508F2E700BF29C402905DC402904023002444
S30D080045185FF800F0F96B029050
S31508004520F0B51E4685B000231546124C0746039380
S315080045300623084604FB06F2009303AB04FB05F1C9
S3150800454001F0FEFA039B33B1324629460A4800F0C9
S315080045501BF805B0F0BD90FBF4F20A9B39461860CB
S3150800456004FB1203054800F00FF8054B012283F8F7
S315080045702A20EEE740420F0029C4029068C4029040
S3150800458040230024000000005FF800F0F96B029059
S315080045902DE9F341002407469046184601AA1D4610
S315080045A0089E019401F07CFA019B93B10C3D124ED2
S315080045B0124800F02DF8033455F8241029B910488C
S315080045C000F026F802B0BDE8F081304600F020F889
S315080045D0F1E742B288F8000039460A4802EB42027F
S315080045E055F8222000F014F8002EEBD0064B0122D5
S315080045F083F82A20E6E700BFA0C4029079C4029097
S315080046007BFF0290A4C4029040230024000000000F
S30D080046105FF800F0F96B029057
S31508004618002373B5044616460B4801AA01930D46AE
S3150800462801F03AFA019B23B1084800F015F802B0E0
S3150800463870BD2A4630702146054800F00DF8054B2E
S31508004648012283F82A20F2E7A4060024AFC40290C0
S31508004658A4C40290402300245FF800F0F96B029086
S31508004668014800F005B800BFF1C402900000000038
S30D080046785FF800F0F96B0290EF
S31508004680F8B5074615461E460C4619B10846FBF707
S3150800469039FE20B90D48BDE8F84000F021B8B0420F
S315080046A001DB0B48F7E732460021284605F000F8FB
S315080046B02146284605F07FFE22463946054800F081
S315080046C00FF8054B012283F82A20F8BD1AC5029077
S315080046D02DC50290A4C402904023002400000000C7
S30D080046E05FF800F0F96B029087
S315080046E8F0B58BB0002305460C4603AA49689D48D1
S315080046F8CDE9033301F0D0F9039B1BB19A4800F0C2
S31508004708B7FA4CE0022D07DC1A2803D8974BC340A2
S31508004718DB0701D49648F2E7964B1B682BB9A0F13C
S315080047280803012B01D89448E9E701381A2836D82E
S31508004738DFE810F01B0028002C0030005600E400C3
S31508004748E700F000F7000101E400BE013C00B701EC
S31508004758F001F901080217021E02FC0025024202AE
S31508004768380051004C005102E400844AA168844884
S31508004778FFF76EFE834800F07BFA834800F078FA64
S315080047888248BCE7824AA1688248F1E7824AA1685A
S315080047988248EDE7824AA1688248FFF759FE002059
S315080047A80BB0F0BD804AA1688048F6E7734D4FF410
S315080047B816627F48AB69049304AB00934FF4E13360
S315080047C8A168FFF77DFE049BAB61D3E7214628461F
S315080047D804F002F9E3E721462846FDF701FBDEE780
S315080047E80023032D05930893ADF8243007D1A16853
S315080047F87048FBF779FD10B9FFF7E2FACFE75F4B88
S315080048081B69013301D06C4879E7052D01D06B483F
S3150800481875E7002205ABA068114601F061F905ABFA
S31508004828FF2200210546E06801F05AF905AB07465C
S3150800483863220021206901F053F9059B06460BB14E
S315080048485F485CE703463A4629465E4800F010FA90
S315080048585D4800F00DFA5D4800F00AFA5C4800F079
S3150800486807FA5C4800F004FA062108A800F0F8F9E7
S31508004878032841D1584908A8FBF736FD04460028FD
S3150800488838D1564800F0F4F906A92B0E5448CDE954
S315080048980644544C23702B0CE57063702B0AA772D8
S315080048A8A370E67200F0E0F9054607A94C4800F03F
S315080048B8DBF9284310F0FF0104D04B4800F0D8F97B
S315080048C84A481CE7069A2046130EE27123F00303AA
S315080048D843F002032371130C6371130AA371079B30
S315080048E81A0E1B0C22720C226372FFF749FAFFF79D
S315080048F867FAE5E73E4802E73E4800E7FFF7B0FEF5
S315080049084DE701233C4A3D4800933D4BA168FFF714
S315080049183BFE2FE710233B4AA1683B48FFF7ACFE4E
S315080049283DE71023394AA1683948F7E71023394A79
S31508004938A1683948F2E70023042D089301D03748BF
S31508004948DDE608AAA168364801F0A6F808AA0546C9
S31508004958E168344801F0A0F8089A0346002A65D0A9
S315080049683148CCE68C0400243EC5029080C0400439
S3150800497869C50290581400240CA602904023002406
S315080049887FBF029091C90290D3C9029003CA0290C8
S315080049984423002492BF029048230024A1BF029012
S315080049A84C230024B4BF0290542300248CC50290DB
S315080049B8A1C50290B0C50290F1C40290B5C502908F
S315080049C80BC602901EC6029050C602907CC602907C
S315080049D8ABC60290EEC6029007C702900BC70290B4
S315080049E85C6E00240CDA00301FC702904FC702908D
S315080049F87BC702908EC702906923002499C7029044
S31508004A085C0600246E2300244BC002907E230024F3
S31508004A1861C002908E23002476C00290B5C7029022
S31508004A28CC0300249003002401C80290681E0E28AF
S31508004A383FF6B5AEDFE800F0080B0E1114171A1D7D
S31508004A48202326292C2F3200694A1370A7E6684ABC
S31508004A585370A4E6664A9370A1E6654AD3709EE643
S31508004A68634A13719BE6624A537198E6604A9371E2
S31508004A7895E65F4AD37192E65D4A13728FE65C4AF9
S31508004A8853728CE65A4A937289E6594AD37286E66D
S31508004A98574A137383E6564A537380E6544A937300
S31508004AA87DE60123534A54480093544BA1682EE7E0
S31508004AB80023032D089303D0514800F0D9F859E686
S31508004AC808AAA1684F4800F0E7FF089B002BF3D116
S31508004AD84D4C90B1012817D00C2294F82B3049492F
S31508004AE850435343454A0958D3584848A26900F0E1
S31508004AF8BFF8012384F82A303CE64FF4E133A36172
S31508004B08012384F82B30E7E74FF4165384F82B0073
S31508004B18A361E1E700233E4A3E4800933E4BA1685D
S31508004B28FFF732FD3BE6384D01223C48EB8B0493F0
S31508004B3804AB00934FF6FF73A168FFF7C1FC049B0B
S31508004B48EB8317E6304D012235482B8C049304ABCA
S31508004B5800934FF47A73A168FFF7B2FC049B2B8481
S31508004B681DE601232F4A30480093304BA168D7E742
S31508004B7801232F4A2F4800932F4BA168D0E7002618
S31508004B88042D089604D008212C4800F071F806E68A
S31508004B9808AB07223146A06800F0A2FF08AB054615
S31508004BA8FF223146E06800F09BFF089B0BB12448BA
S31508004BB8A5E5244B5855F2E5022D02D0224800F007
S31508004BC857F8224A20230021013B516002F10C02C2
S31508004BD8FAD11F4893E5022D02D01B4800F048F881
S31508004BE8202200211B4804F05FFD1B4887E500BF0B
S31508004BF8302300246B23002418C202908006002460
S31508004C0839C80290E80200244023002463C80290A9
S31508004C18142300242EC202900C03002443C20290D7
S31508004C288CC802906C230024A7C802901406002496
S31508004C386D23002498C20290F0050024B2C8029099
S31508004C48ECC802902823002421C902909421002444
S31508004C5842C90290000080386AC902900000000024
S31508004C685FF800F06D6C02905FF800F089400290DA
S30D08004C785FF800F0F96B0290E9
S31508004C80002313B50C4601AA01461048019300F00B
S31508004C9007FF019BBBB934B90D4B53F8200000F050
S31508004CA01FF802B010BD192803D1204604F004F8F5
S31508004CB0F7E7182803D12046FDF742FAF1E7054839
S31508004CC000F012F8EDE70448FAE700BF8C04002468
S31508004CD0043A03902BCA02904FCA029000000000C3
S31508004CE05FF800F0696C02905FF800F0F96B0290CB
S31508004CF007B50A4A135CFF2B1CBF0133135449B985
S31508004D00135C0122CDE9000305481146054B40789E
S31508004D1001F076F803B05DF804FB00BF00008038A8
S30D08004D20302300248FCA02901B
S31508004D2870B50B4D0C230B4E2C685C433319C3E93D
S31508004D38010100F011F82B68305101335A4203F08B
S31508004D481F0302F01F0258BF53422B6070BD00BFF5
S31508004D5890210024942100245FF800F061DA01907C
S31508004D682DE9F04FA9B0DFF89CA0DFF8A490054616
S31508004D780DF11808DFF89CB00F4616460021872261
S31508004D88404604F091FC05F01F0439461D48C4F155
S31508004D982004B44228BF34462246361B05F00FFBCA
S31508004DA85B46012203212744CDE9005499F80600F9
S31508004DB801F022F8082322461249404601F0E0F895
S31508004DC8114B00220321CDF8008099F8060001F05E
S31508004DD813F8A021A3B20D48AAB22544CDE900A329
S31508004DE8022300F019F84FF0FF32012102A800F05B
S31508004DF817F80A2000F018F8002EC4DC29B0BDE818
S31508004E08F08F00BF2CDA00303EBD0290606F002498
S31508004E1830230024EDE202905FF800F0A112029018
S31508004E285FF800F0AF0501905FF800F04D050190B6
S31508004E3830B58DB00D4604462B22002101A804F092
S31508004E4833FC002D4FF00402074B18BF4FF0FF3311
S31508004E5820680DEB02010193FFF782FF23680433EC
S31108004E6823600DB030BD00BFEFBEADBA30
S31508004E787FB50022064B012168460592196000F0A5
S31508004E880BF8022105A8FFF7D3FF07B05DF804FB66
S31508004E981C230024000000005FF800F0AF0501900D
S31508004EA82DE9F0418CB01E4604468846129D1746E1
S31508004EB800212B2201A804F0F7FB2A4631460DF1FA
S31508004EC807008DF804808DF805708DF8065005F0F2
S31508004ED876FAEA1C01A92068FFF742FF236803331C
S30F08004EE82B4423600CB0BDE8F081EE
S31508004EF2F0B58DB004460F46164600212B2201A8AE
S31508004F021D4604F0D4FB0423072201A98DF80630B6
S31508004F122B682068CDF807308DF804708DF8056087
S31308004F22FFF721FF2368073323600DB0F0BDAB
S31508004F30F0B58DB004460F46164600212B2201A86F
S31508004F401D4604F0B5FB0223052201A98DF806309B
S31508004F502B882068ADF807308DF804708DF8056049
S31308004F60FFF702FF2368053323600DB0F0BD8E
S31508004F6EF0B58DB004460F46164600212B2201A831
S31508004F7E1D4604F096FB0123042220688DF80630A0
S31508004F8E2B780DEB02018DF804708DF807308DF82D
S31508004F9E0560FFF7E2FE2368043323600DB0F0BD0B
S31508004FB01FB5094B0121094A1960106038B14FF035
S31508004FC0FF32684600F00CF805B05DF804FB1A6875
S31508004FD0002AFCD1F8E700BF182300241C2300246C
S30D08004FE05FF800F0AF0501902F
S31508004FE82DE9F043A5B00C46054600210DF1080841
S31508004FF8174687221E464046DFF8789004F054FB89
S31508005008A021A3B2CDF800901648019302232A8856
S3150800501800F032F83046FFF7C7FFBEB10194012207
S315080050282B680321104E0093104BB07900F0E4FE6C
S315080050382B2322464946404600F0A2FFCDF80080B9
S315080050480B4B00220321B07900F0D6FE2246094907
S31508005058384605F0B4F92B6823442B6025B0BDE81B
S31508005068F08300BF606F00243023002401E3029018
S315080050783EBD02902CDA00305FF800F0BD130290AE
S315080050882DE9F04F0025A3B004462B22294609A886
S31508005098089504F009FB974B1C6024B12A460121A0
S315080050A804A800F049F9234609AA042108A8FFF725
S315080050B897FF914B099A9A427DD1904EDFF868A2DC
S315080050C83822002114A8042704F0EEFA089D0223C2
S315080050D8A021AAB28A48CDE9006700F031F920462E
S315080050E8FFF762FFBCB1874B01220321CDE90057C0
S315080050F89AF8060000F080FE3B463A46314614A860
S3150800510800F03EFF14AB0022032100937E4B9AF869
S31508005118060000F071FEB3780435F27803F1FF381B
S31508005128023B96F80090282B77788DF82420089566
S3150800513861D81FFA88F3A021AAB27148CDE900639D
S31508005148022300F0FDF82046FFF72EFFD4B1DFF85A
S31508005158D8B101226D4B03210095CDE901789BF85A
S31508005168060000F049FE0F234246644914A800F0D9
S3150800517807FF14AB002203210093634B9BF8060034
S3150800518800F03AFE4544424631460DF1250005F041
S3150800519816F90895B9F1000F34D17B1E112B38D8AA
S315080051A8DFE803F03B3F4347375369774F595F6456
S315080051B837379399854B0023089314B1544800F060
S315080051C8B7F8544C0C2200212046FEF7ADFD524B89
S315080051D862680898C3F823202289A3F8272022683A
S315080051E812BA1A61628952BA9A83002283F82A2067
S315080051F823B0BDE8F08FB8F1000FCBD0B9F1000F96
S31508005208DFD0FF27B9F1010F6BD109A9384603F09A
S3150800521841FBFF2F7FF454AFD3E73F4B099A1A6037
S315080052284EE73D4B099A5A604AE73B4B099A9A60FA
S3150800523846E7394B099ADA6042E7374B099A5A61C1
S315080052483EE7354B099A9A613AE79DF82420324B8E
S3150800525883F8292034E79DF824202F4B83F82B2040
S315080052682EE72D4BBDF82420DA8329E72A4BBDF80B
S3150800527824201A8424E709AD284A0DAF2B4608329C
S3150800528803CBBB4242F8080C42F8041C1D46F5D16C
S3150800529816E709AD224A0DAF2B46083203CBBB42A7
S315080052A842F8080C42F8041C1D46F5D108E709AD72
S315080052B81C4A0DAF2B46083203CBBB4242F8080CF2
S315080052C842F8041C1D46F5D1FAE69DF82420124B2F
S315080052D883F82C20F4E69DF824200F4B83F82D201C
S315080052E8EEE6B9F1020F94D109A93846FCF7C4FCD1
S315080052F88FE700BF1C230024EFBEADBA2CDA0030B6
S31508005308606F00242CE302903EBD029040E30290B1
S3150800531815E302901CDA0030402300246E2300248B
S315080053287E2300248E230024302300240000000056
S315080053385FF800F0F96B02905FF800F0AF0501908E
S30D080053485FF800F0BD130290A6
S3150800535070B50020FFF798FE054600283ED1294C77
S315080053606FF0FF03284A0126284984F8220004F131
S315080053702E0084F82960C4E90023254BC4E90233CA
S3150800538003F55B43C73363614FF4E133A3614FF41D
S31508005390FA63E3836423238440F201136385A385B8
S315080053A005F009F81B4904F13E0005F004F810223F
S315080053B0294604F14E0004F07BF903F045FAFCF7A0
S315080053C02BFC84F8226005F0010105200135FDF764
S315080053D07FFD642000F024F80B2DF4D10E4B022239
S315080053E01A7001225A709A70DA701A715A719A7183
S315080053F0DA711A725A729A72DA721A735A739A733D
S3150800540070BD00BF40230024E202A8C057E3029003
S315080054100102A8C060E302903023002400000000C7
S30D080054205FF800F06DDA019057
S31508005428F0B59BB0002306460D4606AA49689A4871
S31508005438069300F031FB069C03462CB1974800F00A
S315080054484FF900201BB0F0BD032E03F1FF330CBF44
S31508005458A8682046042B10D8DFE803F0039FA4A702
