S0100000566F7465723242322E737265635E
S31508000000000008248D8C0008B1800008B380000821
S31508000010B5800008B7800008B98000080000000015
S315080000200000000000000000000000008127019089
S31508000030BB80000800000000112801907528019077
S31508000040DD8C0008DD8C0008DD8C0008DD8C0008DE
S31508000050DD8C0008DD8C0008DD8C0008DD8C0008CE
S31508000060DD8C0008DD8C0008DD8C0008C1800008E6
S31508000070D9800008F180000809810008318100084C
S315080000804981000861810008DD8C0008DD8C0008C4
S31508000090DD8C0008DD8C0008DD8C0008DD8C00088E
S315080000A0DD8C0008DD8C0008DD8C0008DD8C00087E
S315080000B079810008DD8C0008DD8C0008A181000824
S315080000C0DD8C0008DD8C0008DD8C0008DD8C00085E
S315080000D0B9810008D1810008DD8C0008E981000893
S315080000E0DD8C0008DD8C000800000000DD8C0008AF
S315080000F0DD8C0008DD8C0008DD8C0008F98100081D
S31508000100DD8C0008DD8C0008DD8C000811820008F3
S3150800011029820008DD8C0008DD8C00084182000871
S31508000120698200088182000899820008B182000865
S31508000130C9820008E1820008F9820008DD8C0008FF
S3150800014000000000000000000000000000000000A1
S31508000150018300081983000831830008DD8C000834
S31508000160DD8C0008DD8C0008DD8C0008DD8C0008BD
S31508000170DD8C0008DD8C0008DD8C0008DD8C0008AD
S31508000180DD8C0008DD8C00084983000861830008BF
S31508000190DD8C0008DD8C0008DD8C0008DD8C00088D
S315080001A0DD8C0008DD8C0008DD8C0008DD8C00087D
S315080001B0DD8C0008DD8C0008DD8C0008DD8C00086D
S315080001C0DD8C0008DD8C0008DD8C0008DD8C00085D
S315080001D0DD8C0008DD8C0008DD8C0008DD8C00084D
S315080001E0DD8C0008DD8C0008DD8C0008DD8C00083D
S315080001F0DD8C0008DD8C0008DD8C0008DD8C00082D
S31508000200DD8C0008DD8C0008DD8C0008DD8C00081C
S31508000210DD8C0008DD8C0008DD8C0008DD8C00080C
S31508000220DD8C0008DD8C0008DD8C0008000000006D
S31508000230DD8C0008DD8C000800000000DD8C00085D
S31508000240DD8C0008DD8C0008DD8C0008DD8C0008DC
S31508000250DD8C0008DD8C0008DD8C0008DD8C0008CC
S31508000260DD8C0008DD8C0008DD8C0008DD8C0008BC
S31508000270DD8C0008DD8C0008DD8C0008000000001D
S31508000280DD8C0008DD8C0008DD8C0008000000000D
S30D0800029000000000DD8C0008E7
S31508000298F8B500BFF8BC08BC9E467047F8B500BF5D
S30D080002A8F8BC08BC9E4670472D
S315080002B010B5054C237833B9044B13B10448AFF392
S315080002C000800123237010BD000D002400000000EB
S315080002D09802000808B5034B1BB103490348AFF35E
S315080002E0008008BD00000000040D002498020008E4
S315080002F010F8012B11F8013B012A28BF9A42F7D0C2
S31508000300D01A7047034613F8012B002AFBD1181A96
S3150800031001387047000000000000000000000000DF
S3150800032001F0FF01102A2BDB10F0070F08D010F898
S31508000330013B013A8B422DD010F0070F42B3F6D19C
S31508000340F0B441EA012141EA014122F007047FF0B5
S3150800035000070023F0E80256083C85EA010586EA0C
S31508000360010685FA47F5A3FA87F586FA47F6A5FA48
S3150800037087F68EB9EED1F0BC01F0FF0102F0070254
S3150800038032B110F8013B013A83EA010313B1F8D1FF
S315080003900020704701387047002D06BF35460338E0
S315080003A0073815F0010F07D1013015F4807F02BF19
S315080003B0013015F4C03F0130F0BC0138704700BF6A
S315080003C081F0004102E000BF83F0004330B54FEAF8
S315080003D041044FEA430594EA050F08BF90EA020F65
S315080003E01FBF54EA000C55EA020C7FEA645C7FEAF8
S315080003F0655C00F0E2804FEA5454D4EB5555B8BF1B
S315080004006D420CDD2C4480EA020281EA030382EA8B
S31508000410000083EA010180EA020281EA0303362D1D
S3150800042088BF30BD11F0004F4FEA01314FF4801CF0
S315080004304CEA113102D0404261EB410113F0004F02
S315080004404FEA03334CEA133302D0524263EB4303B9
S3150800045094EA050F00F0A780A4F10104D5F1200E57
S315080004600DDB02FA0EFC22FA05F2801841F10001B2
S3150800047003FA0EF2801843FA05F359410EE0A5F186
S3150800048020050EF1200E012A03FA0EFC28BF4CF0B7
S31508000490020C43FA05F3C01851EBE37101F000456D
S315080004A007D54FF0000EDCF1000C7EEB00006EEB7A
S315080004B00101B1F5801F1BD3B1F5001F0CD3490804
S315080004C05FEA30004FEA3C0C04F101044FEA44525B
S315080004D012F5800F80F09A80BCF1004F08BF5FEAE2
S315080004E0500C50F1000041EB045141EA050130BDC2
S315080004F05FEA4C0C404141EB0101013C28BFB1F5D4
S31508000500801FE9D291F0000F04BF01460020B1FA1E
S3150800051081F308BF2033A3F10B03B3F120020CDAF1
S315080005200C3208DD02F1140CC2F10C0201FA0CF0CF
S3150800053021FA02F10CE002F11402D8BFC2F1200C34
S3150800054001FA02F120FA0CFCDCBF41EA0C019040EA
S31508000550E41AA2BF01EB0451294330BD6FEA040433
S315080005601F3C1CDA0C340EDC04F11404C4F120021E
S3150800057020FA04F001FA02F340EA030021FA04F330
S3150800058045EA030130BDC4F10C04C4F1200220FA87
S3150800059002F001FA04F340EA0300294630BD21FAC5
S315080005A004F0294630BD94F0000F83F4801306BF8B
S315080005B081F480110134013D4EE77FEA645C18BF7F
S315080005C07FEA655C29D094EA050F08BF90EA020F16
S315080005D005D054EA000C04BF1946104630BD91EA0E
S315080005E0030F1EBF0021002030BD5FEA545C05D111
S315080005F04000494128BF41F0004130BD14F5800450
S315080006003CBF01F5801130BD01F0004545F0FE41C3
S3150800061041F470014FF0000030BD7FEA645C1ABFF8
S31508000620194610467FEA655C1CBF0B46024650EA2F
S31508000630013406BF52EA033591EA030F41F400215B
S3150800064030BD00BF90F0000F04BF0021704730B5E1
S315080006504FF4806404F132044FF000054FF00001B6
S3150800066050E700BF90F0000F04BF0021704730B577
S315080006704FF4806404F1320410F0004548BF40424C
S315080006804FF000013EE700BF42004FEAE2014FEAA1
S3150800069031014FEA02701FBF12F07F4393F07F4F7C
S315080006A081F06051704732F07F4208BF704793F07F
S315080006B07F4F04BF41F40021704730B54FF4607492
S315080006C001F0004521F000411CE700BF50EA010295
S315080006D008BF704730B54FF000050AE050EA01023E
S315080006E008BF704730B511F0004502D5404261EBAE
S315080006F041014FF4806404F132045FEA915C3FF4EF
S31508000700D8AE4FF003025FEADC0C18BF03325FEA8B
S31508000710DC0C18BF033202EBDC02C2F1200300FA3C
S3150800072003FC20FA02F001FA03FE40EA0E0021FA61
S3150800073002F11444BDE600BF53B94AB9002908BFFF
S3150800074000281CBF4FF0FF314FF0FF3000F0A8B96A
S31508000750ADF1080C6DE904CE00F026F8DDF804E0EA
S31508000760DDE9022304B070479FED0B6B41EC170BD4
S315080007709FED0B5B27EE066BBCEEC66BB8EE464BE1
S31508000780A4EE457BFCEEC77B16EE101A17EE900A10
S31508000790704700BFAFF30080000000000000F03D86
S315080007A0000000000000F0412DE9F047089D8E4644
S315080007B004468846002B4AD18A42174662D9B2FABD
S315080007C082F64EB1C6F1200301FA06F820FA03F3C1
S315080007D0B74043EA0808B4404FEA174E1FFA87FCA9
S315080007E0B8FBFEF1230C0EFB118843EA084301FB14
S315080007F00CF29A4209D9FB1801F1FF3080F0EA8021
S315080008009A4240F2E78002393B449A1AA3B2B2FBF5
S31508000810FEF00EFB102243EA024300FB0CFC9C454B
S3150800082009D9FB1800F1FF3280F0D6809C4540F2CA
S31508000830D3803B44023840EA0140A3EB0C03002175
S315080008401DB1F3400022C5E90032BDE8F0878B42AE
S3150800085005D90DB1C5E9000100210846F5E7B3FA47
S3150800086083F1002946D1734502D3824200F20581FD
S31508000870841A6EEB030201209046002DE5D0C5E9E7
S315080008800048E2E7002A00F09080B2FA82F6002ECD
S3150800089040F0A4808A1A030C4FEA174E80B2BCB205
S315080008A00121B2FBFEFC0EFB1C2243EA024304FBB9
S315080008B00CF29A4207D9FB180CF1FF3802D29A4279
S315080008C000F2E080C4469B1AB3FBFEF20EFB12331D
S315080008D040EA034302FB04F49C4207D9FB1802F1E1
S315080008E0FF3002D29C4200F2CA8002461B1B42EA33
S315080008F00C40A5E7C1F120068B4022FA06F71F43F4
S315080009000EFA01F420FA06F32EFA06FE4FEA174904
S31508000910234300FA01F81FFA87FCBEFBF9F01C0C0A
S3150800092009FB10EE44EA0E4400FB0CFEA64502FA4B
S3150800093001F209D93C1900F1FF3A80F09C80A645DE
S3150800094040F2998002383C44A4EB0E041FFA83FE59
S31508000950B4FBF9F309FB13444EEA044403FB0CFC0D
S31508000960A44508D93C1903F1FF3E80F08280A445CE
S315080009707FD9023B3C4443EA0040A4EB0C04A0FBAD
S3150800098002EC64457346E14662D35FD05DB1B8EBCD
S31508000990030264EB090404FA06F622FA01F31E437D
S315080009A0CC40C5E9006400214FE7B1FBF2FC010C1D
S315080009B041EA0E4180B240EA01423B4638463C468F
S315080009C0B846BE462026B1FBF7F1A2EB080241EA7B
S315080009D00C4166E7014618E710462CE7C6F12002E7
S315080009E02EFA02F3B740B14020FA02F24FEA174E48
S315080009F00A43B3FBFEF8BCB20EFB1833110C41EAEE
S31508000A00034108FB04F9B04089454FEA104380B218
S31508000A103ED9791808F1FF3C01D289451FD8A1EBC8
S31508000A200901B1FBFEF909FB04F80EFB191192B294
S31508000A3042EA0142424529D2BA1809F1FF31C4D225
S31508000A404245C2D2A9F102013A44BEE7F0459DD219
S31508000A50BEEB02036CEB070C0138E14696E7A7EB01
S31508000A6009094944A8F1020CB1FBFEF909FB04F88F
S31508000A70DBE773467FE7504666E70846FDE63B44F4
S31508000A80023A33E7ACF1020C3B441CE749469CE7C3
S31508000A90A1EB0901C446B1FBFEF909FB04F8C4E75A
S30908000AA0704700BFCE
S30708000AA470478B
S31508000AA810B50022064C4FF400631146204600F0A4
S31508000AB80BF820460021BDE8104000F009B800BF31
S31508000AC87C6F0024000000005FF800F077E60190CC
S30D08000AD85FF800F021E6019029
S31508000AE010B5074C10214FF400630022204600F091
S31508000AF00FF820461021BDE8104000F005B800BFE9
S31508000B007C6F0024000000005FF800F021E60190E9
S30D08000B105FF800F077E601909A
S31508000B1810B50021474800F0A3F80121454800F020
S31508000B289FF8454C0021454800F09AF801214348AA
S31508000B3800F096F86379012B26D00123A06822686D
S31508000B48637102233B4923713D4BC3633D4B0364E1
S31508000B583D4BC364136843F480531360136843F426
S31508000B68005342F8203B4FF4A07300F081F80023A5
S31508000B786371002850D123681A6842F001021A6086
S31508000B881A6842F480321A60304C4FF4A072304921
S31508000B98304800F069F805222F49204600F064F825
S31508000BA8E36C2E4A1B6893422DD0183293422AD0FA
S31508000BB81832934227D01832934224D018329342D7
S31508000BC821D0183293421ED0183293421BD01832BD
S31508000BD8934218D002F55672934214D018329342AB
S31508000BE811D0183293420ED0183293420BD01832CD
S31508000BF8934208D01832934205D01832934202D04D
S31508000C08183293420DD11A6822F010021A601A682F
S31508000C1822F008021A6010BD236943F00403236111
S31508000C28B2E71A6822F002021A601A6822F0040269
S31508000C38F0E700BF0CD000307C6F00248CD200305F
S31508000C48A1E60190B1E60190BDE60190087100247D
S31508000C580CD500306C71002400D00030100002401A
S31508000C685FF800F04D0D00005FF800F095DC019084
S30D08000C785FF800F081EF01901E
S31508000C80074B5A88188810449A881044DA881B89B2
S31508000C9010441844502380B2B0FBF3F0C0B270473A
S30908000CA000D0003042
S31508000CA8044B834205D1044B04481B68996B00F032
S31508000CB807B870476C7100243C6B00244CD600308A
S30D08000CC85FF800F03D0A000088
S31508000CD0044B834205D1044B04481B68996B00F00A
S31508000CE007B870476C7100243C6B00240CD50030A3
S30D08000CF05FF800F03D0A000060
S31508000CF8044B834205D1044B04481B68996B00F0E2
S31508000D0807B870477C6F00243C6B00248CD20030EF
S30D08000D185FF800F095110000D8
S31508000D20044B834205D1044B04481B68996B00F0B9
S31508000D3007B870477C6F00243C6B00240CD0003049
S30D08000D405FF800F095110000B0
S31508000D48F0B585B0002309220A2701AC0193636030
S31508000D58C4F80730002918BF1346B1FBF7F607FB96
S31508000D68161531463035A554013AF3D1E11808F07D
S30B08000D78E3FB05B0F0BD27
S31508000D8030B58BB028221D4D002168461C4C08F052
S31508000D90CFFB1C49684609F04EFA29696846FFF7F1
S31508000DA0D3FF1949684608F0CBFB6969174803F071
S31508000DB023F86946164800F03FF82146686900F0AE
S31508000DC02FF8012223466846114600F02DF82046E2
S31508000DD000F036F80F4B1860204600F035F86389A6
S31508000DE04BB9204600F024F8638923B90A4A1360F0
S31508000DF001220A4B1A6000200BB030BDA422002441
S31508000E00240D0024009702900D97029012970290E5
S31508000E102C970290200D00241C0D0024C0130024DA
S31508000E205FF800F06D8A02905FF800F0C58A0290BC
S31508000E305FF800F07D8C02905FF800F0596602902A
S31508000E405FF800F05D8B02905FF800F0718D0290FC
S31508000E5070B5134D134E2B683268934204DA124A62
S31508000E60D05C01332B6009E0B2F5007F07DA002475
S31508000E700E4B0F481C6000F02BF8204670BD0C4C3A
S31508000E80204600F01DF83060204600F01DF8638902
S31508000E9013B9204600F010F8064B18790123E1E74C
S31508000EA01C0D0024200D002408230024C013002450
S31508000EB0240D0024042300245FF800F07D8C0290A2
S31508000EC05FF800F05D8B02905FF800F0718D02907C
S30D08000ED05FF800F0558D029051
S31508000ED81FB5D3B204460293C2F307230193C2F39C
S31508000EE807430093130E0A46044908F04FFA2046AA
S31508000EF804B0BDE81040FFF701BA00BF409702905A
S31508000F0810B5044613460A46034908F03FFA204630
S31108000F18BDE81040FFF7F2B958970290A8
S31508000F2438B50C2504466A439B580A46034908F013
S31508000F342FFA2046BDE83840FFF7E2B963970290D6
S31508000F4410B5044613460A46034908F021FA204612
S31108000F54BDE81040FFF7D4B9639702907F
S31508000F602DE9F04F9FB01822002101A808F0E0FAF9
S31508000F702822002107A808F0DBFA3222002111A84E
S31508000F8008F0D6FA9A4BD3F80090B9F1000F06D1BB
S31508000F90984800F06DF948461FB0BDE8F08F964EA8
S31508000FA007A89649002509F046F9316907A8A84611
S31508000FB0FFF7CAFE924907A82F4608F0C1FA7169D9
S31508000FC09048A94602F018FF07A98F4800F050F983
S31508000FD001A9706900F058F901AB0122022107A89E
S31508000FE0DFF884A200F048F901A800F051F901A839
S31508000FF000F056F9BDF80E3013B9B8F1000F1AD043
S31508001000394601A800F03CF901A800F041F901A809
S3150800101000F046F9B7F5007F09D1002101A800F0D4
S315080010202FF901A800F034F901A800F039F901A850
S3150800103000F032F9AFE7122D00F2BD80DFE805F0C7
S315080010400A212931394149535B636B757D858F992F
S31508001050A0AAB100326811A86C49A846FFF73CFF60
S315080010600125044607EB040B381DA144BBF5007F98
S31508001070504480F2A480224611A95F4609F0E3F89D
S31508001080B8E7726811A862490225FFF725FF0446EA
S31508001090E8E7B26811A85F490325FFF71DFF044674
S315080010A0E0E7F26811A85C490425FFF715FF044636
S315080010B0D8E7726911A859490525FFF70DFF0446B7
S315080010C0D0E7B26911A856490625FFF71DFF044661
S315080010D0C8E7544B11A896F82B2007255249FFF765
S315080010E021FF0446BEE7514A11A851490825FFF7D2
S315080010F029FF0446B6E74F4A11A84F490925FFF7C5
S3150800110021FF0446AEE74D4A11A84D490A25FFF7C7
S3150800111019FF0446A6E74B4B11A896F829200B257C
S315080011204949FFF7FFFE04469CE7F28B11A8474999
S315080011300C25FFF7E9FE044694E7328C11A84449CA
S315080011400D25FFF7E1FE04468CE7424B11A896F8F9
S315080011502C200E254049FFF7E5FE044682E73F4B63
S3150800116011A896F82D200F253D49FFF7DBFE04460A
S3150800117078E7012111A807F003FD1025044671E759
S31508001180002111A807F0FCFC041E04BF4FF000085C
S31508001190112567E7012111A800F07AFF12250446F8
S315080011A060E7002111A800F073FF041E04BF4FF08A
S315080011B00008132556E700244FF0010852E7C7F543
S315080011C0007711A93A46A4EB070B09F03CF84FF44F
S315080011D0007101A800F054F801A800F059F801A818
S315080011E000F05EF811AB5A461E48D91945E700BF0C
S315080011F0C81300246E970290A42200240097029038
S315080012000D97029012970290A2970290BA970290B1
S31508001210C5970290D0970290DB970290E7970290C5
S31508001220F097029000060024F8970290D222002434
S3150800123000980290E222002409980290F2220024E3
S3150800124011980290DC0500241898029021980290C3
S31508001250299802909405002432980290700500247B
S315080012603998029008230024042300240000000073
S315080012705FF800F0596602905FF800F0C58A0290A0
S315080012805FF800F0A18C02905FF800F06D8A02907A
S315080012905FF800F05D8B02905FF800F0558D0290C4
S30D080012A05FF800F0718D029061
S315080012A8084BF02283F8232000229A600649074B48
S315080012B8D9634FF0E023064959619A6107221A61F2
S315080012C8704700BF00ED00E0290600000000000096
S309080012D8FFC3090039
S315080012DC10B40D4B1B24DC604C1E1C610B4C5C6162
S315080012EC9861BFF34F8F0AE0074B9B6813F0060F04
S315080012FCFAD0054B93F8203002F8013B0139002946
S3150800130CF2D15DF8044B70470050005203250005D6
S3150800131C10B5002407E022464FF480712046FFF7EB
S3130800132CD7FF04F58074B4F5803FF4D310BDE6
S3150800133C07E0064BDB6913F0400FFAD0034B9A62B1
S3150800134C01300278002AF4D1704700BF0010014022
S3150800135C00B583B000230193030903F130028DF81D
S3150800136C0420392A02D957338DF8043000F00F00BF
S3150800137C00F130038DF80530392B02D957308DF82A
S3150800138C050020238DF8063001A8FFF7D1FF03B01E
S3090800139C5DF804FBEB
S315080013A010B483B00468019401FA03FC019921EA98
S315080013B00C0101919A40019B1A430192019B03601B
S30D080013C003B05DF8044B704709
S315080013C808B50823012211460848FFF7E5FF084B28
S315080013D8CA225A6253225A621C2301221146054818
S315080013E8FFF7DAFFBFF34F8F08BD00BF0048025862
S30D080013F800400058E0440258C9
S3150800140008B51223022203211148FFF7C9FF042356
S3150800141007220F210F48FFF7C3FF03231A460721A8
S315080014200D48FFF7BDFF0423012211460B48FFF7BD
S31508001430B7FF0423002201210948FFF7B1FF094B32
S315080014400022DA624FF40B72DA6009221A6008BDCC
S31508001450000002582400025854440258F044025826
S30D080014609844025800100140EF
S3150800146808B514232A223F211848FFF795FF0823B1
S3150800147840F2666240F6FF711548FFF78DFF1423A0
S315080014883F2211461348FFF787FF1C230022032132
S315080014981148FFF781FF0C23042207210F48FFF79D
S315080014A87BFF0F23012211460D48FFF775FF0D4BE9
S315080014B80D4A9A6001225A604FF480521A600B4A04
S315080014C8DA6040F6F8729A6108BD00BF000802584B
S315080014D824080258080802584C440258504402582E
S315080014E8E8440258003C00400700072000004084F2
S315080014F820B14FF48032024B9A6170470122FAE70D
S30908001508000C02586B
S3150800150C82B00021019140F6633303FB00F0084BCF
S3150800151C83FB0023C017C0EBA312019102E0019BC9
S3150800152C01330193019B9342F9DB02B0704700BF6C
S3090800153CD34D62100B
S3150800154010B5054C00231A4601212046FFF728FF4F
S3110800155040F6F873A36110BD003C004093
S3150800155CF8B505460C4616460120FFF7C7FF174F88
S3150800156C7C601123002203211548FFF713FF002383
S3150800157C012211463846FFF70DFF092301221146B1
S3150800158C3846FFF707FF0AE00C4B5B6913F0020FAE
S3150800159CFAD015F8012B094B83F82020013C002CB6
S315080015ACF2D1064B5B6913F0080FFAD016B1FFF7A8
S315080015BCC1FFF8BD0020FFF799FFF8E7003C004093
S309080015CC0C3C004085
S315080015D0F8B505460C461646144F796011230222C3
S315080015E003211348FFF7DCFE002301221146384683
S315080015F0FFF7D6FE0923012211463846FFF7D0FE2B
S315080016000AE00A4B5B6913F0010FFAD0074B93F80F
S31508001610303005F8013B013C002CF2D116B1FFF73A
S315080016208FFFF8BD0020FFF767FFF8E7003C004092
S309080016300C3C004020
S3150800163410B582B000240194ADF8004066238DF8F5
S3150800164404302246012101A8FFF786FF99238DF865
S3150800165404302246012101A8FFF77EFF1920FFF76F
S3150800166453FF90238DF80430012204210DEB010069
S31508001674FFF772FF224602216846FFF7A7FF1648BE
S31508001684FFF75AFE9DF80000FFF766FE9DF8010075
S31508001694FFF762FE9DF80030C22B0AD0C22B03D195
S315080016A49DF80130182B0FD00C48FFF745FE02B001
S315080016B410BD9DF80120152AF0D10948FFF73CFE14
S315080016C4084B01221A60F2E70748FFF735FE054B77
S315080016D402221A60EBE700BF40BB000874BB00088F
S311080016E454BB0008400D002464BB00083D
S315080016F070B40E46039D10491B24CC605C1E0C6119
S3150800170040EA020C0D484CEA0000486112F4406FAA
S3150800171000D08E61BFF34F8F0AE0074A926812F035
S31508001720060FFAD0044A92F8202005F8012B013B4F
S31508001730002BF2D170BC7047005000520001000522
S3150800174008B500231A461F211648FFF729FE00236D
S315080017501F2211461448FFF723FE142301220321F2
S315080017601248FFF71DFE0023012203211048FFF748
S3150800177017FE1223022203210E48FFF711FE042347
S3150800178000220F210C48FFF70BFE122303221146F5
S315080017900A48FFF705FE1D23002207210848FFF720
S315080017A0FFFD08BD88440258E0440258001002585C
S315080017B0000C025800080258240802580808025863
S309080017C01044025869
S315080017C438B5344C0E23012211462046FFF7E6FDB0
S315080017D400234FF020124FF030112F48FFF7DEFD9B
S315080017E4082309220F212D48FFF7D8FD08230922CB
S315080017F40F212B48FFF7D2FD00234FF03012114674
S315080018042848FFF7CBFD16232A223F212648FFF74F
S31508001814C5FD0C2340F6991240F6FF712348FFF7DD
S31508001824BDFD16233F2211462148FFF7B7FD0423C1
S31508001834022203211F48FFF7B1FD082309220F21BD
S315080018441D48FFF7ABFD0423032211461B48FFF787
S31508001854A5FD1B4D1C23002203212846FFF79EFDE8
S315080018640423032211462846FFF798FD0E23012276
S3150800187411461448FFF792FD0E2300220121204643
S31508001884FFF78CFD104B4FF4A8125A600F4A1A60E2
S3150800189438BD00BF7C44025800040258200402588C
S315080018A42404025808040258000C0258240C02584E
S315080018B4080C025800100258201002580810025842
S315080018C44C440258D4440258005000520100000403
S315080018D410B50C4B02221A600A4B1B6813F0020F50
S315080018E4FAD1084B9B6813F0200FFAD1054C002255
S315080018F42260042303210448FFF750FD034B2360A9
S3150800190410BD00BF005000524C44025801000001AB
S3150800191482B00023019308E0019B01330193019AE5
S3150800192440F603239A42F7DD0138002802DD002336
S30D080019340193F4E702B07047C5
S3150800193C10B50E4B1B24DC60104340F480705861C4
S3150800194C12F4406F00D09961BFF34F8F0024074BF8
S3150800195C9B6813F0200F07D00120FFF7D1FD013447
S3150800196C42F210739C42F2DD10BD00BF00500052CB
S3150800197C30B585B005460024ADF80C402246214604
S3150800198C6620FFF7D5FF224621469920FFF7D0FFA0
S3150800199C1920FFF7B5FD03AB009302234FF4105241
S315080019AC21469020FFF79EFE0DB905B030BD1548AF
S315080019BCFFF7BEFC9DF80C00FFF7CAFC9DF80D005E
S315080019CCFFF7C6FC9DF80C30C22B09D0C22B03D1ED
S315080019DC9DF80D30182B0ED00B48FFF7A9FCE4E741
S315080019EC9DF80D20152AF1D10848FFF7A1FC084BE4
S315080019FC01221A60D9E70748FFF79AFC044B022222
S31508001A0C1A60D2E780BB000874BB000854BB0008F8
S30D08001A1C3C0D002464BB000820
S31508001A2808B5FFF7CDFC174B1A6DA3F12963A3F583
S31508001A385923A3F647439A4200D008BD114B002202
S31508001A481A65FFF779FEFFF7D7FCFFF709FDFFF7D9
S31508001A58B5FE0D48FFF76EFCFFF7E8FD0120FFF716
S31508001A6889FF0A4B1B6813B1094B1B681BB9094840
S31508001A78FFF760FCFEE7FFF74DFCFFF711FC00F0E7
S31508001A880BF8FEE70040005894BB0008400D0024F8
S31508001A983C0D0024B0BB00085FF800F0BD0200004A
S31508001AA810B5144B1B24DC6040F00120586101393D
S31508001AB81961BFF34F8F08E00E4B9B6813F0040FAC
S31508001AC8FAD012F8011B0B4B19620A4B9B6813F0E4
S31508001AD8020FF1D00024074B9B6813F0200F07D09C
S31508001AE80120FFF70FFD013442F210739C42F2DD24
S30D08001AF810BD00BF00500052AA
S31508001B0008B5054B1B22DA60044A5A61BFF34F8FAA
S31508001B100220FFF7FFFE08BD00500052EB2D180FFC
S31508001B2038B5104C104B114D04F10F001049C4E99B
S31508001B300035104BA3600023A381A37308F07BFB39
S31508001B400D4904F1190008F076FB0C4904F1290047
S31508001B5008F071FB0A4904F1390008F06CFB094BDF
S31508001B601D6038BDD0130024D002A8C000E1F505D9
S31508001B70E29D0290E8038306EC9D0290F59D029093
S30D08001B80049E0290FC070024F4
S31508001B8801380A280AD8DFE800F0060E161E221AB7
S31508001B9826313B4512000A68234B1A60224B5A68BD
S31508001BA8224B1A6070470A781F4B1A73F6E70A8899
S31508001BB81D4B5A81F2E70A881B4B1A81EEE70A6819
S31508001BC8194B5A60EAE70A78174B9A73E6E70A78D0
S31508001BD8154B5A73E2E70A68134BC3F80F204A688D
S31508001BE8C3F813200A89A3F81720D7E7104B01F181
S31508001BF8100251F8040B914243F8040BF9D1CDE7CA
S31508001C080C4B01F1100251F8040B914243F8040BEE
S31508001C18F9D1C3E7084B01F1280251F8040B9142A0
S31508001C2843F8040BF9D1B9E7D0130024FC070024BC
S31108001C38E9130024F91300240914002401
S31508001C44F7B5284D022204460A262B46114603F008
S31508001C5414F9AB1C204604220221102703F00DF9BF
S31508001C646B1C20460522022103F007F92B1F204688
S31508001C740322022103F0E2F8AB1E20460B220221BE
S31508001C8403F0DCF8A5F1080320460622022103F036
S31508001C94B6F8A5F10C0320460122022103F0AFF899
S31508001CA4EB1C204607220221009603F083F805F16F
S31508001CB40D03204608220221009703F07BF805F15C
S31508001CC41D03204609220221009703F073F82823EE
S31508001CD4324602210093204605F12D0303F06AF8E3
S30D08001CE403B0F0BDDC13002477
S31508001CF07FB501284FF0000406460D46CDE902449B
S31508001D0000F388800123029395E0042EFAD192E02D
S31508001D10524B1B683BB9A4F10803022B03D8504861
S31508001D2000F0DAF80FE00C2C0DD8DFE804F0071104
S31508001D302214303E4750575E63686D00494AE96889
S31508001D40494802F011FB7268484B1A6004B070BD2E
S31508001D5002F012FCF7E7338964224548039303AB84
S31508001D60009342F21073E96802F036FB039B338155
S31508001D70E9E7738901223F48039303AB00934FF6C3
S31508001D80FF73E96802F028FB039B7381DBE773683E
S31508001D903C223948039303AB00934FF44873E96830
S31508001DA002F046FB039B7360CDE70123334A3448B0
S31508001DB00093344BE96802F073FBC4E70123324A07
S31508001DC032480093324BE96802F06AFB3EE0012391
S31508001DD0304A31480093314BE968ECE71023304A22
S31508001DE0E968304802F0D4FBADE70A232E4AE968D1
S31508001DF02E48F7E710232E4AE9682E48F2E72823EB
S31508001E002D4AE9682D48EDE72D4800F065F800F001
S31508001E10F3FF98E702AA89682A4803F0C1FD01285A
S31508001E20044602D00C2C7FF470AF032E7FF46AAF01
S31508001E30012C18BF0C24029B0A4E002B3FF468AFF6
S31508001E40214800F049F8062C7FF47DAF00231F4A8D
S31508001E501F4813601F4A136062E700BFC8130024B7
S31508001E606C9E0290D0130024959E0290FC070024D5
S31508001E70B19E0290D39E0290F59E0290DE13002436
S31508001E80119F029090000024DD1300241E9F0290EB
S31508001E9060000024DC130024329F02903C000024DA
S31508001EA0F9130024539F0290DF130024629F0290C7
S31508001EB0E91300247A9F0290091400248A9F02904D
S31508001EC09C9F0290B4000024169E02903C25002494
S31508001ED0B69F0290382500245FF800F059660290F4
S31508001EE073B53E4C0C263E4D3E48D4E9001200F030
S31508001EF0A3F829683C4801F07FFF2B7B3B4A7343D4
S31508001F00D018D0E901018DE803003948D358D4E93F
S31508001F10121200F091F83748D4E9031200F08CF851
S31508001F20354B186800F08CF801462F4801F064FF1D
S31508001F306B893248D4E9211200F07EF82B893048A3
S31508001F40D4E9061200F078F86A682E492E48B2FBE2
S31508001F50F1F301FB13220092D4E9091200F06CF8A0
S31508001F60AB7B2A4A7343D018D0E901018DE80300F8
S31508001F702748D358D4E90C1200F05EF86B7B254A43
S31508001F807343D018D0E901018DE803002248D358DD
S31508001F90D4E90F1200F050F8204B1B68A3B105F1E5
S31508001FA029031F48D4E91B1200F046F805F1190366
S31508001FB01C48D4E9181200F03FF805F10F031A4837
S31508001FC0D4E9151200F038F8184B1948D4E91E124E
S31508001FD002B0BDE8704000F02FB800BFB40000247E
S31508001FE0D0130024CD9F02906DF602903C00002489
S31508001FF0FC9F02902FA00290B81A00245EA00290BF
S3150800200091A0029040420F00C4A0029090000024C4
S31508002010FDA002906000002430A10290C81300249D
S3150800202063A1029096A10290C9A102900914002406
S31508002030FCA10290000000005FF800F059660290CB
S30D080020405FF800F0CB4801909F
S31508002048002307B5014601AA0848019303F0A4FC32
S31508002058019B3BB9064B53F8200000F011F803B072
S315080020685DF804FB034800F007F8F8E7B400002415
S31508002078843003902FA202905FF800F05966029008
S30D080020885FF800F0C96602903A
S3150800209010B52C4C69B1002323602B4A2B4B127BBD
S315080020A02B49FEF73FFF01462368084601332360A4
S315080020B010BD23680A2BF7D801A252F823F000BFF7
S315080020C09B200008ED200008F720000801210008E1
S315080020D00D210008152100081D21000829210008E6
S315080020E033210008392100083F210008164A194BF8
S315080020F0927B1949D5E7144A184B527B1849D0E701
S31508002100114B18491A89FEF7FFFECCE70E4B164904
S315080021105A89F8E70C4B15495A68F4E70A4B1449EB
S315080021201A68FEF7D9FEBEE7124A1349FEF70AFFF8
S31508002130B9E7124A1249F9E7124A1349F6E7134A68
S315080021401349F3E7CC130024D01300243C000024E1
S3150800215079A202909000002485A2029060000024D3
S3150800216096A20290A8A20290B8A20290C2A20290D9
S31508002170CDA20290DF130024DBA20290E91300240B
S31508002180EAA20290F9130024F8A202900914002486
S3090800219005A3029003
S315080021982DE9F04F002391B09E4C4620099300F094
S315080021A83FFA2368FBB101229B4EDFF8DC829B4B82
S315080021B81146F07903F070FD98F80C30BBB1984DCC
S315080021C808F13904974F2946204600F001FA98B1D4
S315080021D801223B46F079114603F05EFD4FF47A700A
S315080021E800F01EFAEFE70A2000F01AFAD9E7D8F83D
S315080021F800308B4A1BBA1360894C20208A4B226808
S31508002208DFF888A21A600022114600F011FA874BF7
S3150800221801220221CAF800000090F07903F03CFD7B
S31508002228B8F80A202146DAF8000000F0D9F9DAF8F1
S315080022380030012202210093F0797D4B03F02CFD32
S315080022487C4B01221A6009A9DAF8000000F0ECF9BB
S3150800225878B9099B1A68B2F80890A9F118039BB2CD
S31508002268C92B05930AD909980028ECD000F0D4F9A7
S31508002278E9E70021102002F0BFFCF4E76E4B1B6863
S31508002288002BF0D157680AAC6C4A136007F118029C
S315080022983B460792186822465968083303C214460B
S315080022A8079A9342F6D10A9800F0AEF90A900446BE
S315080022B80B9800F0A9F90B900546BDF83E0000F00A
S315080022C8A7F9BB685E4A5F491360FB6806905360C6
S315080022D83B8AADF83E00A1F11A00138100F030FAE6
S315080022E800F092F9D7F81230DFF8A4B1D3B9DBF8C1
S315080022F80030012B05D0544B0122F079114603F022
S31508002308CBFC0123CBF80030069ADFF888B1052AFA
S3150800231800F24481DFE812F03500C400FB00010131
S31508002328420134019842DBF8002026D198F80D308E
S31508002338DBB9464B1B789806E6D5444B1B7813F051
S3150800234810030CBF022103218A42CBF80010DBD008
S315080023583F49404AF079002B18BF0A463E4B00927F
S315080023680122114603F098FCCEE7013B012BCBD896
S31508002378364B1B789B06C7D4DFE7012AC1D0374BF3
S31508002388BAE7DBF80030B9F1190F03F10103CBF806
S31508002398003040F00381324B0022DFF8FC901A60C7
S315080023A8304BDFF8F8B01978C9F800400229CBF89D
S315080023B800500AD12C492D4800F01EF92C49002254
S315080023C8284B0C602B491A700D60DBF800202A4B45
S315080023D82A4913441D4C8B4289BF294BCBF8003038
S315080023E89B18CBF8003082BFD9F800300133C9F8FA
S315080023F800303B7E237000F0F7F82378012203218A
S31508002408F0790193D9F8003000931E4B03F044FC89
S3150800241829E700BF201B002494220024D6A802908E
S31508002428B41A0024EAA80290B81A002417A9029038
S3150800243839A90290E8160024DC160024E0160024C0
S31508002448D0160024F91300245FA90290C8160024A0
S31508002458CAA80290D0A8029082A902909FA90290C1
S31508002468BC160024FC160024F4160024F8160024CA
S31508002478F0160024EC160024002D3101FFC99A3BFA
S31508002488006396C5CBA90290D0130024E41600244D
S31508002498CC16002400170024C4160024C0160024ED
S315080024A800F062FEDBF80430B9F1B90F03F1010355
S315080024B8CBF8043072D13C4907F1190000F0A0F8AE
S315080024C83A4B2246384819782B4681F02001C1F341
S315080024D8401100F081F8364B197803297FF4C3AE0A
S315080024E8DFF8E890334FD9F800303348E21A3B68EA
S315080024F80094EB1A00FB02330122F079CDE9015367
S315080025082E4B03F0C9FBC9F800403D60ABE6DBF883
S3150800251808300133CBF80830A5E600F025FEDBF8CD
S315080025280C30B9F1BC0F03F10103CBF80C3035D1E7
S3150800253807F119001D4F1C4900F05AF839782B463F
S31508002548224681F020011848C1F3401100F044F8EA
S3150800255898F80D30002B3FF486AE194B164A2B44D3
S3150800256839781848934281F0200184BF0134164B04
S31508002578C1F3401188BF5B19224600F02DF872E6B0
S31508002588DBF81430B9F1E10F03F10103CBF8143085
S3150800259804D00599079800F093F964E6DBF8183033
S315080025A80133CBF818305EE63C140024C81600241C
S315080025B88C2200243414002400CA9A3B07AA0290E5
S315080025C8002D31017C150024006396C538140024B3
S315080025D85FF800F0DD3201905FF800F0650D000045
S315080025E85FF800F0F52D01905FF800F08D090000FE
S315080025F85FF800F0251F00005FF800F0C974029024
S315080026085FF800F0F51D00005FF800F0CB48019070
S315080026185FF800F0C54801905FF800F07D45019025
S315080026285FF800F04D0501905FF800F03932019027
S30D080026385FF800F0B92C0190CF
S31508002640034B187801280ABF022200201A70704727
S30908002650FC16002442
S31508002658194B13B55C7B012C0BD0022C22D034B94C
S31508002668164B186800F034F8154BC3E9000402B095
S3150800267810BD01A9684600F02FF8019B114AA3F579
S31508002688FA630F4C934289BF009B019303F1FF330A
S315080026980093009800F01CF82060019800F018F8DC
S315080026A86060E4E7054B064C186800F011F8064B1D
S315080026B820601868F2E700BFD0130024C416002467
S315080026C8641A002400CA9A3BC016002400000000B9
S315080026D85FF800F0CB4801905FF800F0C9740290E3
S315080026E8F8B50F4610490968E1B1104E0C25DFF810
S315080026F844C031684D430CEB05044CF805002272BA
S31508002708002263720A4B62811868676000F014F841
S31508002718336801335A4203F0030302F0030258BF31
S3150800272853423360F8BD00BFE8160024D0170024CA
S31508002738AC630024801A00245FF800F06B07019048
S3150800274870B50546094E0C46FDF7D8FD29460246DA
S31508002758304600F011F82046FDF7D0FD214602461E
S31508002768304600F005F8C04370BD00BF906F0024DE
S315080027785FF800F025E501905FF800F065E501903F
S315080027882DE9F041234E074600F108030D46D6F811
S315080027980F00D6F8131003C3B6F8172006F1190167
S315080027A81D481A80FFF7CCFF00F03EF81B4BC7F808
S315080027B81200D3F80080B8F1000F28D100F044F8C9
S315080027C8044620B90146BDE8F04102F015BAADB293
S315080027D8294600F02DF82A463946206800F030F8D0
S315080027E8054640B14146022002F006FA2046BDE8F1
S315080027F8F04100F021B80A4821467389094A006859
S3150800280800F026F80028F1D029460320ECE7BDE8B1
S31508002818F08100BFD0130024D0160024DC1600244B
S31508002828E4160024B41A00245FF800F0CB48019097
S315080028385FF800F0A14501905FF800F07D4501902A
S315080028485FF800F09D6201905FF800F06545019019
S30D080028585FF800F0B92E0190AB
S3150800286037B5FFF7F9FE002000F02AF80F4C104D97
S315080028702023E0820221237601226B7B0D48002B60
S3150800288014BF1823192300930B4BC07903F008FAD9
S315080028906B7B2046002B14BF18211921FFF774FF04
S315080028A0064A13680133136003B030BD641A002466
S315080028B0D01300249422002431AA0290BC1A0024C2
S30D080028C05FF800F0C54801901D
S315080028C80E4B70B50E4C064618680D4600F01CF8F7
S315080028D8002320600520636000F01AF82A4631466E
S315080028E8E08204F1180007F0AAFC29462046FFF7FB
S315080028F847FF044A53690133536170BDC41600245F
S31508002908D8170024BC1A00245FF800F0CB480190B9
S30D080029185FF800F0C5480190C4
S31508002920F0B50C461F4E85B01746054600F058F818
S315080029303060204600F054F87060012000F048F836
S31508002940A022F08206F119001749377607F07BFCBA
S31508002950164B1B78022B14D1154E164F33681649A1
S31508002960EA1A3B681548E31A009501FB023301226F
S315080029700321CDE90143124BC07903F091F9356083
S315080029803C60104B1B781B0702D4062000F024F885
S31508002990B9210448FFF7F8FE0B4A53680133536020
S315080029A005B0F0BDA81900242C1700248C22002499
S315080029B0201700241C17002400CA9A3B94220024DE
S315080029C051AA0290C8160024BC1A00240000000070
S315080029D05FF800F0C54801905FF800F04D050190DA
S30D080029E05FF800F0CB480190F6
S315080029E82DE98048A44C8BB02368002B00F0A680FC
S315080029F8DFF800B30122A14B11469BF8070003F044
S31508002A084BF99F4C4FF0FF32216803A800F0D4F920
S31508002A18DDE90323102AF5D10C229A49DFF8D89262
S31508002A285343994DCA18CE589849536892F809805D
S31508002A380093137A964A0193D9F800300133C9F8F6
S31508002A4800302B689A188A427CD82A60914B924A99
S31508002A58196839B1002119600121904B19604FF4A2
S31508002A68FA7313601368002B04DD013B13600BB976
S31508002A788A4A13608A4C236801332360FFF7DCFD12
S31508002A8808B1FFF7E9FE87491422DFF870A209683A
S31508002A98BAF808300129B3FBF2F322685ED89342E4
S31508002AA803DA00232360FFF7D7FE002EA9D07D4B53
S31508002AB81B68023B012BA4D87B4C21788A0603D4D1
S31508002AC87A4B1B68002B9CD001F00203019A1A4323
S31508002AD897D00023764FB01E06F59F7E1A463B60B0
S31508002AE830F902CF6245A8BF62466345B8BF634658
S31508002AF88645F5D19B1A3046002BC8BF3B6011F0B6
S31508002B0810076C4940F0FC8000F052F9B9223946A2
S31508002B1869480297069706F007FD9AF80D30012BC3
S31508002B2800F09680022B00F0A380002B7FF469AF93
S31508002B384246D9F80010614B186896E00A2000F05A
S31508002B4847F951E703F145435C4A03F5160303F5CC
S31508002B58C6432B6013680133136077E7934248DA54
S31508002B680021102206A8216006F0DEFCFFF770FD9A
S31508002B78022000F039F9524C9AF80D30E082002B01
S31508002B8864D0012B48D14F4B1B68002B5ED04E4FA3
S31508002B9804F118004D4997F821307A1C06F0F6FB1F
S31508002BA897F8223007F11102494904F1210006F085
S31508002BB8EDFBBA8C474906A806F0E8FB0698BDF867
S31508002BC81C209DF81E30C4F82B00A4F82F2084F882
S31508002BD831303224344B1B78190702D4062000F00A
S31508002BE8F7F821463648FFF7CBFD3B4A9368013389
S31508002BF893603A4C23680133FA2B23607FF755AF65
S31508002C080027284B01229BF807001F601146344B02
S31508002C1803F042F8276048E7324B183403F11007E7
S31508002C281868083353F8041C2246BB4203C21446E4
S31508002C38F6D11A889B7822802B4AA37011682B4BE9
S31508002C4819609188927999809A71C2E71824C1E720
S31508002C5806AA02A9009800F0C3F8254A06A902A8F8
S31508002C6800F0A2F8424606990298FFF755FEC8E60C
S31508002C78424629685FE700BFE81600247BAA029047
S31508002C88AC630024801A0024C0160024FFC99A3BA6
S31508002C98002D3101D417002428170024DC16002437
S31508002CA824170024CC160024C81600243825002426
S31508002CB8B01A00242C170024A8190024C4160024C6
S31508002CC8741900243C250024661B002490AA029047
S31508002CD898AA0290A0AA0290BC1A0024E01600241A
S31508002CE8A8AA0290B8300390CB3003909F19002405
S31508002CF800D3CEFE94220024BC160024D013002448
S31508002D0800F06AF800283FF47CAE224E0021BC2267
S31508002D1830460291069106F007FC9AF80D30012B09
S31508002D2826D0022B2ED04BB91B4B186800F04CF84E
S31508002D383060D9F8000000F047F87060032000F00A
S31508002D4853F8A322F0821549154886F8188007F023
S31508002D5876FA23781B0702D4062000F039F8BC2136
S31508002D680C48FFF70DFD0F4AD3680133D36048E6D0
S31508002D7806A902A800F024F8029800F025F83060A1
S31508002D880698D8E7044B186800F01EF830602868DB
S31508002D98D1E700BFB8180024C41600242C1700244D
S31508002DA8D1180024BC1A00245FF800F0DD740290DC
S31508002DB85FF800F0991D00005FF800F0BD07019064
S31508002DC85FF800F0C97402905FF800F0CB480190EC
S31508002DD85FF800F04D0501905FF800F0151E000039
S31508002DE85FF800F0757402905FF800F0C548019026
S31108002DF8014B01221A607047D417002412
S31508002E080A4608B509280AD8DFE800F03B053E094E
S31508002E18092B2E0932384FF400511D482AE0072895
S31508002E2835D1032933D8DFE801F0020A181A002237
S31508002E384FF48051164800F033F8002206E00122C4
S31508002E484FF48051124800F02BF801224FF4006124
S31508002E580F48BDE8084000F023B80022F0E7012231
S31508002E68E6E74FF48061D8E74FF48041094801E066
S31508002E7840210948002AECD00122EAE74FF400412C
S31508002E88F4E74FF40041C8E74FF48041C5E708BDA9
S31508002E9800100258000C02580008025800000000EA
S30D08002EA85FF800F0B909029079
S31508002EB008B500210620FFF7A7FF00210720FFF726
S31508002EC0A3FF00210920FFF79FFF00210820FFF735
S31508002ED09BFF01210520FFF797FF642000F044F8C7
S31508002EE000210520FFF790FF01210620FFF78CFF40
S31508002EF0642000F039F800210620FFF785FF01213C
S31508002F000720FFF781FF642000F02EF80221072032
S31508002F10FFF77AFF642000F027F803210720FFF760
S31508002F2073FF642000F020F800210720FFF76CFFEC
S31508002F3001210820FFF768FF642000F015F800213A
S31508002F400820FFF761FF01210920FFF75DFF6420D4
S31508002F5000F00AF809200021FFF756FF6420BDE8B3
S31508002F60084000F001B800005FF800F04D05019038
S31508002F70B0FA80F210210248520900F005B800BFE5
S31508002F8000100258000000005FF800F0B90902902E
S31508002F90021E4FF04001024818BF012200F004B893
S31508002FA0000C0258000000005FF800F0B909029012
S31508002FB02021024808B500F003F808BD000C0258A5
S30D08002FC05FF800F0AD0902906C
S31508002FC88021024808B500F003F808BD0008025831
S30D08002FD85FF800F0AD09029054
S31508002FE08021024808B500F003F808BD000C025815
S30D08002FF05FF800F0AD0902903C
S31508002FF84FF48071024808B500F006F808BD00BF0E
S3150800300800080258000000005FF800F0AD090290B9
S315080030182021044808B500F007F8B0FA80F04009FE
S3150800302808BD00BF000402585FF800F0AD09029019
S3150800303830B58FB00D4604463422002101A806F0A3
S3150800304873FA32232A2101A85C43B4FBF5F49C429F
S31508003058A8BF1C46224606F067FA04F1380301A9F8
S3150800306804480DEB03040A2304F8343C00F004F87A
S315080030780FB030BD64AC02905FF800F05966029054
S31508003088002302282DE9F34101930DD101AA4968C5
S31508003098294802F081FC019D4DB1284800F060F8E6
S315080030A8002002B0BDE8F08101230193F5E7013855
S315080030B80328F5D8DFE800F00206090F204B01229D
S315080030C81A60EDE71E4B0022FAE7322200211D4856
S315080030D806F02AFAE4E71B4E00233246374632F84A
S315080030E8021B01338D42B8BF0D46192BF7D1164876
S315080030F8002400F035F8DFF86080144800F030F84E
S31508003108134800F02DF83388E21C2146404604345B
S3150800311800F026F8294636F8020BFFF789FF602CD7
S31508003128F1D121463A8E0B4800F01AF82946388E0E
S31508003138FFF77EFFB4E700BF8C01002467AC029056
S31508003148D01B0024D41B002485AC0290A4AC0290A2
S3150800315812AD0290C6AC0290B9AC0290000000000D
S30D080031685FF800F059660290B9
S315080031700F4B10491B6870B50F4C586A2368A3B1EA
S315080031800B684CF24F360D4AC31A0D4D934296BF43
S315080031900C4A1823B3FBF2F335F81320B24295BF55
S315080031A00132002325F813202360086070BD00BF94
S315080031B03C6B0024941B0024D01B0024FF083D0010
S30D080031C0D41B00240071020073
S315080031C8002302282DE9F34101930DD101AA496884
S315080031D82A4802F0E1FB019D4DB1294800F060F844
S315080031E8002002B0BDE8F08101230193F5E7013814
S315080031F80328F5D8DFE800F00206090F214B01225B
S315080032081A60EDE71F4B0022FAE7322200211E4812
S3150800321806F08AF9E4E71C4E00233246374632F8A8
S31508003228021B01338D42B8BF0D46192BF7D1174833
S31508003238002400F035F8DFF86480154800F030F807
S31508003248144800F02DF8338804F127022146404631
S31508003258283400F025F8294636F8020BFFF7E8FE69
S31508003268B4F5707FEFD121463A8E0B4800F018F86E
S315080032782946388EFFF7DCFEB2E700BF8C0100242A
S3150800328867AC0290981B00249C1B0024D3AC0290C0
S31508003298F9AC029010AD029061AD029054AD02905F
S30D080032A85FF800F05966029078
S315080032B0002313B5044601A96846CDE9003300F09A
S315080032C033F813490B680BB3009B124803F003024B
S315080032D0019B00FB0233104A934234BF00200120B1
S315080032E002FB10330D4A181B0D4B4CF24F34984213
S315080032F096BF0C4B1820B0FBF3F032F81030A342FF
S3150800330095BF0133002322F810300B6002B010BDC0
S31508003310981B002400CA9A3B00286BEE9C1B0024CD
S31508003320FFC99A3B005A62025FF800F0C97402901E
S311080033304FF480324FF0104106F085BFC4
S30B0800333C0020FFF7F7BFB1
S31508003344034BD3F823200260B3F8273083807047F1
S30908003354A42200247D
S3150800335808B50120FFF708FE0A2000F009F8002042
S31508003368FFF702FE0A20BDE8084000F001B8000091
S30D080033785FF800F0CDD40190C6
S30708003380704786
S31508003388002373B5036006460B600D4613601446A2
S3150800339801931E2201AB0121134800F029F880B9D0
S315080033A8019BC3F3002203F00703013B3260052B98
S315080033B816D8DFE803F0030D1515081200232B604D
S315080033C8236002B070BD4FF400532B600023F7E763
S315080033D800232B604FF48043F2E74FF40053F8E7D5
S315080033E800233360EDE700BF3074002400000000B6
S30D080033F85FF800F0FB010290EA
S31508003400F0B59FB004460D466422002105A806F0D3
S315080034108FF803AA04A902A8FFF7B6FF94F831307B
S31508003420029EC3F3800355EA03020ED056B91C4820
S3150800343000F05AF8204600F04FF8204600F048F809
S315080034401FB0F0BD0DB9002BFAD1012EF8D105A990
S31508003450134800F035F8049D039F05A910480B95FD
S315080034600A9700F031F80E4800F046F8204600F0BA
S315080034703FF8204600F034F80A4A0B4B0B49002F58
S3150800348008BF13460A4A0B48002D08BF0A463146AC
S31508003490CDE90032084B3246007902F001FCCFE74D
S315080034A03074002461AF029065AF02906AAF029053
S315080034B06EAF02909422002472AF029000000000C2
S315080034C05FF800F0550202905FF800F0E103029001
S315080034D05FF800F0B15B01905FF800F0155B0190B2
S315080034E05FF800F0695B01905FF800F08FFE0190CD
S315080034F05FF800F0CD5A01905FF800F00BFE0190DE
S3150800350008B5024800F004F8002008BDE6AF0290AE
S30D080035105FF800F0596602900D
S307080035187047EC
S3150800352037B50446104DFFF777FDA8B900F028F81F
S315080035300E4B1B8801930E4B009301220D4B032162
S31508003540687B02F009FC0123084A20460A4903B0B1
S31508003550BDE8304000F018B800F012F8064B1B889A
S315080035600193064BE8E700BF942200241C1C0024A4
S315080035700AB00290010000021E1C002434B002901A
S315080035805FF800F0C1D401905FF800F07946029028
S315080035900A4B1A68012A04D0022A09D03AB1002235
S315080035A004E0074A4FF08071916102221A60704761
S315080035B0034A4FF480719161F1E700BF181C00249B
S309080035C0000002589F
S315080035C4402307B58DF80730FEF7B8F8FEF7F8F884
S315080035D40020FEF7D1F9002206201146FEF7ACF9C1
S315080035E401210DF107020846FEF75CFA3220FEF7C0
S311080035F48FF9FEF783FA03B05DF804FBBC
S3150800360008B572B6FEF766F9FEF77AFA62B608BD2D
S31508003610024B00221B681A65704700BF886D00249C
S315080036200028034A034B126808BF00231365704736
S30D08003630886D0024B9A3624D60
S31508003638F0B589B0002307460D466A4649686748C3
S31508003648009302F0A9F9009C06462CB1644800F0DC
S31508003658E3F8002009B0F0BD022861D0032800F07D
S3150800366898800128F5D11422214603A8019405F06B
S315080036785BFF082F029401D05A48E8E702AB632299
S315080036882146A86802F0ACF902AB0C2231468DF83F
S315080036980700E86802F0A4F902AB1F2231468DF844
S315080036A80500286902F09CF90723172221468DF898
S315080036B806008DF8043002AB686902F091F902AB8E
S315080036C83B2221468DF80C00A86902F089F93B22AD
S315080036D88DF80D0002AB2146E86902F081F9029AD5
S315080036E88DF80E0004948DF80F40CDE906440AB10A
S315080036F83D48ACE701A93D4800F092F810B1029B95
S3150800370801330293002203A9384800F08DF810B156
S31508003718029B01330293029B002BE9D1344896E7B2
S315080037281422214603A8029405F0FEFE314B1B68B5
S315080037380BB931488BE7314B02A92C4893F8262058
S315080037488DF80B2093F827208DF8092093F8282060
S315080037588DF80A2007228DF8082093F829208DF875
S315080037680C2093F82A2093F82B308DF80D20224642
S315080037788DF80E3000F054F80546224603A91B4872
S3150800378800F052F80543EDB20DB11D485FE71D4834
S315080037985DE72146142203A8029405F0C5FE2246D1
S315080037A803A9124800F044F8224602A90F4800F077
S315080037B82FF89DF80B309DF80A209DF8091003F597
S315080037C8FA63114800F028F89DF80E309DF80D2088
S315080037D89DF80C100D4800F01FF83AE71C02002463
S315080037E839B102905FB102907DB10290886D0024CC
S315080037F8ACB102903C250024BBB10290661B00249C
S31508003808DEB10290FCB1029017B2029027B202907C
S315080038185FF800F06D3E02905FF800F05966029076
S315080038285FF800F07F3D02905FF800F0BB3C02901D
S30D080038385FF800F0273E02903C
S3150800384038B54FF48033064D14468AB2AB6101464B
S315080038500A23044800F008F80CB90123AB6138BD07
S31508003860000C0258786C00245FF800F0E5410290DD
S315080038700023F7B5052701938DF80330012500F0DD
S3150800388027F8104E00F1FA0400F022F8A04203D9F6
S31508003890FA34052000F024F8012201A88DF80470F6
S315080038A01146FFF7CDFF0A2301220DF10301304629
S315080038B000F012F8044B9D619DF80330DB07E3D452
S315080038C003B0F0BD786C0024000C0258000000001C
S315080038D05FF800F0C1D401905FF800F01944029037
S30D080038E05FF800F04D050190A8
S315080038E830B5002485B066230121224603A803942F
S315080038F8ADF808408DF80C30FFF79EFF992322464D
S31508003908012103A88DF80C30FFF796FF0120012442
S3150800391800F052F890230122042103A88DF80C30F0
S31508003928FFF78AFF0A23022202A91B4800F048F873
S315080039381A4B1B4D22469C6103219DF809300193B9
S315080039489DF808300093174B287B02F0A5F99DF8D7
S315080039580830C22B18D19DF80930287B152B08D1B9
S31508003968114B2246022102F097F9104B1C6005B04C
S3150800397830BD182B08D10E4B2246022102F08CF9CD
S315080039880A4B02221A60F2E701220A4B287B1146E3
S3150800399802F082F9EBE700BF786C0024000C0258A5
S315080039A894220024FAB202901EB30290342000240E
S315080039B838B3029053B302905FF800F0CDD4019063
S30D080039C85FF800F019440290B3
S315080039D0F0B5274F85B00026054600910122254BF4
S315080039E00C46387B032102968DF80C6002F058F9D4
S315080039F006233246012102A88DF80830FFF720FF7A
S31508003A0075BB1D48C4F30743C4F30721E2B2006837
S31508003A10012816D1202264BA04218DF809308DF8C0
S31508003A2008202A46ADF80A4002A8FFF709FFFFF763
S31508003A301FFF124B01220321387B02F031F905B032
S31508003A40F0BD2120E40D8DF80B1005218DF80C2012
S31508003A502A468DF808008DF809408DF80A30E3E704
S31508003A60012DE4D16023324629468DF80830DBE77C
S31508003A709422002478B30290342000248FB3029055
S31508003A807FB5002306462248154602930C468DF854
S31508003A900C30204BCDE9001201220321007B02F0F5
S31508003AA0FFF8B5F5803F00D3FEE71B4AC4F307438A
S31508003AB0C4F30720E1B21268012A1AD1032164BAB5
S31508003AC08DF809308DF808100421ADF80A4002A8CF
S31508003AD0124CFFF7B5FE3146AAB2104800F028F896
S31508003AE0204600F021F80128FAD10D4B986104B060
S31508003AF070BD1322240E8DF80C1005218DF80820B0
S31508003B0001228DF809408DF80A308DF80B00DEE7A2
S31508003B1094220024A3B3029034200024786C002455
S31508003B20000C0258000000005FF800F0254D0290D6
S30D08003B305FF800F0F14802906D
S31508003B382DE9F04FDFF8E09085B04FF00008DFF880
S31508003B48DCA0DFF8DCB007460C4616462F4BCDE955
S31508003B5800120122032199F80C0002F09DF8B045DD
S31508003B6809D32B4B0122032199F80C0005B0BDE8AF
S31508003B78F04F02F091B824F0FF05A6EB08030022DF
S31508003B8801212D1B02A8029205F580758DF80C20D7
S31508003B989D4228BF1D4606238DF80830FFF74CFEC0
S31508003BA81C4AC4F30743C4F30720E1B21268012A82
S31508003BB81DD102218DF8093063BA8DF80810042141
S31508003BC8ADF80A3002A8FFF737FE3946AAB25046BA
S31508003BD800F02EF8504600F027F80128FAD1CBF85D
S31508003BE818002C44A8442F44FFF73EFEB7E71222D4
S31508003BF88DF80C108DF80A3005218DF80820220E4C
S31508003C088DF80B008DF809200122DBE7C1B3029075
S31508003C18DFB302903420002494220024786C002410
S31508003C28000C0258000000005FF800F0254D0290CD
S30D08003C385FF800F08D470290C9
S31508003C40F0B5074685B0124800260C461546114BB6
S31508003C500396CDE9001201220321007B02F020F829
S31508003C60B123324603A801218DF80C30FFF7E8FD91
S31508003C702A4621463846FFF703FFC123324601216B
S31508003C8003A88DF80C30FFF7DBFD05B0F0BD00BFCB
S30D08003C9094220024F3B302900C
S31508003C98F7B50024B12305460E46174601A822465D
S31508003CA8012101948DF80430FFF7C6FD3A463146DE
S31508003CB82846FFF73DFFC1232246012101A88DF8B2
S30F08003CC80430FFF7B9FD03B0F0BDA4
S31508003CD82DE9FF41324D0026324B01220321287B6C
S31508003CE88DF80E604FF02B088DF80F6001F0D4FFA1
S31508003CF8012201240DF10E002B4F11468DF80E8076
S31508003D08FFF79AFD0DF10F010A230122274800F053
S31508003D185BF8BC619DF80F30224603210093244BBB
S31508003D28287B01F0B9FF0623324621460DF10E001D
S31508003D388DF80E30FFF780FD2F23324621460DF108
S31508003D480E008DF80E30FFF777FD052000F038F8DD
S31508003D58224621460DF10E008DF80E80FFF76CFD00
S31508003D6822460DF10F010A23104800F02DF8BC6110
S31508003D789DF80F302246032100930E4B287B01F04D
S31508003D888BFF9DF80F302246032113F0020F287B7C
S31508003D9814BF094B094B01F07FFF04B0BDE8F08159
S31508003DA89422002414B40290000C0258786C00245B
S31508003DB82BB402904FB4029072B4029085B4029064
S31508003DC85FF800F04D0501905FF800F0194402907D
S31508003DD801EB410152F821200146014800F004B8D8
S31508003DE871EF0290000000005FF800F05966029033
S31508003DF8CBB207B50193C1F307230A0E0093C1F3A3
S31508003E0807430146024800F007F803B05DF804FBCB
S31508003E1897B70290000000005FF800F05966029014
S31508003E282DE9F04F89B00023496807AA8F480793F8
S31508003E3801F0B2FD079B33B18D4800F089FA0020DE
S31508003E4809B0BDE8F08F1B28DFF88C9218BF054625
S31508003E5800F1010006BF1B23012503460593059BB0
S31508003E689D42ECDAD9F800604EB9A5F10803012B92
S31508003E7805D835467F4800F06BFA0135EFE76B1E23
S31508003E88192BFAD8DFE813F01A00200024002800B6
S31508003E983D00410047004F00530059002C017701A7
S31508003EA8300064016A016F01730179017F015600C8
S31508003EB8850193012C003A003700E7016E4B6F48DD
S31508003EC81968FFF795FFD8E76B4B6D485968F8E707
S31508003ED8694B6C489968F4E7674B6B48D968F0E70B
S31508003EE8654B6A485969ECE7634B69499A696948B1
S31508003EF800F02EFAC1E704F097FDBEE7FDF7ECFFE0
S31508003F08BBE75D4B64491A69F1E75B4B6348998BD4
S31508003F181A7F090AECE7584B614A93F82910614851
S31508003F28FFF756FFA9E7604A60496148E0E7614A32
S31508003F386149FAE7614A6249F7E7DFF8A0A14FF055
S31508003F480C08604F9AF800305F4E08FB03F35F4889
S31508003F583168FA5800F0FCF99AF80130F16808FB5C
S31508003F6803F35A48FA5800F0F3F99AF80230B16997
S31508003F7808FB03F35548FA5800F0EAF99AF80330AB
S31508003F88716A08FB03F35148FA5800F0E1F99AF800
S31508003F980430316B08FB03F34C48FA5800F0D8F99B
S31508003FA89AF80530F16B08FB03F34848FA5800F00D
S31508003FB8CFF99AF80630B16C08FB03F34348FA5868
S31508003FC800F0C6F99AF80730716D08FB03F33F4805
S31508003FD8FA5800F0BDF99AF80830316E08FB03F371
S31508003FE83A48FA5800F0B4F99AF80930F16E08FB1D
S31508003FF803F33648FA5800F0ABF99AF80A30B16F65
S3150800400808FB03F33148FA5800F0A2F99AF80B307E
S31508004018D6F8841008FB03F32C48FA5800F098F9E8
S315080040289AF80C30D6F8901008FB03F32748FA5884
S3150800403800F08EF99AF80D30D6F89C1008FB03F3B1
S315080040482248FA5800F084F99AF80E30D6F8A810DB
S3150800405808FB03F31D48FA5800F07AF91C4800F0E3
S3150800406877F91C4800F074F907E700BF0C04002428
S31508004078A7B702906C9E0290A4220024D3B7029098
S31508004088E6B70290F5B7029008B8029014B80290FD
S315080040982AB8029042B8029049B802905FB80290CE
S315080040A8DC05002483B80290D22200249FB8029027
S315080040B871EF0290E2220024B5B80290F222002499
S315080040C8CAB80290100300244C030024E1B80290F1
S315080040D8EAB802901CB90290C81300249422002456
S315080040E86F4800F035F96F4800F032F96E4800F06D
S315080040F82FF96E4800F02CF96D4800F029F96D483B
S3150800410800F026F9674800F023F96B4800F020F913
S315080041186A4800F01DF96A4800F01AF9694800F07B
S3150800412817F9694800F014F9684800F011F9684861
S3150800413800F00EF9674800F00BF95A4800F008F93C
S31508004148654800F005F9654800F002F9554889E719
S31508004158634B644A93F82B106348E1E6634B644A59
S3150800416819786448DCE65E4B6349DA8BBFE65C4B34
S3150800417862491A8CBBE6624874E7594B614A93F858
S315080041882C106148CCE6564B604A93F82D106048C7
S31508004198C6E6604F0026DFF8A8813146013617F8CB
S315080041A8012B404600F0D4F8082EF6D165E600F053
S315080041B8D3F84FF47A720646DFF888A1DFF88881C3
S315080041C8B0FBF2F102FB1102534800F0C1F80022D5
S315080041D81746DAF80030A3EB070B0BF11F0BDBF1D8
S315080041E800030BF01F0B03F01F0358BFC3F1000BA6
S315080041F80C2303FB0B835B682BB32AB9474800F0EB
S31508004208A7F8474800F0A4F80C234FF47A7203FB82
S315080042180BFB58F80BC008EB0B0EA6EB0C00DEF8E8
S3150800422808B0B0FBF2F3BCFBF2F102FB130002FB89
S3150800423811C2CDE902BBDEF8044000900194394862
S3150800424800F086F801220137202FC2D10AB936486C
S3150800425808E7364806E74FF0000B354E0627DFF81D
S31508004268DCA0D84616F8012B72B10BF1010B4146B2
S31508004278304800F06DF89BFBF7F307FB13B3052BE3
S3150800428802D1504600F064F808F10108B8F1200F89
S31508004298E8D1BBF1000F01D12748E3E62748E1E654
S315080042A854B90290E9BE029068B9029077B90290AB
S315080042B886B90290A8B90290C8B90290D6B90290F0
S315080042C8E6B90290F6B9029004BA029013BA0290B7
S315080042D822BA029031BA029040BA029056BA0290AF
S315080042E8A4220024000600246CBA0290782200242E
S315080042F88C02002482BA029097BA0290A8BA029051
S31508004308C3BA029094050024DCBA0290700500240A
S31508004318ECBA02908C2200240DBB029033BB0290A3
S315080043286EBB0290A9BB0290D1BB0290DDBB02907E
S315080043380000803825BC029034BC02906CF60290C6
S31508004348F9BA0290F4200024F8200024000000009E
S315080043585FF800F0596602905FF800F0C1D4019042
S3150800436830B585B000230446084603A915460393C5
S3150800437800F02AF820B90D4800F022F805B030BD3B
S31508004388039800F019F82860C3B22146020E019373
S31508004398C0F307230093C0F30743054800F010F855
S315080043A8044B012283F82A20E8E700BF55BC02908F
S315080043B869BC0290A42200245FF800F0CB4801905B
S315080043C85FF800F0596602905FF800F01DC8019082
S315080043D873B514461D46002306462A460846019321
S315080043E8214601AB01F0FCFA019B024633B12A4685
S315080043F82146084800F014F802B070BD069B3146FD
S315080044081860054800F00CF8044B012283F82A20A6
S31508004418F2E700BF7DBC0290B1BC0290A42200243A
S30D080044285FF800F059660290E6
S31508004430F0B51E4685B000231546124C0746039371
S315080044400623084604FB06F2009303AB04FB05F1BA
S3150800445001F0F6FA039B33B1324629460A4800F0C2
S315080044601BF805B0F0BD90FBF4F20A9B39461860BC
S3150800447004FB1203054800F00FF8054B012283F8E8
S315080044802A20EEE740420F007DBC0290BCBC029099
S31508004490A4220024000000005FF800F0596602908C
S315080044A02DE9F341002407469046184601AA1D4601
S315080044B0089E019401F074FA019B93B10C3D124ECB
S315080044C0124800F02DF8033455F8241029B910487D
S315080044D000F026F802B0BDE8F081304600F020F87A
S315080044E0F1E742B288F8000039460A4802EB420270
S315080044F055F8222000F014F8002EEBD0064B0122C6
S3150800450083F82A20E6E700BFF4BC0290CDBC0290EF
S315080045106CF60290F8BC0290A42200240000000069
S30D080045205FF800F059660290ED
S31508004528002373B5044616460B4801AA01930D469F
S3150800453801F032FA019B23B1084800F015F802B0D9
S3150800454870BD2A4630702146054800F00DF8054B1F
S31508004558012283F82A20F2E72406002403BD0290E4
S31508004568F8BC0290A42200245FF800F0596602906D
S31508004578014800F005B800BF45BD029000000000DC
S30D080045885FF800F05966029085
S31508004590F8B5074615461E460C4619B10846FBF7F8
S315080045A0B1FE20B90D48BDE8F84000F021B8B04288
S315080045B001DB0B48F7E732460021284604F0B8FF2E
S315080045C02146284605F037FE22463946054800F0BA
S315080045D00FF8054B012283F82A20F8BD6EBD02901C
S315080045E081BD0290F8BC0290A422002400000000BD
S30D080045F05FF800F0596602901D
S315080045F8F0B58BB0002305460C4603AA49689D48C2
S31508004608CDE9033301F0C8F9039B1BB19A4800F0BA
S31508004618AFFA4CE0022D07DC1A2803D8974BC3409B
S31508004628DB0701D49648F2E7964B1B682BB9A0F12D
S315080046380803012B01D89448E9E701381A2836D81F
S31508004648DFE810F01B0028002C0030005600E400B4
S31508004658E700F000F7000101E400BE013C00B701DD
S31508004668F001F901080217021E02FC00250242029F
S31508004678380051004C005102E400844AA168844875
S31508004688FFF76EFE834800F073FA834800F070FA65
S315080046988248BCE7824AA1688248F1E7824AA1684B
S315080046A88248EDE7824AA1688248FFF759FE00204A
S315080046B80BB0F0BD804AA1688048F6E7734D4FF401
S315080046C816627F48AB69049304AB00934FF4E13351
S315080046D8A168FFF77DFE049BAB61D3E72146284610
S315080046E804F0BAF8E3E721462846FDF7FDFADEE7BF
S315080046F80023032D05930893ADF8243007D1A16844
S315080047087048FBF7F1FD10B9FFF7E2FACFE75F4B00
S315080047181B69013301D06C4879E7052D01D06B4830
S3150800472875E7002205ABA068114601F059F905ABF3
S31508004738FF2200210546E06801F052F905AB074655
S3150800474863220021206901F04BF9059B06460BB147
S315080047585F485CE703463A4629465E4800F008FA89
S315080047685D4800F005FA5D4800F002FA5C4800F07A
S31508004778FFF95C4800F0FCF9062108A800F0FCF9E6
S31508004788032841D1584908A8FBF7AEFD0446002876
S3150800479838D1564800F0ECF906A92B0E5448CDE94D
S315080047A80644544C23702B0CE57063702B0AA772C9
S315080047B8A370E67200F0E4F9054607A94C4800F02C
S315080047C8DFF9284310F0FF0104D04B4800F0D0F970
S315080047D84A481CE7069A2046130EE27123F003039B
S315080047E843F002032371130C6371130AA371079B21
S315080047F81A0E1B0C22720C226372FFF749FAFFF78E
S3150800480867FAE5E73E4802E73E4800E7FFF7B0FEE5
S315080048184DE701233C4A3D4800933D4BA168FFF705
S315080048283BFE2FE710233B4AA1683B48FFF7ACFE3F
S315080048383DE71023394AA1683948F7E71023394A6A
S31508004848A1683948F2E70023042D089301D03748B0
S31508004858DDE608AAA168364801F09EF808AA0546C2
S31508004868E168344801F098F8089A0346002A65D0A2
S315080048783148CCE60C04002492BD029080C040045E
S31508004888BDBD0290C81300246C9E0290A422002481
S31508004898D3B70290E5C1029027C2029057C2029088
S315080048A8A8220024E6B70290AC220024F5B70290A5
S315080048B8B022002408B80290B8220024E0BD02906D
S315080048C8F5BD029004BE029045BD029009BE02904D
S315080048D85FBE029072BE0290A4BE0290D0BE02903D
S315080048E8FFBE029042BF02905BBF02905FBF029074
S315080048F8AC6D00240CDA003073BF0290A3BF029097
S31508004908CFBF0290E2BF0290CD220024EDBF0290ED
S31508004918DC050024D22200249FB80290E222002453
S31508004928B5B80290F2220024CAB8029009C00290CB
S315080049384C0300241003002455C00290681E0E2854
S315080049483FF6B5AEDFE800F0080B0E1114171A1D6E
S31508004958202326292C2F3200694A1370A7E6684AAD
S315080049685370A4E6664A9370A1E6654AD3709EE634
S31508004978634A13719BE6624A537198E6604A9371D3
S3150800498895E65F4AD37192E65D4A13728FE65C4AEA
S3150800499853728CE65A4A937289E6594AD37286E65E
S315080049A8574A137383E6564A537380E6544A9373F1
S315080049B87DE60123534A54480093544BA1682EE7D1
S315080049C80023032D089303D0514800F0D1F859E67F
S315080049D808AAA1684F4800F0DFFF089B002BF3D10F
S315080049E84D4C90B1012817D00C2294F82B30494920
S315080049F850435343454A0958D3584848A26900F0D2
S31508004A08B7F8012384F82A303CE64FF4E133A3616A
S31508004A18012384F82B30E7E74FF4165384F82B0064
S31508004A28A361E1E700233E4A3E4800933E4BA1684E
S31508004A38FFF732FD3BE6384D01223C48EB8B0493E1
S31508004A4804AB00934FF6FF73A168FFF7C1FC049BFC
S31508004A58EB8317E6304D012235482B8C049304ABBB
S31508004A6800934FF47A73A168FFF7B2FC049B2B8472
S31508004A781DE601232F4A30480093304BA168D7E733
S31508004A8801232F4A2F4800932F4BA168D0E7002609
S31508004A98042D089604D008212C4800F069F806E683
S31508004AA808AB07223146A06800F09AFF08AB05460E
S31508004AB8FF223146E06800F093FF089B0BB12448B3
S31508004AC8A5E5244B5855F2E5022D02D0224800F0F8
S31508004AD84FF8224A20230021013B516002F10C02BB
S31508004AE8FAD11F4893E5022D02D01B4800F040F87A
S31508004AF8202200211B4804F017FD1B4887E500BF44
S31508004B0894220024CF2200246CBA029000060024BE
S31508004B188DC0029068020024A4220024B7C002901F
S31508004B287822002482BA02908C02002497BA02904E
S31508004B38E0C00290D0220024FBC00290940500240D
S31508004B48D1220024ECBA02907005002406C102900E
S31508004B5840C102908C22002475C10290F8200024D6
S31508004B6896C1029000008038BEC10290000000007D
S31508004B785FF800F0596602905FF800F0CD6602907B
S30D08004B885FF800F0E93A02901B
S31508004B90002313B50C4601AA01461048019300F0FC
S31508004BA0FFFE019BBBB934B90D4B53F8200000F04A
S31508004BB01FF802B010BD192803D1204603F0BCFF28
S31508004BC0F7E7182803D12046FDF73EFAF1E705482E
S31508004BD000F012F8EDE70448FAE700BF0C040024D9
S31508004BE0F43003907FC20290A3C202900000000036
S31508004BF05FF800F0C96602905FF800F05966029007
S31508004C0007B50A4A135CFF2B1CBF0133135449B975
S31508004C10135C0122CDE9000305481146054B40788F
S31508004C2001F03EF803B05DF804FB00BF00008038D1
S30D08004C3094220024E3C202905D
S31508004C3870B50B4D0C230B4E2C685C433319C3E92E
S31508004C48010100F011F82B68305101335A4203F07C
S31508004C581F0302F01F0258BF53422B6070BD00BFE6
S31508004C68F4200024F82000245FF800F0C1D401904D
S31508004C782DE9F04FA9B0DFF89CA0DFF8A490054607
S31508004C880DF11808DFF89CB00F4616460021872252
S31508004C98404604F049FC05F01F0439461D48C4F18E
S31508004CA82004B44228BF34462246361B05F0C7FA04
S31508004CB85B46012203212744CDE9005499F80600EA
S31508004CC800F0EAFF082322461249404601F0A8F8F0
S31508004CD8114B00220321CDF8008099F8060000F050
S31508004CE8DBFFA021A3B20D48AAB22544CDE900A34B
S31508004CF8022300F01DF84FF0FF32012102A800F048
S31508004D081BF80A2000F010F8002EC4DC29B0BDE80C
S31508004D18F08F00BF2CDA003092B50290B06E0024EE
S31508004D2894220024FBDA02905FF800F04D05019002
S31508004D385FF800F0010D02905FF800F0AF050190EA
S31508004D4830B58DB00D4604462B22002101A804F083
S31508004D58EBFB002D4FF00402074B18BF4FF0FF334B
S31508004D6820680DEB02010193FFF782FF23680433DD
S31108004D7823600DB030BD00BFEFBEADBA21
S31508004D887FB50022064B012168460592196000F096
S31508004D980BF8022105A8FFF7D3FF07B05DF804FB57
S31508004DA880220024000000005FF800F0AF0501909B
S31508004DB82DE9F0418CB01E4604468846129D1746D2
S31508004DC800212B2201A804F0AFFB2A4631460DF133
S31508004DD807008DF804808DF805708DF8065005F0E3
S31508004DE82EFAEA1C01A92068FFF742FF2368033355
S30F08004DF82B4423600CB0BDE8F081DF
S31508004E02F0B58DB004460F46164600212B2201A89E
S31508004E121D4604F08CFB0423072201A98DF80630EF
S31508004E222B682068CDF807308DF804708DF8056078
S31308004E32FFF721FF2368073323600DB0F0BD9C
S31508004E40F0B58DB004460F46164600212B2201A860
S31508004E501D4604F06DFB0223052201A98DF80630D4
S31508004E602B882068ADF807308DF804708DF805603A
S31308004E70FFF702FF2368053323600DB0F0BD7F
S31508004E7EF0B58DB004460F46164600212B2201A822
S31508004E8E1D4604F04EFB0123042220688DF80630D9
S31508004E9E2B780DEB02018DF804708DF807308DF81E
S31508004EAE0560FFF7E2FE2368043323600DB0F0BDFC
S31508004EC01FB5094B0121094A1960106038B14FF026
S31508004ED0FF32684600F00CF805B05DF804FB1A6866
S31508004EE0002AFCD1F8E700BF7C2200248022002497
S30D08004EF05FF800F0AF05019020
S31508004EF82DE9F043A5B00C46054600210DF1080832
S31508004F08174687221E464046DFF8789004F00CFBC1
S31508004F18A021A3B2CDF800901648019302232A8847
S31508004F2800F032F83046FFF7C7FFBEB101940122F8
S31508004F382B680321104E0093104BB07900F0ACFE95
S31508004F482B2322464946404600F06AFFCDF80080E2
S31508004F580B4B00220321B07900F09EFE2246094930
S31508004F68384605F06CF92B6823442B6025B0BDE854
S31508004F78F08300BFB06E0024942200240FDB029051
S31508004F8892B502902CDA00305FF800F01D0E0290F8
S31508004F982DE9F04F0025A3B004462B22294609A877
S31508004FA8089504F0C1FA974B1C6024B12A460121DA
S31508004FB804A800F045F9234609AA042108A8FFF71A
S31508004FC897FF914B099A9A427DD1904EDFF868A2CD
S31508004FD83822002114A8042704F0A6FA089D0223FB
S31508004FE8A021AAB28A48CDE9006700F031F920461F
S31508004FF8FFF762FFBCB1874B01220321CDE90057B1
S315080050089AF8060000F048FE3B463A46314614A888
S3150800501800F006FF14AB0022032100937E4B9AF892
S31508005028060000F039FEB3780435F27803F1FF3844
S31508005038023B96F80090282B77788DF82420089557
S3150800504861D81FFA88F3A021AAB27148CDE900638E
S31508005058022300F0FDF82046FFF72EFFD4B1DFF84B
S31508005068D8B101226D4B03210095CDE901789BF84B
S31508005078060000F011FE0F234246644914A800F002
S31508005088CFFE14AB002203210093634B9BF806005E
S3150800509800F002FE4544424631460DF1250005F06A
S315080050A8CEF80895B9F1000F34D17B1E112B38D8E4
S315080050B8DFE803F03B3F4347375369774F595F6447
S315080050C837379399854B0023089314B1544800F051
S315080050D8BBF8544C0C2200212046FEF7ADFD524B76
S315080050E862680898C3F823202289A3F8272022682B
S315080050F812BA1A61628952BA9A83002283F82A2058
S3150800510823B0BDE8F08FB8F1000FCBD0B9F1000F86
S31508005118DFD0FF27B9F1010F6BD109A9384603F08B
S31508005128F9FAFF2F7FF454AFD3E73F4B099A1A6071
S315080051384EE73D4B099A5A604AE73B4B099A9A60EB
S3150800514846E7394B099ADA6042E7374B099A5A61B2
S315080051583EE7354B099A9A613AE79DF82420324B7F
S3150800516883F8292034E79DF824202F4B83F82B2031
S315080051782EE72D4BBDF82420DA8329E72A4BBDF8FC
S3150800518824201A8424E709AD284A0DAF2B4608328D
S3150800519803CBBB4242F8080C42F8041C1D46F5D15D
S315080051A816E709AD224A0DAF2B46083203CBBB4298
S315080051B842F8080C42F8041C1D46F5D108E709AD63
S315080051C81C4A0DAF2B46083203CBBB4242F8080CE3
S315080051D842F8041C1D46F5D1FAE69DF82420124B20
S315080051E883F82C20F4E69DF824200F4B83F82D200D
S315080051F8EEE6B9F1020F94D109A93846FCF7C0FCC6
S315080052088FE700BF80220024EFBEADBA2CDA003043
S31508005218B06E00243ADB029092B502904EDB0290FB
S3150800522823DB02901CDA0030A4220024D2220024B0
S31508005238E2220024F222002494220024000000001E
S315080052485FF800F0AF0501905FF800F05966029024
S30D080052585FF800F01D0E02903C
S3150800526070B50020FFF798FE054600283ED1294C68
S315080052706FF0FF03284A0126284984F8220004F122
S315080052802E0084F82960A685C4E90023244BC4E9C6
S31508005290023303F55B43C73363614FF4E133A3611C
S315080052A04FF4FA63E3836423238440F2011363858E
S315080052B004F0C1FF1B4904F13E0004F0BCFF1022B4
S315080052C0294604F14E0004F033F903F0FDF9FCF722
S315080052D027FC84F8226005F0010105200135FDF759
S315080052E093FD642000F024F80B2DF4D10E4B022216
S315080052F01A7001225A709A70DA701A715A719A7174
S31508005300DA711A725A729A72DA721A735A739A732D
S3150800531070BD00BFA4220024E202A8C065DB02908B
S315080053200102A8C06EDB029094220024000000004F
S30D080053305FF800F0CDD40190EE
S31508005338F0B59BB0002705460C4606AA4968974863
S31508005348069700F029FB069E2EB1954800F040F90D
S3150800535800201BB0F0BD431E042B0FD8DFE803F06E
S31508005368039EA3A6A9008F4B099710938E4B0C97FB
S315080053781B6843B98D4800F02BF9099E31468C48BD
S3150800538800F026F9E4E701258A4B8B4C00222946CA
S3150800539802A81D6000F020F9022109A8FFF7D0FC31
S315080053A82A462346002109A81025FFF726FD231DAE
S315080053B80222002109A8FFF720FD04F108030322A9
S315080053C8002109A8FFF719FD04F10C03042200219E
S315080053D809A8FFF712FD04F114031222002109A8EF
S315080053E8FFF70BFD04F118030922002109A8FFF7A6
S315080053F804FD04F129030622002109A8FFF73BFD4D
S3150800540804F12B030A22002109A8FFF734FD04F149
S315080054181E030B22002109A8FFF70EFD04F120033D
S315080054280C22002109A8FFF707FD04F12E0307221D
S31508005438002109A80095FFF7BBFC04F13E030822E2
S31508005448002109A80095FFF7B3FC04F14E031122C1
S31508005458002109A80095FFF7ABFC04F12C030F22DD
