S0100000566F7465723242322E737265635E
S3150800000000000824058D0008298100082B810008B6
S315080000102D8100082F8100083181000800000000AA
S31508000020000000000000000000000000212D0190E3
S315080000303381000800000000B12D0190152E0190B3
S31508000040558D0008558D0008558D0008558D0008FA
S31508000050558D0008558D0008558D0008558D0008EA
S31508000060558D0008558D0008558D00083981000802
S31508000070518100086981000881810008A98100086A
S31508000080C1810008D9810008558D0008558D0008E2
S31508000090558D0008558D0008558D0008558D0008AA
S315080000A0558D0008558D0008558D0008558D00089A
S315080000B0F1810008558D0008558D00081982000841
S315080000C0558D0008558D0008558D0008558D00087A
S315080000D03182000849820008558D000861820008AF
S315080000E0558D0008558D000800000000558D000844
S315080000F0558D0008558D0008558D00087182000839
S31508000100558D0008558D0008558D00088982000810
S31508000110A1820008558D0008558D0008B98200088F
S31508000120E1820008F9820008118300082983000883
S31508000130418300085983000871830008558D00081B
S3150800014000000000000000000000000000000000A1
S315080001507983000891830008A9830008558D000853
S31508000160558D0008558D0008558D0008558D0008D9
S31508000170558D0008558D0008558D0008558D0008C9
S31508000180558D0008558D0008C1830008D9830008DD
S31508000190558D0008558D0008558D0008558D0008A9
S315080001A0558D0008558D0008558D0008558D000899
S315080001B0558D0008558D0008558D0008558D000889
S315080001C0558D0008558D0008558D0008558D000879
S315080001D0558D0008558D0008558D0008558D000869
S315080001E0558D0008558D0008558D0008558D000859
S315080001F0558D0008558D0008558D0008558D000849
S31508000200558D0008558D0008558D0008558D000838
S31508000210558D0008558D0008558D0008558D000828
S31508000220558D0008558D0008558D00080000000002
S31508000230558D0008558D000800000000558D0008F2
S31508000240558D0008558D0008558D0008558D0008F8
S31508000250558D0008558D0008558D0008558D0008E8
S31508000260558D0008558D0008558D0008558D0008D8
S31508000270558D0008558D0008558D000800000000B2
S31508000280558D0008558D0008558D000800000000A2
S30D0800029000000000558D00086E
S31508000298F8B500BFF8BC08BC9E467047F8B500BF5D
S30D080002A8F8BC08BC9E4670472D
S315080002B010B5054C237833B9044B13B10448AFF392
S315080002C000800123237010BD100D002400000000DB
S315080002D09802000808B5034B1BB103490348AFF35E
S315080002E0008008BD00000000140D002498020008D4
S315080002F010F8012B11F8013B012A28BF9A42F7D0C2
S31508000300D01A7047034613F8012B002AFBD1181A96
S3150800031001387047000000000000000000000000DF
S3150800032001F0FF01102A2BDB10F0070F08D010F898
S31508000330013B013A8B422DD010F0070F42B3F6D19C
S31508000340F0B441EA012141EA014122F007047FF0B5
S3150800035000070023F0E80256083C85EA010586EA0C
S31508000360010685FA47F5A3FA87F586FA47F6A5FA48
S3150800037087F68EB9EED1F0BC01F0FF0102F0070254
S3150800038032B110F8013B013A83EA010313B1F8D1FF
S315080003900020704701387047002D06BF35460338E0
S315080003A0073815F0010F07D1013015F4807F02BF19
S315080003B0013015F4C03F0130F0BC0138704700BF6A
S315080003C081F0004102E000BF83F0004330B54FEAF8
S315080003D041044FEA430594EA050F08BF90EA020F65
S315080003E01FBF54EA000C55EA020C7FEA645C7FEAF8
S315080003F0655C00F0E2804FEA5454D4EB5555B8BF1B
S315080004006D420CDD2C4480EA020281EA030382EA8B
S31508000410000083EA010180EA020281EA0303362D1D
S3150800042088BF30BD11F0004F4FEA01314FF4801CF0
S315080004304CEA113102D0404261EB410113F0004F02
S315080004404FEA03334CEA133302D0524263EB4303B9
S3150800045094EA050F00F0A780A4F10104D5F1200E57
S315080004600DDB02FA0EFC22FA05F2801841F10001B2
S3150800047003FA0EF2801843FA05F359410EE0A5F186
S3150800048020050EF1200E012A03FA0EFC28BF4CF0B7
S31508000490020C43FA05F3C01851EBE37101F000456D
S315080004A007D54FF0000EDCF1000C7EEB00006EEB7A
S315080004B00101B1F5801F1BD3B1F5001F0CD3490804
S315080004C05FEA30004FEA3C0C04F101044FEA44525B
S315080004D012F5800F80F09A80BCF1004F08BF5FEAE2
S315080004E0500C50F1000041EB045141EA050130BDC2
S315080004F05FEA4C0C404141EB0101013C28BFB1F5D4
S31508000500801FE9D291F0000F04BF01460020B1FA1E
S3150800051081F308BF2033A3F10B03B3F120020CDAF1
S315080005200C3208DD02F1140CC2F10C0201FA0CF0CF
S3150800053021FA02F10CE002F11402D8BFC2F1200C34
S3150800054001FA02F120FA0CFCDCBF41EA0C019040EA
S31508000550E41AA2BF01EB0451294330BD6FEA040433
S315080005601F3C1CDA0C340EDC04F11404C4F120021E
S3150800057020FA04F001FA02F340EA030021FA04F330
S3150800058045EA030130BDC4F10C04C4F1200220FA87
S3150800059002F001FA04F340EA0300294630BD21FAC5
S315080005A004F0294630BD94F0000F83F4801306BF8B
S315080005B081F480110134013D4EE77FEA645C18BF7F
S315080005C07FEA655C29D094EA050F08BF90EA020F16
S315080005D005D054EA000C04BF1946104630BD91EA0E
S315080005E0030F1EBF0021002030BD5FEA545C05D111
S315080005F04000494128BF41F0004130BD14F5800450
S315080006003CBF01F5801130BD01F0004545F0FE41C3
S3150800061041F470014FF0000030BD7FEA645C1ABFF8
S31508000620194610467FEA655C1CBF0B46024650EA2F
S31508000630013406BF52EA033591EA030F41F400215B
S3150800064030BD00BF90F0000F04BF0021704730B5E1
S315080006504FF4806404F132044FF000054FF00001B6
S3150800066050E700BF90F0000F04BF0021704730B577
S315080006704FF4806404F1320410F0004548BF40424C
S315080006804FF000013EE700BF42004FEAE2014FEAA1
S3150800069031014FEA02701FBF12F07F4393F07F4F7C
S315080006A081F06051704732F07F4208BF704793F07F
S315080006B07F4F04BF41F40021704730B54FF4607492
S315080006C001F0004521F000411CE700BF50EA010295
S315080006D008BF704730B54FF000050AE050EA01023E
S315080006E008BF704730B511F0004502D5404261EBAE
S315080006F041014FF4806404F132045FEA915C3FF4EF
S31508000700D8AE4FF003025FEADC0C18BF03325FEA8B
S31508000710DC0C18BF033202EBDC02C2F1200300FA3C
S3150800072003FC20FA02F001FA03FE40EA0E0021FA61
S3150800073002F11444BDE600BF7BB972B90029BEBFF9
S3150800074000204FF0004106E008BF00281CBF6FF0EC
S3150800075000414FF0FF3000F0F3B9ADF1080C6DE938
S3150800076004CE002909DB002B1ADB00F06DF8DDF852
S3150800077004E0DDE9022304B07047404261EB410121
S31508000780002B1BDB00F060F8DDF804E0DDE902234E
S3150800079004B0404261EB4101524263EB43037047A8
S315080007A0524263EB430300F04FF8DDF804E0DDE95D
S315080007B0022304B0404261EB41017047524263EBA9
S315080007C0430300F041F8DDF804E0DDE9022304B054
S315080007D0524263EB4303704753B94AB9002908BF2D
S315080007E000281CBF4FF0FF314FF0FF3000F0A8B9CA
S315080007F0ADF1080C6DE904CE00F026F8DDF804E04A
S31508000800DDE9022304B070479FED0B6B41EC170B33
S315080008109FED0B5B27EE066BBCEEC66BB8EE464B40
S31508000820A4EE457BFCEEC77B16EE101A17EE900A6F
S31508000830704700BFAFF30080000000000000F03DE5
S31508000840000000000000F0412DE9F047089D8E46A3
S3150800085004468846002B4AD18A42174662D9B2FA1C
S3150800086082F64EB1C6F1200301FA06F820FA03F320
S31508000870B74043EA0808B4404FEA174E1FFA87FC08
S31508000880B8FBFEF1230C0EFB118843EA084301FB73
S315080008900CF29A4209D9FB1801F1FF3080F0EA8080
S315080008A09A4240F2E78002393B449A1AA3B2B2FB55
S315080008B0FEF00EFB102243EA024300FB0CFC9C45AB
S315080008C009D9FB1800F1FF3280F0D6809C4540F22A
S315080008D0D3803B44023840EA0140A3EB0C030021D5
S315080008E01DB1F3400022C5E90032BDE8F0878B420E
S315080008F005D90DB1C5E9000100210846F5E7B3FAA7
S3150800090083F1002946D1734502D3824200F205815C
S31508000910841A6EEB030201209046002DE5D0C5E946
S315080009200048E2E7002A00F09080B2FA82F6002E2C
S3150800093040F0A4808A1A030C4FEA174E80B2BCB264
S315080009400121B2FBFEFC0EFB1C2243EA024304FB18
S315080009500CF29A4207D9FB180CF1FF3802D29A42D8
S3150800096000F2E080C4469B1AB3FBFEF20EFB12337C
S3150800097040EA034302FB04F49C4207D9FB1802F140
S31508000980FF3002D29C4200F2CA8002461B1B42EA92
S315080009900C40A5E7C1F120068B4022FA06F71F4353
S315080009A00EFA01F420FA06F32EFA06FE4FEA174964
S315080009B0234300FA01F81FFA87FCBEFBF9F01C0C6A
S315080009C009FB10EE44EA0E4400FB0CFEA64502FAAB
S315080009D001F209D93C1900F1FF3A80F09C80A6453E
S315080009E040F2998002383C44A4EB0E041FFA83FEB9
S315080009F0B4FBF9F309FB13444EEA044403FB0CFC6D
S31508000A00A44508D93C1903F1FF3E80F08280A4452D
S31508000A107FD9023B3C4443EA0040A4EB0C04A0FB0C
S31508000A2002EC64457346E14662D35FD05DB1B8EB2C
S31508000A30030264EB090404FA06F622FA01F31E43DC
S31508000A40CC40C5E9006400214FE7B1FBF2FC010C7C
S31508000A5041EA0E4180B240EA01423B4638463C46EE
S31508000A60B846BE462026B1FBF7F1A2EB080241EADA
S31508000A700C4166E7014618E710462CE7C6F1200246
S31508000A802EFA02F3B740B14020FA02F24FEA174EA7
S31508000A900A43B3FBFEF8BCB20EFB1833110C41EA4D
S31508000AA0034108FB04F9B04089454FEA104380B278
S31508000AB03ED9791808F1FF3C01D289451FD8A1EB28
S31508000AC00901B1FBFEF909FB04F80EFB191192B2F4
S31508000AD042EA0142424529D2BA1809F1FF31C4D285
S31508000AE04245C2D2A9F102013A44BEE7F0459DD279
S31508000AF0BEEB02036CEB070C0138E14696E7A7EB61
S31508000B0009094944A8F1020CB1FBFEF909FB04F8EE
S31508000B10DBE773467FE7504666E70846FDE63B4453
S31508000B20023A33E7ACF1020C3B441CE749469CE722
S31508000B30A1EB0901C446B1FBFEF909FB04F8C4E7B9
S30908000B40704700BF2D
S30708000B447047EA
S31508000B4810B50022064C4FF400631146204600F003
S31508000B580BF820460021BDE8104000F009B800BF90
S31508000B68A46F0024000000005FF800F017EC01905D
S30D08000B785FF800F0C1EB0190E3
S31508000B8010B5074C10214FF400630022204600F0F0
S31508000B900FF820461021BDE8104000F005B800BF48
S31508000BA0A46F0024000000005FF800F0C1EB01907C
S30D08000BB05FF800F017EC019054
S31508000BB810B50021474800F0A3F80121454800F080
S31508000BC89FF8454C0021454800F09AF8012143480A
S31508000BD800F096F86379012B26D00123A0682268CD
S31508000BE8637102233B4923713D4BC3633D4B036441
S31508000BF83D4BC364136843F480531360136843F486
S31508000C08005342F8203B4FF4A07300F081F8002304
S31508000C186371002850D123681A6842F001021A60E5
S31508000C281A6842F480321A60304C4FF4A072304980
S31508000C38304800F069F805222F49204600F064F884
S31508000C48E36C2E4A1B6893422DD0183293422AD059
S31508000C581832934227D01832934224D01832934236
S31508000C6821D0183293421ED0183293421BD018321C
S31508000C78934218D002F55672934214D0183293420A
S31508000C8811D0183293420ED0183293420BD018322C
S31508000C98934208D01832934205D01832934202D0AC
S31508000CA8183293420DD11A6822F010021A601A688F
S31508000CB822F008021A6010BD236943F00403236171
S31508000CC8B2E71A6822F002021A601A6822F00402C9
S31508000CD8F0E700BF0CD00030A46F00248CD2003097
S31508000CE841EC019051EC01905DEC019030710024C3
S31508000CF80CD500309471002400D000301000024052
S31508000D085FF800F0810D00005FF800F035E2019009
S30D08000D185FF800F021F50190D7
S31508000D20074B5A88188810449A881044DA881B8911
S31508000D3010441844502380B2B0FBF3F0C0B2704799
S30908000D4000D00030A1
S31508000D48044B834205D1044B04481B68996B00F091
S31508000D5807B8704794710024646B00244CD6003099
S30D08000D685FF800F03D0A0000E7
S31508000D70044B834205D1044B04481B68996B00F069
S31508000D8007B8704794710024646B00240CD50030B2
S30D08000D905FF800F03D0A0000BF
S31508000D98044B834205D1044B04481B68996B00F041
S31508000DA807B87047A46F0024646B00248CD20030FF
S30D08000DB85FF800F0C911000004
S31508000DC0044B834205D1044B04481B68996B00F019
S31508000DD007B87047A46F0024646B00240CD0003059
S30D08000DE05FF800F0C9110000DC
S31508000DE8F0B585B0002309220A2701AC0193636090
S31508000DF8C4F80730002918BF1346B1FBF7F607FBF6
S31508000E08161531463035A554013AF3D1E11808F0DC
S30B08000E18CFFB05B0F0BD9A
S31508000E2030B58BB028221D4D002168461C4C08F0B1
S31508000E30BBFB1C49684609F03AFA29696846FFF778
S31508000E40D3FF1949684608F0B7FB6969174802F0E5
S31508000E50FFFF6946164800F037F82146686900F032
S31508000E603BF8012223466846114600F029F8204639
S31508000E7000F036F80F4B1860204600F029F8638911
S31508000E804BB9204600F030F8638923B90A4A136043
S31508000E9001220A4B1A6000200BB030BDBC22002488
S31508000EA0340D0024C89D0290D59D0290DA9D0290CB
S31508000EB0F49D0290300D00242C0D0024D01300243C
S31508000EC05FF800F0F59002905FF800F0F96B029079
S31508000ED05FF800F0CD9302905FF800F09D900290C5
S31508000EE05FF800F0859102905FF800F0D9920290C1
S31508000EF070B5134D134E2B683268934204DA124AC2
S31508000F00D05C01332B6009E0B2F5007F07DA0024D4
S31508000F100E4B0F481C6000F01FF8204670BD0C4CA5
S31508000F20204600F021F83060204600F021F8638959
S31508000F3013B9204600F014F8064B18790123E1E7A7
S31508000F402C0D0024300D002420230024D013002467
S31508000F50340D00241C2300245FF800F0B19302909E
S31508000F605FF800F0D99202905FF800F08591029040
S30D08000F705FF800F0CD93029032
S31508000F781FB5D3B204460293C2F307230193C2F3FB
S31508000F8807430093130E0A46044908F03BFA20461D
S31508000F9804B0BDE81040FFF7B1B900BF089E02903B
S31508000FA810B5044613460A46034908F02BFA2046A4
S31108000FB8BDE81040FFF7A2B9209E029089
S31508000FC438B50C2504466A439B580A46034908F073
S31508000FD41BFA2046BDE83840FFF792B92B9E0290CB
S31508000FE410B5044613460A46034908F00DFA204686
S31108000FF4BDE81040FFF784B92B9E029060
S315080010002DE9F04F9FB01822002101A808F0CCFA6C
S315080010102822002107A808F0C7FA3222002111A8C1
S3150800102008F0C2FA9A4BD3F80090B9F1000F06D12E
S31508001030984800F07DF948461FB0BDE8F08F964EF7
S3150800104007A89649002509F032F9316907A8A84684
S31508001050FFF7CAFE924907A82F4608F0ADFA71694C
S315080010609048A94602F0F4FE07A98F4800F060F9F7
S3150800107001A9706900F060F901AB0122022107A8F5
S31508001080DFF884A200F05CF901A800F049F901A88C
S3150800109000F042F9BDF80E3013B9B8F1000F1AD0B6
S315080010A0394601A800F034F901A800F039F901A879
S315080010B000F032F9B7F5007F09D1002101A800F048
S315080010C027F901A800F02CF901A800F025F901A8D4
S315080010D000F02AF9AFE7122D00F2BD80DFE805F02F
S315080010E00A212931394149535B636B757D858F998F
S315080010F0A0AAB100326811A86C49A846FFF73CFFC0
S315080011000125044607EB040B381DA144BBF5007FF7
S31508001110504480F2A480224611A95F4609F0CFF810
S31508001120B8E7726811A862490225FFF725FF044649
S31508001130E8E7B26811A85F490325FFF71DFF0446D3
S31508001140E0E7F26811A85C490425FFF715FF044695
S31508001150D8E7726911A859490525FFF70DFF044616
S31508001160D0E7B26911A856490625FFF71DFF0446C0
S31508001170C8E7544B11A896F82B2007255249FFF7C4
S3150800118021FF0446BEE7514A11A851490825FFF731
S3150800119029FF0446B6E74F4A11A84F490925FFF724
S315080011A021FF0446AEE74D4A11A84D490A25FFF727
S315080011B019FF0446A6E74B4B11A896F829200B25DC
S315080011C04949FFF7FFFE04469CE7F28B11A84749F9
S315080011D00C25FFF7E9FE044694E7328C11A844492A
S315080011E00D25FFF7E1FE04468CE7424B11A896F859
S315080011F02C200E254049FFF7E5FE044682E73F4BC3
S3150800120011A896F82D200F253D49FFF7DBFE044669
S3150800121078E7012111A807F0EFFC1025044671E7CD
S31508001220002111A807F0E8FC041E04BF4FF00008CF
S31508001230112567E7012111A800F07AFF1225044657
S3150800124060E7002111A800F073FF041E04BF4FF0E9
S315080012500008132556E700244FF0010852E7C7F5A2
S31508001260007711A93A46A4EB070B09F028F84FF4C2
S31508001270007101A800F04CF801A800F051F801A887
S3150800128000F04AF811AB5A461E48D91945E700BF7F
S31508001290D8130024369E0290BC220024C89D0290D2
S315080012A0D59D0290DA9D02906A9E0290829E0290D7
S315080012B08D9E0290989E0290A39E0290AF9E0290E9
S315080012C0B89E029000060024C09E0290EA220024DE
S315080012D0C89E0290FA220024D19E02900A23002476
S315080012E0D99E0290DC050024E09E0290E99E0290B9
S315080012F0F19E029094050024FA9E0290700500243F
S31508001300019F0290202300241C23002400000000D3
S315080013105FF800F0FD9202905FF800F0CD9302901E
S315080013205FF800F0859102905FF800F0B1930290A3
S315080013305FF800F0F96B02905FF800F09D9002905C
S30D080013405FF800F0F590029039
S31508001348084BF02283F8232000229A600649074BA7
S31508001358D9634FF0E023064959619A6107221A6151
S31508001368704700BF00ED00E02906000000000000F5
S30908001378FFC3090098
S3150800137C10B40D4B1B24DC604C1E1C610B4C5C61C1
S3150800138C9861BFF34F8F0AE0074B9B6813F0060F63
S3150800139CFAD0054B93F8203002F8013B01390029A5
S315080013ACF2D15DF8044B7047005000520325000536
S315080013BC10B5002407E022464FF480712046FFF74B
S313080013CCD7FF04F58074B4F5803FF4D310BD46
S315080013DC07E0064BDB6913F0400FFAD0034B9A6211
S315080013EC01300278002AF4D1704700BF0010014082
S315080013FC00B583B000230193030903F130028DF87D
S3150800140C0420392A02D957338DF8043000F00F001E
S3150800141C00F130038DF80530392B02D957308DF889
S3150800142C050020238DF8063001A8FFF7D1FF03B07D
S3090800143C5DF804FB4A
S3150800144010B483B00468019401FA03FC019921EAF7
S315080014500C0101919A40019B1A430192019B03607A
S30D0800146003B05DF8044B704768
S3150800146808B50823012211460848FFF7E5FF084B87
S31508001478CA225A6253225A621C2301221146054877
S31508001488FFF7DAFFBFF34F8F08BD00BF00480258C1
S30D0800149800400058E044025828
S315080014A008B51223022203211148FFF7C9FF0423B6
S315080014B007220F210F48FFF7C3FF03231A46072108
S315080014C00D48FFF7BDFF0423012211460B48FFF71D
S315080014D0B7FF0423002201210948FFF7B1FF094B92
S315080014E00022DA624FF40B72DA6009221A6008BD2C
S315080014F0000002582400025854440258F044025886
S30D0800150098440258001001404E
S3150800150808B514232A223F211848FFF795FF082310
S3150800151840F2666240F6FF711548FFF78DFF1423FF
S315080015283F2211461348FFF787FF1C230022032191
S315080015381148FFF781FF0C23042207210F48FFF7FC
S315080015487BFF0F23012211460D48FFF775FF0D4B48
S315080015580D4A9A6001225A604FF480521A600B4A63
S31508001568DA6040F6F8729A6108BD00BF00080258AA
S3150800157824080258080802584C440258504402588D
S31508001588E8440258003C0040070007200000408451
S3150800159820B14FF48032024B9A6170470122FAE76C
S309080015A8000C0258CB
S315080015AC82B00021019140F6633303FB00F0084B2F
S315080015BC83FB0023C017C0EBA312019102E0019B29
S315080015CC01330193019B9342F9DB02B0704700BFCC
S309080015DCD34D62106B
S315080015E010B5054C00231A4601212046FFF728FFAF
S311080015F040F6F873A36110BD003C0040F3
S315080015FCF8B505460C4616460120FFF7C7FF174FE8
S3150800160C7C601123002203211548FFF713FF0023E2
S3150800161C012211463846FFF70DFF09230122114610
S3150800162C3846FFF707FF0AE00C4B5B6913F0020F0D
S3150800163CFAD015F8012B094B83F82020013C002C15
S3150800164CF2D1064B5B6913F0080FFAD016B1FFF707
S3150800165CC1FFF8BD0020FFF799FFF8E7003C0040F2
S3090800166C0C3C0040E4
S31508001670F8B505460C461646144F79601123022222
S3150800168003211348FFF7DCFE0023012211463846E2
S31508001690FFF7D6FE0923012211463846FFF7D0FE8A
S315080016A00AE00A4B5B6913F0010FFAD0074B93F86F
S315080016B0303005F8013B013C002CF2D116B1FFF79A
S315080016C08FFFF8BD0020FFF767FFF8E7003C0040F2
S309080016D00C3C004080
S315080016D410B582B000240194ADF8004066238DF855
S315080016E404302246012101A8FFF786FF99238DF8C5
S315080016F404302246012101A8FFF77EFF1920FFF7CF
S3150800170453FF90238DF80430012204210DEB0100C8
S31508001714FFF772FF224602216846FFF7A7FF16481D
S31508001724FFF75AFE9DF80000FFF766FE9DF80100D4
S31508001734FFF762FE9DF80030C22B0AD0C22B03D1F4
S315080017449DF80130182B0FD00C48FFF745FE02B060
S3150800175410BD9DF80120152AF0D10948FFF73CFE73
S31508001764084B01221A60F2E70748FFF735FE054BD6
S3150800177402221A60EBE700BFB8BB0008ECBB0008FE
S31108001784CCBB0008500D0024DCBB00089C
S3150800179070B40E46039D10491B24CC605C1E0C6178
S315080017A040EA020C0D484CEA0000486112F4406F0A
S315080017B000D08E61BFF34F8F0AE0074A926812F095
S315080017C0060FFAD0044A92F8202005F8012B013BAF
S315080017D0002BF2D170BC7047005000520001000582
S315080017E008B500231A461F211648FFF729FE0023CD
S315080017F01F2211461448FFF723FE14230122032152
S315080018001248FFF71DFE0023012203211048FFF7A7
S3150800181017FE1223022203210E48FFF711FE0423A6
S3150800182000220F210C48FFF70BFE12230322114654
S315080018300A48FFF705FE1D23002207210848FFF77F
S31508001840FFFD08BD88440258E044025800100258BB
S31508001850000C0258000802582408025808080258C2
S3090800186010440258C8
S3150800186438B5344C0E23012211462046FFF7E6FD0F
S3150800187400234FF020124FF030112F48FFF7DEFDFA
S31508001884082309220F212D48FFF7D8FD082309222A
S315080018940F212B48FFF7D2FD00234FF030121146D3
S315080018A42848FFF7CBFD16232A223F212648FFF7AF
S315080018B4C5FD0C2340F6991240F6FF712348FFF73D
S315080018C4BDFD16233F2211462148FFF7B7FD042321
S315080018D4022203211F48FFF7B1FD082309220F211D
S315080018E41D48FFF7ABFD0423032211461B48FFF7E7
S315080018F4A5FD1B4D1C23002203212846FFF79EFD48
S315080019040423032211462846FFF798FD0E230122D5
S3150800191411461448FFF792FD0E23002201212046A2
S31508001924FFF78CFD104B4FF4A8125A600F4A1A6041
S3150800193438BD00BF7C4402580004025820040258EB
S315080019442404025808040258000C0258240C0258AD
S31508001954080C0258001002582010025808100258A1
S315080019644C440258D4440258005000520100000462
S3150800197410B50C4B02221A600A4B1B6813F0020FAF
S31508001984FAD1084B9B6813F0200FFAD1054C0022B4
S315080019942260042303210448FFF750FD034B236008
S315080019A410BD00BF005000524C440258010000010B
S315080019B482B00023019308E0019B01330193019A45
S315080019C440F603239A42F7DD0138002802DD002396
S30D080019D40193F4E702B0704725
S315080019DC10B50E4B1B24DC60104340F48070586124
S315080019EC12F4406F00D09961BFF34F8F0024074B58
S315080019FC9B6813F0200F07D00120FFF7D1FD0134A7
S31508001A0C42F210739C42F2DD10BD00BF005000522A
S31508001A1C30B585B005460024ADF80C402246214663
S31508001A2C6620FFF7D5FF224621469920FFF7D0FFFF
S31508001A3C1920FFF7B5FD03AB009302234FF41052A0
S31508001A4C21469020FFF79EFE0DB905B030BD15480E
S31508001A5CFFF7BEFC9DF80C00FFF7CAFC9DF80D00BD
S31508001A6CFFF7C6FC9DF80C30C22B09D0C22B03D14C
S31508001A7C9DF80D30182B0ED00B48FFF7A9FCE4E7A0
S31508001A8C9DF80D20152AF1D10848FFF7A1FC084B43
S31508001A9C01221A60D9E70748FFF79AFC044B022281
S31508001AAC1A60D2E7F8BB0008ECBB0008CCBB0008F0
S30D08001ABC4C0D0024DCBB0008F8
S31508001AC808B5FFF7CDFC174B1A6DA3F12963A3F5E3
S31508001AD85923A3F647439A4200D008BD114B002262
S31508001AE81A65FFF779FEFFF7D7FCFFF709FDFFF739
S31508001AF8B5FE0D48FFF76EFCFFF7E8FD0120FFF776
S31508001B0889FF0A4B1B6813B1094B1B681BB909489F
S31508001B18FFF760FCFEE7FFF74DFCFFF711FC00F046
S31508001B280BF8FEE7004000580CBC0008500D0024CE
S31508001B384C0D002428BC00085FF800F0BD02000020
S31508001B4810B5144B1B24DC6040F00120586101399C
S31508001B581961BFF34F8F08E00E4B9B6813F0040F0B
S31508001B68FAD012F8011B0B4B19620A4B9B6813F043
S31508001B78020FF1D00024074B9B6813F0200F07D0FB
S31508001B880120FFF70FFD013442F210739C42F2DD83
S30D08001B9810BD00BF0050005209
S31508001BA008B5054B1B22DA60044A5A61BFF34F8F0A
S31508001BB00220FFF7FFFE08BD00500052EB2D180F5C
S31508001BC038B5104C104B114D04F10F001049C4E9FB
S31508001BD00035104BA3600023A381A37308F067FBAD
S31508001BE00D4904F1190008F062FB0C4904F12900BB
S31508001BF008F05DFB0A4904F1390008F058FB094B67
S31508001C001D6038BDE0130024D002A8C000E1F50528
S31508001C10AAA40290E8038306B4A40290BDA4029085
S30D08001C20CCA402900808002478
S31508001C2801380A280AD8DFE800F0060E161E221A16
S31508001C3826313B4512000A68234B1A60224B5A681C
S31508001C48224B1A6070470A781F4B1A73F6E70A88F8
S31508001C581D4B5A81F2E70A881B4B1A81EEE70A6878
S31508001C68194B5A60EAE70A78174B9A73E6E70A782F
S31508001C78154B5A73E2E70A68134BC3F80F204A68EC
S31508001C88C3F813200A89A3F81720D7E7104B01F1E0
S31508001C98100251F8040B914243F8040BF9D1CDE729
S31508001CA80C4B01F1100251F8040B914243F8040B4E
S31508001CB8F9D1C3E7084B01F1280251F8040B914200
S31508001CC843F8040BF9D1B9E7E013002408080024FF
S31108001CD8F9130024091400241914002430
S31508001CE4F7B5284D022204460A262B46114603F068
S31508001CF4F0F8AB1C204604220221102703F0E9F869
S31508001D046B1C20460522022103F0E3F82B1F20460C
S31508001D140322022103F0BEF8AB1E20460B22022141
S31508001D2403F0B8F8A5F1080320460622022103F0B9
S31508001D3492F8A5F10C0320460122022103F08BF840
S31508001D44EB1C204607220221009603F05FF805F1F2
S31508001D540D03204608220221009703F057F805F1DF
S31508001D641D03204609220221009703F04FF8282371
S31508001D74324602210093204605F12D0303F046F866
S30D08001D8403B0F0BDEC130024C6
S31508001D907FB501284FF0000406460D46CDE90244FA
S31508001DA000F388800123029395E0042EFAD192E08D
S31508001DB0524B1B683BB9A4F10803022B03D85048C1
S31508001DC000F0DAF80FE00C2C0DD8DFE804F0071164
S31508001DD02214303E4750575E63686D00494AE968E9
S31508001DE0494802F0EDFA7268484B1A6004B070BDB3
S31508001DF002F0EEFBF7E7338964224548039303AB09
S31508001E00009342F21073E96802F012FB039B3381D8
S31508001E10E9E7738901223F48039303AB00934FF622
S31508001E20FF73E96802F004FB039B7381DBE77368C1
S31508001E303C223948039303AB00934FF44873E9688F
S31508001E4002F022FB039B7360CDE70123334A344833
S31508001E500093344BE96802F04FFBC4E70123324A8A
S31508001E6032480093324BE96802F046FB3EE0012314
S31508001E70304A31480093314BE968ECE71023304A81
S31508001E80E968304802F0B0FBADE70A232E4AE96854
S31508001E902E48F7E710232E4AE9682E48F2E728234A
S31508001EA02D4AE9682D48EDE72D4800F065F800F061
S31508001EB0DBFF98E702AA89682A4803F09DFD0128F6
S31508001EC0044602D00C2C7FF470AF032E7FF46AAF61
S31508001ED0012C18BF0C24029B0A4E002B3FF468AF56
S31508001EE0214800F049F8062C7FF47DAF00231F4AED
S31508001EF01F4813601F4A136062E700BFD813002407
S31508001F0034A50290E01300245DA502900808002479
S31508001F1079A502909BA50290BDA50290EE13002418
S31508001F20D9A5029090000024ED130024E6A502909E
S31508001F3060000024EC130024FAA502903C0000245B
S31508001F40091400241BA60290EF1300242AA6029067
S31508001F50F913002442A602901914002452A60290EE
S31508001F6064A60290B4000024DEA40290542500243E
S31508001F707EA60290502500245FF800F0F96B0290C7
S31508001F8073B53E4C0C263E4D3E48D4E9001200F08F
S31508001F90A7F829683C4801F05BFF2B7B3B4A734353
S31508001FA0D018D0E901018DE803003948D358D4E99F
S31508001FB0121200F095F83748D4E9031200F090F8A9
S31508001FC0354B186800F088F801462F4801F040FFA5
S31508001FD06B893248D4E9211200F082F82B893048FF
S31508001FE0D4E9061200F07CF86A682E492E48B2FB3E
S31508001FF0F1F301FB13220092D4E9091200F070F8FC
S31508002000AB7B2A4A7343D018D0E901018DE8030057
S315080020102748D358D4E90C1200F062F86B7B254A9E
S315080020207343D018D0E901018DE803002248D3583C
S31508002030D4E90F1200F054F8204B1B68A3B105F140
S3150800204029031F48D4E91B1200F04AF805F11903C1
S315080020501C48D4E9181200F043F805F10F031A4892
S31508002060D4E9151200F03CF8184B1948D4E91E12A9
S3150800207002B0BDE8704000F033B800BFB4000024D9
S31508002080E013002495A602904FFE02903C0000241F
S31508002090C4A60290F7A60290C81A002426A70290A2
S315080020A059A7029040420F008CA702909000002486
S315080020B0C5A7029060000024F8A70290D813002450
S315080020C02BA802905EA8029091A8029019140024E9
S315080020D0C4A80290000000005FF800F06B4E019063
S30D080020E05FF800F0F96B0290AD
S315080020E8002307B5014601AA0848019303F080FCB6
S315080020F8019B3BB9064B53F8200000F011F803B0D2
S315080021085DF804FB034800F007F8F8E7B400002474
S3150800211864380390F7A802905FF800F0F96B02900C
S30D080021285FF800F0696C0290F3
S3150800213010B52C4C69B1002323602B4A2B4B127B1C
S315080021402B49FEF73FFF0146236808460133236003
S3150800215010BD23680A2BF7D801A252F823F000BF56
S315080021603B2100088D21000897210008A1210008BD
S31508002170AD210008B5210008BD210008C9210008C5
S31508002180D3210008D9210008DF210008164A194B77
S31508002190927B1949D5E7144A184B527B1849D0E760
S315080021A0114B18491A89FEF7FFFECCE70E4B164964
S315080021B05A89F8E70C4B15495A68F4E70A4B14494B
S315080021C01A68FEF7D9FEBEE7124A1349FEF70AFF58
S315080021D0B9E7124A1249F9E7124A1349F6E7134AC8
S315080021E01349F3E7DC130024E01300243C00002421
S315080021F041A90290900000244DA902906000002495
S315080022005EA9029070A9029080A902908AA90290FC
S3150800221095A90290EF130024A3A90290F9130024AC
S31508002220B2A9029009140024C0A902901914002426
S30908002230CDA9029094
S315080022382DE9F04F002391B09E4C4620099300F0F3
S315080022482BFA2368FBB101229B4EDFF8DC829B4BF5
S315080022581146F07903F04CFD98F80C30BBB1984D4F
S3150800226808F13904974F2946204600F001FA98B133
S3150800227801223B46F079114603F03AFD4FF47A708D
S3150800228800F00AFAEFE70A2000F006FAD9E7D8F8C4
S3150800229800308B4A1BBA1360894C20208A4B226867
S315080022A8DFF888A21A600022114600F009FA874B5F
S315080022B801220221CAF800000090F07903F018FDFF
S315080022C8B8F80A202146DAF8000000F0E9F9DAF841
S315080022D80030012202210093F0797D4B03F008FDB6
S315080022E87C4B01221A6009A9DAF8000000F0C4F943
S315080022F878B9099B1A68B2F80890A9F118039BB22D
S31508002308C92B05930AD909980028ECD000F0DCF9FE
S31508002318E9E70021102002F09BFCF4E76E4B1B68E6
S31508002328002BF0D157680AAC6C4A136007F11802FB
S315080023383B460792186822465968083303C214466A
S31508002348079A9342F6D10A9800F09EF90A9004462D
S315080023580B9800F099F90B900546BDF83E0000F079
S31508002368B7F9BB685E4A5F491360FB680690536015
S315080023783B8AADF83E00A1F11A00138100F030FA45
S3150800238800F082F9D7F81230DFF8A4B1D3B9DBF830
S315080023980030012B05D0544B0122F079114603F081
S315080023A8A7FC0123CBF80030069ADFF888B1052A7E
S315080023B800F24481DFE812F03500C400FB00010191
S315080023C8420134019842DBF8002026D198F80D30EE
S315080023D8DBB9464B1B789806E6D5444B1B7813F0B1
S315080023E810030CBF022103218A42CBF80010DBD068
S315080023F83F49404AF079002B18BF0A463E4B0092DF
S315080024080122114603F074FCCEE7013B012BCBD819
S31508002418364B1B789B06C7D4DFE7012AC1D0374B52
S31508002428BAE7DBF80030B9F1190F03F10103CBF865
S31508002438003040F00381324B0022DFF8FC901A6026
S31508002448304BDFF8F8B01978C9F800400229CBF8FC
S3150800245800500AD12C492D4800F012F92C490022BF
S31508002468284B0C602B491A700D60DBF800202A4BA4
S315080024782A4913441D4C8B4289BF294BCBF8003097
S315080024889B18CBF8003082BFD9F800300133C9F859
S3150800249800303B7E237000F007F9237801220321D8
S315080024A8F0790193D9F8003000931E4B03F020FC0D
S315080024B829E700BF301B0024AC2200249EAF0290F7
S315080024C8C41A0024B2AF0290C81A0024DFAF0290DB
S315080024D801B00290F8160024EC160024F016002421
S315080024E8E01600240914002427B00290D816002400
S315080024F892AF029098AF02904AB0029067B00290E5
S31508002508CC1600240C1700240417002408170024E6
S3150800251800170024FC160024002D3101FFC99A3B38
S31508002528006396C593B00290E0130024F4160024BD
S31508002538DC16002410170024D4160024D01600240C
S3150800254800F04AFEDBF80430B9F1B90F03F10103CC
S31508002558CBF8043072D13C4907F1190000F0ACF801
S315080025683A4B2246384819782B4681F02001C1F3A0
S31508002578401100F09DF8364B197803297FF4C3AE4D
S31508002588DFF8E890334FD9F800303348E21A3B6849
S315080025980094EB1A00FB02330122F079CDE90153C6
S315080025A82E4B03F0A5FBC9F800403D60ABE6DBF807
S315080025B808300133CBF80830A5E600F00DFEDBF845
S315080025C80C30B9F1BC0F03F10103CBF80C3035D147
S315080025D807F119001D4F1C4900F05AF839782B469F
S315080025E8224681F020011848C1F3401100F060F82E
S315080025F898F80D30002B3FF486AE194B164A2B4433
S3150800260839781848934281F0200184BF0134164B63
S31508002618C1F3401188BF5B19224600F049F872E6F3
S31508002628DBF81430B9F1E10F03F10103CBF81430E4
S3150800263804D00599079800F093F964E6DBF8183092
S315080026480133CBF818305EE64C140024D81600245B
S31508002658A42200244414002400CA9A3BCFB002904E
S31508002668002D31018C150024006396C548140024F2
S315080026785FF800F07D3801905FF800F0D9370190CF
S315080026885FF800F0697A02905FF800F06B4E0190E7
S315080026985FF800F0591F00005FF800F04D0501903B
S315080026A85FF800F0953301905FF800F08D09000097
S315080026B85FF800F0990D00005FF800F0291E000089
S315080026C85FF800F0593201905FF800F01D4B019051
S30D080026D85FF800F0654E019061
S315080026E0034B187801280ABF022200201A70704787
S309080026F00C17002491
S315080026F8194B13B55C7B012C0BD0022C22D034B9AC
S31508002708164B186800F038F8154BC3E9000402B0F0
S3150800271810BD01A9684600F02BF8019B114AA3F5DC
S31508002728FA630F4C934289BF009B019303F1FF3369
S315080027380093009800F020F82060019800F01CF833
S315080027486060E4E7054B064C186800F015F8064B78
S3150800275820601868F2E700BFE0130024D4160024A6
S31508002768741A002400CA9A3BD016002400000000F8
S315080027785FF800F0697A02905FF800F06B4E0190F6
S31508002788F8B50F4610490968E1B1104E0C25DFF86F
S3150800279844C031684D430CEB05044CF80500227219
S315080027A8002263720A4B62811868676000F014F8A1
S315080027B8336801335A4203F0030302F0030258BF91
S315080027C853423360F8BD00BFF8160024E01700240A
S315080027D8D4630024901A00245FF800F06B07019070
S315080027E870B50546094E0C46FDF788FD294602468A
S315080027F8304600F00DF82046FDF780FD21460246D2
S31508002808304600F009F8C04370BD00BFB86F002411
S315080028185FF800F005EB01905FF800F0C5EA019053
S315080028282DE9F041234E074600F108030D46D6F870
S315080028380F00D6F8131003C3B6F8172006F11901C6
S315080028481D481A80FFF7CCFF00F052F81B4BC7F853
S315080028581200D3F80080B8F1000F28D100F03CF830
S31508002868044620B90146BDE8F04102F0F1B9ADB217
S31508002878294600F039F82A463946206800F030F823
S31508002888054640B14146022002F0E2F92046BDE875
S31508002898F04100F01DB80A4821467389094A0068BC
S315080028A800F012F80028F1D029460320ECE7BDE825
S315080028B8F08100BFE0130024E0160024EC1600247B
S315080028C8F4160024C41A00245FF800F0593401905D
S315080028D85FF800F01D4B01905FF800F0054B01907A
S315080028E85FF800F03D6801905FF800F0414B0190F1
S30D080028F85FF800F06B4E019039
S3150800290037B5FFF7F9FE002000F02AF80F4C104DF6
S315080029102023E0820221237601226B7B0D48002BBF
S3150800292014BF1823192300930B4BC07903F0E4F95D
S315080029306B7B2046002B14BF18211921FFF774FF63
S31508002940064A13680133136003B030BD741A0024B5
S31508002950E0130024AC220024F9B00290CC1A00241B
S30D080029605FF800F0654E0190D6
S315080029680E4B70B50E4C064618680D4600F020F852
S31508002978002320600520636000F016F82A463146D1
S31508002988E08204F1180007F096FC29462046FFF76E
S3150800299847FF044A53690133536170BDD4160024AE
S315080029A8E8170024CC1A00245FF800F0654E019059
S30D080029B85FF800F06B4E019078
S315080029C0F0B50C461F4E85B01746054600F054F87C
S315080029D03060204600F050F87060012000F050F892
S315080029E0A022F08206F119001749377607F067FC2E
S315080029F0164B1B78022B14D1154E164F3368164901
S31508002A00EA1A3B681548E31A009501FB02330122CE
S31508002A100321CDE90143124BC07903F06DF9356006
S31508002A203C60104B1B781B0702D4062000F020F8E8
S31508002A30B9210448FFF7F8FE0B4A5368013353607F
S31508002A4005B0F0BDB81900243C170024A4220024C0
S31508002A50301700242C17002400CA9A3BAC22002405
S31508002A6019B10290D8160024CC1A002400000000E0
S31508002A705FF800F04D0501905FF800F06B4E01908D
S30D08002A805FF800F0654E0190B5
S31508002A882DE980489A4C8BB02368002B00F0928079
S31508002A98DFF8D4B20122974B11469BF8070003F0DA
S31508002AA827F9954C4FF0FF32216803A800F0C4F9BE
S31508002AB8DDE90323102AF5D10C229049DFF8AC8208
S31508002AC853438F4DCA1851F803A08E495368577A4D
S31508002AD80093137A8C4A0193D8F800300133C8F862
S31508002AE800302B689A188A4268D82A60874B884A21
S31508002AF8196839B1002119600121864B19604FF40C
S31508002B08FA7313601368002B04DD013B13600BB9D5
S31508002B18804A1360804C236801332360FFF7DCFD85
S31508002B2808B1FFF7E9FE7D491422DFF844920968DF
S31508002B38B9F808300129B3FBF2F322684AD8934258
S31508002B4803DA00232360FFF7D7FEBAF1000FA8D0EF
S31508002B58724B1B68023B012BA3D8714C21788A0655
S31508002B6803D4704B1B68002B9BD001F00203019A13
S31508002B781A4396D011F0100650466B4940F0FA8071
S31508002B8800F052F9B922314668480296069606F0C8
S31508002B9807FD99F80D30012B00F09680022B00F0FE
S31508002BA8A380002B7FF47DAF3A46D8F80010604B17
S31508002BB8186896E00A2000F04BF965E703F14543E3
S31508002BC85B4A03F5160303F5C6432B6013680133FE
S31508002BD813608BE7934248DA0021102206A8216081
S31508002BE806F0DEFCFFF784FD022000F029F9514CB7
S31508002BF899F80D30E082002B64D0012B48D14E4B52
S31508002C081B68002B5ED04D4E04F118004C4996F807
S31508002C182130721C06F0F6FB96F8223006F11102EE
S31508002C28484904F1210006F0EDFBB28C464906A88E
S31508002C3806F0E8FB0698BDF81C209DF81E30C4F877
S31508002C482B00A4F82F2084F831303224344B1B7813
S31508002C58190702D4062000F0FBF821463548FFF785
S31508002C68DFFD3A4A936801339360394C2368013388
S31508002C78FA2B23607FF769AF0026284B01229BF8B9
S31508002C8807001E601146334B03F032F826605CE7EE
S31508002C98314B183403F110061868083353F8041C26
S31508002CA82246B34203C21446F6D11A889B78228074
S31508002CB82A4AA37011682A4B1960918892799980D3
S31508002CC89A71C2E71824C1E706AA02A9009800F073
S31508002CD8A7F8244A06A902A800F0BEF83A460699B3
S31508002CE80298FFF769FEDCE63A4629685FE700BFFF
S31508002CF8F816002443B10290D4630024901A0024DD
S31508002D08D0160024FFC99A3B002D3101E417002488
S31508002D1838170024EC16002434170024DC1600247F
S31508002D28D8160024502500243C170024B819002476
S31508002D38D41600248419002454250024761B00245C
S31508002D4858B1029060B1029068B10290CC1A00247A
S31508002D58F016002470B1029098380390AB380390A7
S31508002D68AF19002400D3CEFEAC220024CC160024CA
S31508002D78E013002400F068F800283FF492AE214ECC
S31508002D880021BC2230460291069106F009FC99F802
S31508002D980D30012B25D0022B2DD04BB91A4B1868AC
S31508002DA800F03AF83060D8F8000000F035F870609E
S31508002DB8032000F045F8A322F08214491448377610
S31508002DC807F079FA23781B0702D4062000F040F8A2
S31508002DD8BC210C48FFF724FD0E4AD3680133D3609B
S31508002DE85FE606A902A800F023F8029800F014F88E
S31508002DF830600698D9E7044B186800F00DF830607B
S31508002E082868D2E7C8180024D41600243C170024DA
S31508002E18E1180024CC1A00245FF800F06B4E0190E4
S31508002E285FF800F0157A02905FF800F0CD1D0000F3
S31508002E385FF800F0697A02905FF800F0BD07019024
S31508002E485FF800F0654E01905FF800F0491E000033
S31508002E585FF800F04D0501905FF800F07D7A029062
S31108002E68014B01221A607047E417002491
S31508002E780A4608B509280AD8DFE800F03B053E09DE
S31508002E88092B2E0932384FF400511D482AE0072825
S31508002E9835D1032933D8DFE801F0020A181A0022C7
S31508002EA84FF48051164800F033F8002206E0012254
S31508002EB84FF48051124800F02BF801224FF40061B4
S31508002EC80F48BDE8084000F023B80022F0E70122C1
S31508002ED8E6E74FF48061D8E74FF48041094801E0F6
S31508002EE840210948002AECD00122EAE74FF40041BC
S31508002EF8F4E74FF40041C8E74FF48041C5E708BD39
S31508002F0800100258000C0258000802580000000079
S30D08002F185FF800F0590F029062
S31508002F2008B500210620FFF7A7FF00210720FFF7B5
S31508002F30A3FF00210920FFF79FFF00210820FFF7C4
S31508002F409BFF01210520FFF797FF642000F044F856
S31508002F5000210520FFF790FF01210620FFF78CFFCF
S31508002F60642000F039F800210620FFF785FF0121CB
S31508002F700720FFF781FF642000F02EF802210720C2
S31508002F80FFF77AFF642000F027F803210720FFF7F0
S31508002F9073FF642000F020F800210720FFF76CFF7C
S31508002FA001210820FFF768FF642000F015F80021CA
S31508002FB00820FFF761FF01210920FFF75DFF642064
S31508002FC000F00AF809200021FFF756FF6420BDE843
S31508002FD0084000F001B800005FF800F04D050190C8
S31508002FE0B0FA80F210210248520900F005B800BF75
S31508002FF000100258000000005FF800F0590F029018
S31508003000021E4FF04001024818BF012200F004B822
S31508003010000C0258000000005FF800F0590F0290FB
S315080030202021024808B500F003F808BD000C025834
S30D080030305FF800F04D0F029055
S315080030388021024808B500F003F808BD00080258C0
S30D080030485FF800F04D0F02903D
S315080030508021024808B500F003F808BD000C0258A4
S30D080030605FF800F04D0F029025
S315080030684FF48071024808B500F006F808BD00BF9D
S3150800307800080258000000005FF800F04D0F0290A3
S315080030882021044808B500F007F8B0FA80F040098E
S3150800309808BD00BF000402585FF800F04D0F029003
S315080030A830B58FB00D4604463422002101A806F033
S315080030B877FA32232A2101A85C43B4FBF5F49C422B
S315080030C8A8BF1C46224606F06BFA04F1380301A984
S315080030D804480DEB03040A2304F8343C00F004F80A
S315080030E80FB030BD2CB302905FF800F0F96B029070
S315080030F8002302282DE9F34101930DD101AA496855
S31508003108294802F075FC019D4DB1284800F060F881
S31508003118002002B0BDE8F08101230193F5E70138E4
S315080031280328F5D8DFE800F00206090F204B01222C
S315080031381A60EDE71E4B0022FAE7322200211D48E5
S3150800314806F02EFAE4E71B4E00233246374632F8D5
S31508003158021B01338D42B8BF0D46192BF7D1164805
S31508003168002400F035F8DFF86080144800F030F8DD
S31508003178134800F02DF83388E21C214640460434EB
S3150800318800F026F8294636F8020BFFF789FF602C67
S31508003198F1D121463A8E0B4800F01AF82946388E9E
S315080031A8FFF77EFFB4E700BF8C0100242FB3029017
S315080031B8E01B0024E41B00244DB302906CB3029074
S315080031C8DAB302908EB3029081B302900000000031
S30D080031D85FF800F0F96B0290A4
S315080031E00F4B10491B6870B50F4C586A2368A3B17A
S315080031F00B684CF24F360D4AC31A0D4D934296BFD3
S315080032000C4A1823B3FBF2F335F81320B24295BFE4
S315080032100132002325F813202360086070BD00BF23
S31508003220646B0024A41B0024E01B0024FF083D0057
S30D08003230E41B002400710200F2
S31508003238002302282DE9F34101930DD101AA496813
S315080032482A4802F0D5FB019D4DB1294800F060F8DF
S31508003258002002B0BDE8F08101230193F5E70138A3
S315080032680328F5D8DFE800F00206090F214B0122EA
S315080032781A60EDE71F4B0022FAE7322200211E48A2
S3150800328806F08EF9E4E71C4E00233246374632F834
S31508003298021B01338D42B8BF0D46192BF7D11748C3
S315080032A8002400F035F8DFF86480154800F030F897
S315080032B8144800F02DF8338804F1270221464046C1
S315080032C8283400F025F8294636F8020BFFF7E8FEF9
S315080032D8B4F5707FEFD121463A8E0B4800F018F8FE
S315080032E82946388EFFF7DCFEB2E700BF8C010024BA
S315080032F82FB30290A81B0024AC1B00249BB3029092
S31508003308C1B30290D8B3029029B402901CB40290B3
S30D080033185FF800F0F96B029062
S31508003320002313B5044601A96846CDE9003300F029
S3150800333033F813490B680BB3009B124803F00302DA
S31508003340019B00FB0233104A934234BF0020012040
S3150800335002FB10330D4A181B0D4B4CF24F349842A2
S3150800336096BF0C4B1820B0FBF3F032F81030A3428E
S3150800337095BF0133002322F810300B6002B010BD50
S31508003380A81B002400CA9A3B00286BEEAC1B00243D
S31508003390FFC99A3B005A62025FF800F0697A029008
S311080033A04FF480324FF0104106F089BF50
S30B080033AC0020FFF7F7BF41
S315080033B4034BD3F823200260B3F827308380704781
S309080033C4BC220024F5
S315080033C808B50120FFF708FE0A2000F009F80020D2
S315080033D8FFF702FE0A20BDE8084000F001B8000021
S30D080033E85FF800F06DDA0190B0
S307080033F0704716
S315080033F8002373B5036006460B600D461360144632
S3150800340801931E2201AB0121134800F029F880B95F
S31508003418019BC3F3002203F00703013B3260052B27
S3150800342816D8DFE803F0030D1515081200232B60DC
S31508003438236002B070BD4FF400532B600023F7E7F2
S3150800344800232B604FF48043F2E74FF40053F8E764
S3150800345800233360EDE700BF58740024000000001D
S30D080034685FF800F09B070290D3
S31508003470F0B59FB004460D466422002105A806F063
S3150800348093F803AA04A902A8FFF7B6FF94F8313007
S31508003490029EC3F3800355EA03020ED056B91C48B0
S315080034A000F056F8204600F04BF8204600F04CF89D
S315080034B01FB0F0BD0DB9002BFAD1012EF8D105A920
S315080034C0134800F035F8049D039F05A910480B958D
S315080034D00A9700F049F80E4800F02EF8204600F04A
S315080034E03BF8204600F03CF80A4A0B4B0B49002FE4
S315080034F008BF13460A4A0B48002D08BF0A4631463C
S31508003500CDE90032084B3246007902F0F5FBCFE7E9
S315080035105874002429B602902DB6029032B602904D
S3150800352036B60290AC2200243AB60290000000009B
S315080035305FF800F0F50702905FF800F0AB03029021
S315080035405FF800F0B56001905FF800F051610190F6
S315080035505FF800F02F0402905FF800F06D600190AC
S315080035605FF800F0096101905FF800F081090290A8
S3150800357008B5024800F004F8002008BDBAB6029063
S30D080035805FF800F0F96B0290F8
S3070800358870477C
S3150800359037B50446104DFFF777FDA8B900F028F8AF
S315080035A00E4B1B8801930E4B009301220D4B0321F2
S315080035B0687B02F0FDFB0123084A20460A4903B04E
S315080035C0BDE8304000F018B800F012F8064B1B882A
S315080035D00193064BE8E700BFAC220024341C002404
S315080035E0DEB6029001000002361C002408B70290DD
S315080035F05FF800F061DA01905FF800F0194C02906C
S315080036000A4B1A68012A04D0022A09D03AB10022C4
S3150800361004E0074A4FF08071916102221A607047F0
S31508003620034A4FF480719161F1E700BF301C002412
S30908003630000002582E
S31508003634402307B58DF80730FEF7D0F8FEF710F9E2
S315080036440020FEF7E9F9002206201146FEF7C4F920
S3150800365401210DF107020846FEF774FA3220FEF737
S31108003664A7F9FEF79BFA03B05DF804FB1B
S3150800367008B572B6FEF77EF9FEF792FA62B608BD8D
S31508003680024B00221B681A65704700BFB06D002404
S315080036900028034A034B126808BF002313657047C6
S30D080036A0B06D0024B9A3624DC8
S315080036A8F0B589B0002307460D466A464968674853
S315080036B8009302F09DF9009C06462CB1644800F078
S315080036C8E3F8002009B0F0BD022861D0032800F00D
S315080036D898800128F5D11422214603A8019405F0FB
S315080036E85FFF082F029401D05A48E8E702AB632225
S315080036F82146A86802F0A0F902AB0C2231468DF8DB
S315080037080700E86802F098F902AB1F2231468DF8DF
S315080037180500286902F090F90723172221468DF833
S3150800372806008DF8043002AB686902F085F902AB29
S315080037383B2221468DF80C00A86902F07DF93B2248
S315080037488DF80D0002AB2146E86902F075F9029A70
S315080037588DF80E0004948DF80F40CDE906440AB199
S315080037683D48ACE701A93D4800F09AF810B1029B1C
S3150800377801330293002203A9384800F089F810B1EA
S31508003788029B01330293029B002BE9D1344896E742
S315080037981422214603A8029405F002FF314B1B6840
S315080037A80BB931488BE7314B02A92C4893F82620E8
S315080037B88DF80B2093F827208DF8092093F82820F0
S315080037C88DF80A2007228DF8082093F829208DF805
S315080037D80C2093F82A2093F82B308DF80D202246D2
S315080037E88DF80E3000F05CF80546224603A91B48FA
S315080037F800F04EF80543EDB20DB11D485FE71D48C8
S315080038085DE72146142203A8029405F0C9FE22465C
S3150800381803A9124800F040F8224602A90F4800F00A
S315080038282FF89DF80B309DF80A209DF8091003F526
S31508003838FA63114800F028F89DF80E309DF80D2017
S315080038489DF80C100D4800F01FF83AE71C020024F2
S315080038580DB8029033B8029051B80290B06D0024A2
S3150800386880B80290542500248FB80290761B00244D
S31508003878B2B80290D0B80290EBB80290FBB80290A2
S315080038885FF800F00D4402905FF800F0F96B0290BB
S315080038985FF800F05B4202905FF800F0C7430290B9
S30D080038A85FF800F01F430290CF
S315080038B038B54FF48033064D14468AB2AB610146DB
S315080038C00A23044800F008F80CB90123AB6138BD97
S315080038D0000C0258A06C00245FF800F0854702909F
S315080038E073B5002301250F4E0F4C01938DF8033055
S315080038F00122052301A811468DF80430FFF7D8FFE9
S315080039000A2301220DF10301304600F015F80120C3
S31508003910A56100F00DF89DF80330DB07E8D402B086
S3150800392070BD00BFA06C0024000C02580000000007
S315080039305FF800F04D0501905FF800F0B949029074
S3150800394030B5002485B066230121224603A80394D6
S31508003950ADF808408DF80C30FFF7AAFF99232246E8
S31508003960012103A88DF80C30FFF7A2FF01200124DE
S3150800397000F052F890230122042103A88DF80C3098
S31508003980FFF796FF0A23022202A91B4800F048F80F
S315080039901A4B1B4D22469C6103219DF80930019361
S315080039A09DF808300093174B287B02F0A5F99DF87F
S315080039B00830C22B18D19DF80930287B152B08D161
S315080039C0114B2246022102F097F9104B1C6005B0F4
S315080039D030BD182B08D10E4B2246022102F08CF975
S315080039E00A4B02221A60F2E701220A4B287B11468B
S315080039F002F082F9EBE700BFA06C0024000C025825
S31508003A00AC220024CEB90290F2B902904C200024D0
S31508003A100CBA029027BA02905FF800F06DDA0190AE
S30D08003A205FF800F0B9490290B5
S31508003A28F0B5274F85B00026054600910122254B9B
S31508003A380C46387B032102968DF80C6002F058F97B
S31508003A4806233246012102A88DF80830FFF72CFF15
S31508003A5875BB1D48C4F30743C4F30721E2B20068DF
S31508003A68012816D1202264BA04218DF809308DF868
S31508003A7808202A46ADF80A4002A8FFF715FFFFF7FF
S31508003A882BFF124B01220321387B02F031F905B0CE
S31508003A98F0BD2120E40D8DF80B1005218DF80C20BA
S31508003AA82A468DF808008DF809408DF80A30E3E7AC
S31508003AB8012DE4D16023324629468DF80830DBE724
S31508003AC8AC2200244CBA02904C20002463BA029017
S31508003AD87FB5002306462248154602930C468DF8FC
S31508003AE80C30204BCDE9001201220321007B02F09D
S31508003AF8FFF8B5F5803F00D3FEE71B4AC4F3074332
S31508003B08C4F30720E1B21268012A1AD1032164BA5C
S31508003B188DF809308DF808100421ADF80A4002A876
S31508003B28124CFFF7C1FE3146AAB2104800F028F831
S31508003B38204600F021F80128FAD10D4B986104B007
S31508003B4870BD1322240E8DF80C1005218DF8082057
S31508003B5801228DF809408DF80A308DF80B00DEE74A
S31508003B68AC22002477BA02904C200024A06C0024CA
S31508003B78000C0258000000005FF800F0C5520290D9
S30D08003B885FF800F0914E02906F
S31508003B902DE9F04FDFF8E09085B04FF00008DFF828
S31508003BA0DCA0DFF8DCB007460C4616462F4BCDE9FD
S31508003BB000120122032199F80C0002F09DF8B04585
S31508003BC009D32B4B0122032199F80C0005B0BDE857
S31508003BD0F04F02F091B824F0FF05A6EB0803002287
S31508003BE001212D1B02A8029205F580758DF80C207F
S31508003BF09D4228BF1D4606238DF80830FFF758FE5C
S31508003C001C4AC4F30743C4F30720E1B21268012A29
S31508003C101DD102218DF8093063BA8DF808100421E8
S31508003C20ADF80A3002A8FFF743FE3946AAB2504655
S31508003C3000F02EF8504600F027F80128FAD1CBF804
S31508003C4018002C44A8442F44FFF74AFEB7E712226F
S31508003C508DF80C108DF80A3005218DF80820220EF3
S31508003C608DF80B008DF809200122DBE795BA029042
S31508003C70B3BA02904C200024AC220024A06C002485
S31508003C80000C0258000000005FF800F0C5520290D0
S30D08003C905FF800F02D4D0290CB
S31508003C98F0B5074685B0124800260C461546114B5E
S31508003CA80396CDE9001201220321007B02F020F8D1
S31508003CB8B123324603A801218DF80C30FFF7F4FD2D
S31508003CC82A4621463846FFF703FFC1233246012113
S31508003CD803A88DF80C30FFF7E7FD05B0F0BD00BF67
S30D08003CE8AC220024C7BA0290C1
S31508003CF0F7B50024B12305460E46174601A8224605
S31508003D00012101948DF80430FFF7D2FD3A46314679
S31508003D102846FFF73DFFC1232246012101A88DF859
S30F08003D200430FFF7C5FD03B0F0BD3F
S31508003D302DE9FF41324D0026324B01220321287B13
S31508003D408DF80E604FF02B088DF80F6001F0D4FF48
S31508003D50012201240DF10E002B4F11468DF80E801D
S31508003D60FFF7A6FD0DF10F010A230122274800F0EF
S31508003D7057F8BC619DF80F30224603210093244B67
S31508003D80287B01F0B9FF0623324621460DF10E00C5
S31508003D908DF80E30FFF78CFD2F23324621460DF1A4
S31508003DA00E008DF80E30FFF783FD052000F03CF875
S31508003DB0224621460DF10E008DF80E80FFF778FD9C
S31508003DC022460DF10F010A23104800F029F8BC61BC
S31508003DD09DF80F302246032100930E4B287B01F0F5
S31508003DE08BFF9DF80F302246032113F0020F287B24
S31508003DF014BF094B094B01F07FFF04B0BDE8F08101
S31508003E00AC220024E8BA0290000C0258A06C0024E8
S31508003E10FFBA029023BB029046BB029059BB0290A0
S31508003E205FF800F0B94902905FF800F04D0501907F
S31508003E3001EB410152F821200146014800F004B87F
S31508003E403BF70290000000005FF800F0F96B029063
S31508003E50CBB207B50193C1F307230A0E0093C1F34A
S31508003E6007430146024800F007F803B05DF804FB73
S31508003E706BBE0290000000005FF800F0F96B02903C
S31508003E802DE9F04F89B00023496807AA8F480793A0
S31508003E9001F0B2FD079B33B18D4800F08DFA002082
S31508003EA009B0BDE8F08F1B28DFF88C9218BF0546CD
S31508003EB000F1010006BF1B23012503460593059B58
S31508003EC09D42ECDAD9F800604EB9A5F10803012B3A
S31508003ED005D835467F4800F06FFA0135EFE76B1EC7
S31508003EE0192BFAD8DFE813F01A002000240028005E
S31508003EF03D00410047004F00530059002C0177014F
S31508003F00300064016A016F01730179017F0156006F
S31508003F10850193012C003A003700E7016E4B6F4884
S31508003F201968FFF795FFD8E76B4B6D485968F8E7AE
S31508003F30694B6C489968F4E7674B6B48D968F0E7B2
S31508003F40654B6A485969ECE7634B69499A69694858
S31508003F5000F032FAC1E704F0A7FDBEE7FEF710F855
S31508003F60BBE75D4B64491A69F1E75B4B6348998B7C
S31508003F701A7F090AECE7584B614A93F829106148F9
S31508003F80FFF756FFA9E7604A60496148E0E7614ADA
S31508003F906149FAE7614A6249F7E7DFF8A0A14FF0FD
S31508003FA00C08604F9AF800305F4E08FB03F35F4831
S31508003FB03168FA5800F000FA9AF80130F16808FBFF
S31508003FC003F35A48FA5800F0F7F99AF80230B1693B
S31508003FD008FB03F35548FA5800F0EEF99AF803304F
S31508003FE0716A08FB03F35148FA5800F0E5F99AF8A4
S31508003FF00430316B08FB03F34C48FA5800F0DCF93F
S315080040009AF80530F16B08FB03F34848FA5800F0B4
S31508004010D3F99AF80630B16C08FB03F34348FA580B
S3150800402000F0CAF99AF80730716D08FB03F33F48A8
S31508004030FA5800F0C1F99AF80830316E08FB03F314
S315080040403A48FA5800F0B8F99AF80930F16E08FBC0
S3150800405003F33648FA5800F0AFF99AF80A30B16F08
S3150800406008FB03F33148FA5800F0A6F99AF80B3022
S31508004070D6F8841008FB03F32C48FA5800F09CF98C
S315080040809AF80C30D6F8901008FB03F32748FA582C
S3150800409000F092F99AF80D30D6F89C1008FB03F355
S315080040A02248FA5800F088F99AF80E30D6F8A8107F
S315080040B008FB03F31D48FA5800F07EF91C4800F087
S315080040C07BF91C4800F078F907E700BF0C040024C8
S315080040D07BBE029034A50290BC220024A7BE0290A3
S315080040E0BABE0290C9BE0290DCBE0290E8BE02903B
S315080040F0FEBE029016BF02901DBF029033BF02900B
S31508004100DC05002457BF0290EA22002473BF029000
S315080041103BF70290FA22002489BF02900A23002462
S315080041209EBF0290100300244C030024B5BF0290E2
S31508004130BEBF0290F0BF0290D8130024AC22002420
S315080041406F4800F039F96F4800F036F96E4800F00C
S3150800415033F96E4800F030F96D4800F02DF96D48D6
S3150800416000F02AF9674800F027F96B4800F024F9AF
S315080041706A4800F021F96A4800F01EF9694800F01B
S315080041801BF9694800F018F9684800F015F96848FD
S3150800419000F012F9674800F00FF95A4800F00CF9D8
S315080041A0654800F009F9654800F006F9554889E7B9
S315080041B0634B644A93F82B106348E1E6634B644A01
S315080041C019786448DCE65E4B6349DA8BBFE65C4BDC
S315080041D062491A8CBBE6624874E7594B614A93F800
S315080041E02C106148CCE6564B604A93F82D1060486F
S315080041F0C6E6604F0026DFF8A8813146013617F873
S31508004200012B404600F0D8F8082EF6D165E600F0F6
S31508004210CFF84FF47A720646DFF888A1DFF888816E
S31508004220B0FBF2F102FB1102534800F0C5F8002278
S315080042301746DAF80030A3EB070B0BF11F0BDBF17F
S3150800424000030BF01F0B03F01F0358BFC3F1000B4D
S315080042500C2303FB0B835B682BB32AB9474800F092
S31508004260ABF8474800F0A8F80C234FF47A7203FB22
S315080042700BFB58F80BC008EB0B0EA6EB0C00DEF890
S3150800428008B0B0FBF2F3BCFBF2F102FB130002FB31
S3150800429011C2CDE902BBDEF804400090019439480A
S315080042A000F08AF801220137202FC2D10AB9364810
S315080042B008E7364806E74FF0000B354E0627DFF8C5
S315080042C0DCA0D84616F8012B72B10BF1010B41465A
S315080042D0304800F071F89BFBF7F307FB13B3052B87
S315080042E002D1504600F068F808F10108B8F1200F2D
S315080042F0E8D1BBF1000F01D12748E3E62748E1E6FC
S3150800430028C00290BDC502903CC002904BC00290E6
S315080043105AC002907CC002909CC00290AAC002902B
S31508004320BAC00290CAC00290D8C00290E7C00290F4
S31508004330F6C0029005C1029014C102902AC10290EB
S31508004340BC2200240006002440C1029090220024CA
S315080043508C02002456C102906BC102907CC1029067
S3150800436097C1029094050024B0C1029070050024FC
S31508004370C0C10290A4220024E1C1029007C20290A3
S3150800438042C202907DC20290A5C20290B1C20290BA
S3150800439000008038F9C2029008C302904EFE0290CF
S315080043A0CDC102900C210024102100240000000039
S315080043B05FF800F061DA01905FF800F0F96B02909F
S315080043C030B585B000230446084603A9154603936D
S315080043D000F026F820B90D4800F026F805B030BDE3
S315080043E0039800F019F82860C3B22146020E01931B
S315080043F0C0F307230093C0F30743054800F014F8F9
S31508004400044B012283F82A20E8E700BF29C302905B
S315080044103DC30290BC2200245FF800F06B4E019069
S315080044205FF800F0BDCD01905FF800F0F96B0290DF
S3150800443073B514461D46002306462A4608460193C8
S31508004440214601AB01F0FCFA019B024633B12A462C
S315080044502146084800F014F802B070BD069B3146A4
S315080044601860054800F00CF8044B012283F82A204E
S31508004470F2E700BF51C3029085C30290BC22002414
S30D080044805FF800F0F96B0290E9
S31508004488F0B51E4685B000231546124C0746039319
S315080044980623084604FB06F2009303AB04FB05F162
S315080044A801F0F6FA039B33B1324629460A4800F06A
S315080044B81BF805B0F0BD90FBF4F20A9B3946186064
S315080044C804FB1203054800F00FF8054B012283F890
S315080044D82A20EEE740420F0051C3029090C302908B
S315080044E8BC220024000000005FF800F0F96B029077
S315080044F82DE9F341002407469046184601AA1D46A9
S31508004508089E019401F074FA019B93B10C3D124E72
S31508004518124800F02DF8033455F8241029B9104824
S3150800452800F026F802B0BDE8F081304600F020F821
S31508004538F1E742B288F8000039460A4802EB420217
S3150800454855F8222000F014F8002EEBD0064B01226D
S3150800455883F82A20E6E700BFC8C30290A1C30290E1
S315080045684EFE0290CCC30290BC2200240000000034
S30D080045785FF800F0F96B0290F0
S31508004580002373B5044616460B4801AA01930D4647
S3150800459001F032FA019B23B1084800F015F802B081
S315080045A070BD2A4630702146054800F00DF8054BC7
S315080045B0012283F82A20F2E724060024D7C30290B2
S315080045C0CCC30290BC2200245FF800F0F96B02907D
S315080045D0014800F005B800BF19C4029000000000A9
S30D080045E05FF800F0F96B029088
S315080045E8F8B5074615461E460C4619B10846FBF7A0
S315080045F885FE20B90D48BDE8F84000F021B8B0425C
S3150800460801DB0B48F7E732460021284604F0C8FFC5
S315080046182146284605F047FE22463946054800F051
S315080046280FF8054B012283F82A20F8BD42C40290E8
S3150800463855C40290CCC30290BC2200240000000096
S30D080046485FF800F0F96B02901F
S31508004650F0B58BB0002305460C4603AA49689D4869
S31508004660CDE9033301F0C8F9039B1BB19A4800F062
S31508004670AFFA4CE0022D07DC1A2803D8974BC34043
S31508004680DB0701D49648F2E7964B1B682BB9A0F1D5
S315080046900803012B01D89448E9E701381A2836D8C7
S315080046A0DFE810F01B0028002C0030005600E4005C
S315080046B0E700F000F7000101E400BE013C00B70185
S315080046C0F001F901080217021E02FC002502420247
S315080046D0380051004C005102E400844AA16884481D
S315080046E0FFF76EFE834800F073FA834800F070FA0D
S315080046F08248BCE7824AA1688248F1E7824AA168F3
S315080047008248EDE7824AA1688248FFF759FE0020F1
S315080047100BB0F0BD804AA1688048F6E7734D4FF4A8
S3150800472016627F48AB69049304AB00934FF4E133F8
S31508004730A168FFF77DFE049BAB61D3E721462846B7
S3150800474004F0CAF8E3E721462846FDF721FBDEE731
S315080047500023032D05930893ADF8243007D1A168EB
S315080047607048FBF7C5FD10B9FFF7E2FACFE75F4BD4
S315080047701B69013301D06C4879E7052D01D06B48D8
S3150800478075E7002205ABA068114601F059F905AB9B
S31508004790FF2200210546E06801F052F905AB0746FD
S315080047A063220021206901F04BF9059B06460BB1EF
S315080047B05F485CE703463A4629465E4800F008FA31
S315080047C05D4800F005FA5D4800F002FA5C4800F022
S315080047D0FFF95C4800F0FCF9062108A800F0FCF98E
S315080047E0032841D1584908A8FBF782FD044600284A
S315080047F038D1564800F0ECF906A92B0E5448CDE9F5
S315080048000644544C23702B0CE57063702B0AA77270
S31508004810A370E67200F0E4F9054607A94C4800F0D3
S31508004820DFF9284310F0FF0104D04B4800F0D0F917
S315080048304A481CE7069A2046130EE27123F0030342
S3150800484043F002032371130C6371130AA371079BC8
S315080048501A0E1B0C22720C226372FFF749FAFFF735
S3150800486067FAE5E73E4802E73E4800E7FFF7B0FE8D
S315080048704DE701233C4A3D4800933D4BA168FFF7AD
S315080048803BFE2FE710233B4AA1683B48FFF7ACFEE7
S315080048903DE71023394AA1683948F7E71023394A12
S315080048A0A1683948F2E70023042D089301D0374858
S315080048B0DDE608AAA168364801F09EF808AA05466A
S315080048C0E168344801F098F8089A0346002A65D04A
S315080048D03148CCE60C04002466C4029080C040042B
S315080048E091C40290D813002434A50290BC22002457
S315080048F0A7BE0290B9C80290FBC802902BC90290C5
S31508004900C0220024BABE0290C4220024C9BE029066
S31508004910C8220024DCBE0290D0220024B4C402902F
S31508004920C9C40290D8C4029019C40290DDC402908A
S3150800493033C5029046C5029078C50290A4C5029078
S31508004940D3C5029016C602902FC6029033C60290AF
S31508004950D46D00240CDA003047C6029077C6029060
S31508004960A3C60290B6C60290E5220024C1C60290EC
S31508004970DC050024EA22002473BF0290FA220024F0
S3150800498089BF02900A2300249EBF0290DDC60290CA
S315080049904C0300241003002429C70290681E0E2821
S315080049A03FF6B5AEDFE800F0080B0E1114171A1D16
S315080049B0202326292C2F3200694A1370A7E6684A55
S315080049C05370A4E6664A9370A1E6654AD3709EE6DC
S315080049D0634A13719BE6624A537198E6604A93717B
S315080049E095E65F4AD37192E65D4A13728FE65C4A92
S315080049F053728CE65A4A937289E6594AD37286E606
S31508004A00574A137383E6564A537380E6544A937398
S31508004A107DE60123534A54480093544BA1682EE778
S31508004A200023032D089303D0514800F0D1F859E626
S31508004A3008AAA1684F4800F0DFFF089B002BF3D1B6
S31508004A404D4C90B1012817D00C2294F82B304949C7
S31508004A5050435343454A0958D3584848A26900F079
S31508004A60B7F8012384F82A303CE64FF4E133A36112
S31508004A70012384F82B30E7E74FF4165384F82B000C
S31508004A80A361E1E700233E4A3E4800933E4BA168F6
S31508004A90FFF732FD3BE6384D01223C48EB8B049389
S31508004AA004AB00934FF6FF73A168FFF7C1FC049BA4
S31508004AB0EB8317E6304D012235482B8C049304AB63
S31508004AC000934FF47A73A168FFF7B2FC049B2B841A
S31508004AD01DE601232F4A30480093304BA168D7E7DB
S31508004AE001232F4A2F4800932F4BA168D0E70026B1
S31508004AF0042D089604D008212C4800F069F806E62B
S31508004B0008AB07223146A06800F09AFF08AB0546B5
S31508004B10FF223146E06800F093FF089B0BB124485A
S31508004B20A5E5244B5855F2E5022D02D0224800F09F
S31508004B304FF8224A20230021013B516002F10C0262
S31508004B40FAD11F4893E5022D02D01B4800F040F821
S31508004B50202200211B4804F027FD1B4887E500BFDB
S31508004B60AC220024E722002440C10290000600245B
S31508004B7061C7029068020024BC2200248BC70290F9
S31508004B809022002456C102908C0200246BC1029028
S31508004B90B4C70290E8220024CFC7029094050024E7
S31508004BA0E9220024C0C1029070050024DAC70290E9
S31508004BB014C80290A422002449C802901021002497
S31508004BC06AC802900000803892C80290000000006F
S31508004BD05FF800F0F96B02905FF800F06D6C0290D8
S30D08004BE05FF800F0894002901D
S31508004BE8002313B50C4601AA01461048019300F0A4
S31508004BF8FFFE019BBBB934B90D4B53F8200000F0F2
S31508004C0823F802B010BD192803D1204603F0CCFFBB
S31508004C18F7E7182803D12046FDF762FAF1E70548B1
S31508004C2800F00EF8EDE70448FAE700BF0C04002484
S31508004C38D438039053C9029077C90290000000003F
S31508004C485FF800F0F96B02905FF800F0696C029063
S31508004C5807B50A4A135CFF2B1CBF0133135449B91D
S31508004C68135C0122CDE9000305481146054B407837
S31508004C7801F03EF803B05DF804FB00BF0000803879
S30D08004C88AC220024B7C9029012
S31508004C9070B50B4D0C230B4E2C685C433319C3E9D6
S31508004CA0010100F011F82B68305101335A4203F024
S31508004CB01F0302F01F0258BF53422B6070BD00BF8E
S31508004CC00C210024102100245FF800F061DA01901D
S31508004CD02DE9F04FA9B0DFF89CA0DFF8A4900546AF
S31508004CE00DF11808DFF89CB00F46164600218722FA
S31508004CF0404604F059FC05F01F0439461D48C4F126
S31508004D002004B44228BF34462246361B05F0D7FA9B
S31508004D105B46012203212744CDE9005499F8060091
S31508004D2000F0EAFF082322461249404601F0A8F897
S31508004D30114B00220321CDF8008099F8060000F0F7
S31508004D40DBFFA021A3B20D48AAB22544CDE900A3F2
S31508004D50022300F021F84FF0FF32012102A800F0EB
S31508004D6013F80A2000F014F8002EC4DC29B0BDE8B8
S31508004D70F08F00BF2CDA003066BC0290D86E002493
S31508004D80AC22002415E202905FF800F0AF0501900E
S31508004D905FF800F04D0501905FF800F0A11202904F
S31508004DA030B58DB00D4604462B22002101A804F02B
S31508004DB0FBFB002D4FF00402074B18BF4FF0FF33E3
S31508004DC020680DEB02010193FFF782FF2368043385
S31108004DD023600DB030BD00BFEFBEADBAC9
S31508004DE07FB50022064B012168460592196000F03E
S31508004DF00BF8022105A8FFF7D3FF07B05DF804FBFF
S31508004E0098220024000000005FF800F0AF0501902A
S31508004E102DE9F0418CB01E4604468846129D174679
S31508004E2000212B2201A804F0BFFB2A4631460DF1CA
S31508004E3007008DF804808DF805708DF8065005F08A
S31508004E403EFAEA1C01A92068FFF742FF23680333EC
S30F08004E502B4423600CB0BDE8F08186
S31508004E5AF0B58DB004460F46164600212B2201A846
S31508004E6A1D4604F09CFB0423072201A98DF8063087
S31508004E7A2B682068CDF807308DF804708DF8056020
S31308004E8AFFF721FF2368073323600DB0F0BD44
S31508004E98F0B58DB004460F46164600212B2201A808
S31508004EA81D4604F07DFB0223052201A98DF806306C
S31508004EB82B882068ADF807308DF804708DF80560E2
S31308004EC8FFF702FF2368053323600DB0F0BD27
S31508004ED6F0B58DB004460F46164600212B2201A8CA
S31508004EE61D4604F05EFB0123042220688DF8063071
S31508004EF62B780DEB02018DF804708DF807308DF8C6
S31508004F060560FFF7E2FE2368043323600DB0F0BDA3
S31508004F181FB5094B0121094A1960106038B14FF0CD
S31508004F28FF32684600F00CF805B05DF804FB1A680D
S31508004F38002AFCD1F8E700BF94220024982200240E
S30D08004F485FF800F0AF050190C7
S31508004F502DE9F043A5B00C46054600210DF10808D9
S31508004F60174687221E464046DFF8789004F01CFB59
S31508004F70A021A3B2CDF800901648019302232A88EF
S31508004F8000F032F83046FFF7C7FFBEB101940122A0
S31508004F902B680321104E0093104BB07900F0ACFE3D
S31508004FA02B2322464946404600F06AFFCDF800808A
S31508004FB00B4B00220321B07900F09EFE22460949D8
S31508004FC0384605F07CF92B6823442B6025B0BDE8EC
S31508004FD0F08300BFD86E0024AC22002429E2029098
S31508004FE066BC02902CDA00305FF800F0BD13029020
S31508004FF02DE9F04F0025A3B004462B22294609A81F
S31508005000089504F0D1FA974B1C6024B12A46012171
S3150800501004A800F04DF9234609AA042108A8FFF7B9
S3150800502097FF914B099A9A427DD1904EDFF868A274
S315080050303822002114A8042704F0B6FA089D022392
S31508005040A021AAB28A48CDE9006700F029F92046CE
S31508005050FFF762FFBCB1874B01220321CDE9005758
S315080050609AF8060000F048FE3B463A46314614A830
S3150800507000F006FF14AB0022032100937E4B9AF83A
S31508005080060000F039FEB3780435F27803F1FF38EC
S31508005090023B96F80090282B77788DF824200895FF
S315080050A061D81FFA88F3A021AAB27148CDE9006336
S315080050B0022300F0F5F82046FFF72EFFD4B1DFF8FB
S315080050C0D8B101226D4B03210095CDE901789BF8F3
S315080050D0060000F011FE0F234246644914A800F0AA
S315080050E0CFFE14AB002203210093634B9BF8060006
S315080050F000F002FE4544424631460DF1250005F012
S31508005100DEF80895B9F1000F34D17B1E112B38D87B
S31508005110DFE803F03B3F4347375369774F595F64EE
S3150800512037379399854B0023089314B1544800F0F8
S31508005130BBF8544C0C2200212046FEF7ADFD524B1D
S3150800514062680898C3F823202289A3F827202268D2
S3150800515012BA1A61628952BA9A83002283F82A20FF
S3150800516023B0BDE8F08FB8F1000FCBD0B9F1000F2E
S31508005170DFD0FF27B9F1010F6BD109A9384603F033
S3150800518009FBFF2F7FF454AFD3E73F4B099A1A6008
S315080051904EE73D4B099A5A604AE73B4B099A9A6093
S315080051A046E7394B099ADA6042E7374B099A5A615A
S315080051B03EE7354B099A9A613AE79DF82420324B27
S315080051C083F8292034E79DF824202F4B83F82B20D9
S315080051D02EE72D4BBDF82420DA8329E72A4BBDF8A4
S315080051E024201A8424E709AD284A0DAF2B46083235
S315080051F003CBBB4242F8080C42F8041C1D46F5D105
S3150800520016E709AD224A0DAF2B46083203CBBB423F
S3150800521042F8080C42F8041C1D46F5D108E709AD0A
S315080052201C4A0DAF2B46083203CBBB4242F8080C8A
S3150800523042F8041C1D46F5D1FAE69DF82420124BC7
S3150800524083F82C20F4E69DF824200F4B83F82D20B4
S31508005250EEE6B9F1020F94D109A93846FCF7E4FC49
S315080052608FE700BF98220024EFBEADBA2CDA0030D3
S31508005270D86E002454E2029066BC029068E202905E
S315080052803DE202901CDA0030BC220024EA22002407
S31508005290FA2200240A230024AC220024000000007D
S315080052A05FF800F0BD1302905FF800F0F96B02900A
S30D080052B05FF800F0AF0501905C
S315080052B870B50020FFF798FE054600283ED1294C10
S315080052C86FF0FF03284A0126284984F8220004F1CA
S315080052D82E0084F82960A685C4E90023244BC4E96E
S315080052E8023303F55B43C73363614FF4E133A361C4
S315080052F84FF4FA63E3836423238440F20113638536
S3150800530804F0D1FF1B4904F13E0004F0CCFF10223B
S31508005318294604F14E0004F043F903F00DFAFCF7A8
S315080053284BFC84F8226005F0010105200135FDF7DC
S315080053389FFD642000F024F80B2DF4D10E4B0222B1
S315080053481A7001225A709A70DA701A715A719A711B
S31508005358DA711A725A729A72DA721A735A739A73D5
S3150800536870BD00BFBC220024E202A8C07FE20290FA
S315080053780102A8C088E20290AC22002400000000BE
S30D080053885FF800F06DDA0190F0
S31508005390F0B59BB0002705460C4606AA496897480B
S315080053A0069700F029FB069E2EB1954800F040F9B5
S315080053B000201BB0F0BD431E042B0FD8DFE803F016
S315080053C0039EA3A6A9008F4B099710938E4B0C97A3
S315080053D01B6843B98D4800F02BF9099E31468C4865
S315080053E000F026F9E4E701258A4B8B4C0022294672
S315080053F002A81D6000F020F9022109A8FFF7D0FCD9
S315080054002A462346002109A81025FFF726FD231D55
S315080054100222002109A8FFF720FD04F10803032250
S31508005420002109A8FFF719FD04F10C030422002145
S3150800543009A8FFF712FD04F114031222002109A896
S31508005440FFF70BFD04F118030922002109A8FFF74D
S3150800545004FD04F129030622002109A8FFF73BFDF4
