S0100000566F7465723242322E737265635E
S3150800000000000824458B0008D17F0008D37F00082C
S31508000010D57F0008D77F0008D97F000800000000B8
S315080000200000000000000000000000008127019089
S31508000030DB7F000800000000112801907528019058
S31508000040958B0008958B0008958B0008958B000802
S31508000050958B0008958B0008958B0008958B0008F2
S31508000060958B0008958B0008958B0008E17F0008A2
S31508000070F97F0008118000082980000851800008CF
S315080000806980000881800008958B0008958B000818
S31508000090958B0008958B0008958B0008958B0008B2
S315080000A0958B0008958B0008958B0008958B0008A2
S315080000B099800008958B0008958B0008C180000878
S315080000C0958B0008958B0008958B0008958B000882
S315080000D0D9800008F1800008958B0008098100087E
S315080000E0958B0008958B000800000000958B00088A
S315080000F0958B0008958B0008958B000819810008D8
S31508000100958B0008958B0008958B000831810008AF
S3150800011049810008958B0008958B000861810008C5
S3150800012089810008A1810008B9810008D1810008E9
S31508000130E98100080182000819820008958B0008E9
S3150800014000000000000000000000000000000000A1
S31508000150218200083982000851820008958B000820
S31508000160958B0008958B0008958B0008958B0008E1
S31508000170958B0008958B0008958B0008958B0008D1
S31508000180958B0008958B0008698200088182000813
S31508000190958B0008958B0008958B0008958B0008B1
S315080001A0958B0008958B0008958B0008958B0008A1
S315080001B0958B0008958B0008958B0008958B000891
S315080001C0958B0008958B0008958B0008958B000881
S315080001D0958B0008958B0008958B0008958B000871
S315080001E0958B0008958B0008958B0008958B000861
S315080001F0958B0008958B0008958B0008958B000851
S31508000200958B0008958B0008958B0008958B000840
S31508000210958B0008958B0008958B0008958B000830
S31508000220958B0008958B0008958B00080000000048
S31508000230958B0008958B000800000000958B000838
S31508000240958B0008958B0008958B0008958B000800
S31508000250958B0008958B0008958B0008958B0008F0
S31508000260958B0008958B0008958B0008958B0008E0
S31508000270958B0008958B0008958B000800000000F8
S31508000280958B0008958B0008958B000800000000E8
S30D0800029000000000958B000830
S31508000298F8B500BFF8BC08BC9E467047F8B500BF5D
S30D080002A8F8BC08BC9E4670472D
S315080002B010B5054C237833B9044B13B10448AFF392
S315080002C000800123237010BD880900240000000067
S315080002D09802000808B5034B1BB103490348AFF35E
S315080002E0008008BD000000008C0900249802000860
S315080002F010F8012B11F8013B012A28BF9A42F7D0C2
S31508000300D01A7047034613F8012B002AFBD1181A96
S3150800031001387047000000000000000000000000DF
S3150800032001F0FF01102A2BDB10F0070F08D010F898
S31508000330013B013A8B422DD010F0070F42B3F6D19C
S31508000340F0B441EA012141EA014122F007047FF0B5
S3150800035000070023F0E80256083C85EA010586EA0C
S31508000360010685FA47F5A3FA87F586FA47F6A5FA48
S3150800037087F68EB9EED1F0BC01F0FF0102F0070254
S3150800038032B110F8013B013A83EA010313B1F8D1FF
S315080003900020704701387047002D06BF35460338E0
S315080003A0073815F0010F07D1013015F4807F02BF19
S315080003B0013015F4C03F0130F0BC0138704700BF6A
S315080003C081F0004102E000BF83F0004330B54FEAF8
S315080003D041044FEA430594EA050F08BF90EA020F65
S315080003E01FBF54EA000C55EA020C7FEA645C7FEAF8
S315080003F0655C00F0E2804FEA5454D4EB5555B8BF1B
S315080004006D420CDD2C4480EA020281EA030382EA8B
S31508000410000083EA010180EA020281EA0303362D1D
S3150800042088BF30BD11F0004F4FEA01314FF4801CF0
S315080004304CEA113102D0404261EB410113F0004F02
S315080004404FEA03334CEA133302D0524263EB4303B9
S3150800045094EA050F00F0A780A4F10104D5F1200E57
S315080004600DDB02FA0EFC22FA05F2801841F10001B2
S3150800047003FA0EF2801843FA05F359410EE0A5F186
S3150800048020050EF1200E012A03FA0EFC28BF4CF0B7
S31508000490020C43FA05F3C01851EBE37101F000456D
S315080004A007D54FF0000EDCF1000C7EEB00006EEB7A
S315080004B00101B1F5801F1BD3B1F5001F0CD3490804
S315080004C05FEA30004FEA3C0C04F101044FEA44525B
S315080004D012F5800F80F09A80BCF1004F08BF5FEAE2
S315080004E0500C50F1000041EB045141EA050130BDC2
S315080004F05FEA4C0C404141EB0101013C28BFB1F5D4
S31508000500801FE9D291F0000F04BF01460020B1FA1E
S3150800051081F308BF2033A3F10B03B3F120020CDAF1
S315080005200C3208DD02F1140CC2F10C0201FA0CF0CF
S3150800053021FA02F10CE002F11402D8BFC2F1200C34
S3150800054001FA02F120FA0CFCDCBF41EA0C019040EA
S31508000550E41AA2BF01EB0451294330BD6FEA040433
S315080005601F3C1CDA0C340EDC04F11404C4F120021E
S3150800057020FA04F001FA02F340EA030021FA04F330
S3150800058045EA030130BDC4F10C04C4F1200220FA87
S3150800059002F001FA04F340EA0300294630BD21FAC5
S315080005A004F0294630BD94F0000F83F4801306BF8B
S315080005B081F480110134013D4EE77FEA645C18BF7F
S315080005C07FEA655C29D094EA050F08BF90EA020F16
S315080005D005D054EA000C04BF1946104630BD91EA0E
S315080005E0030F1EBF0021002030BD5FEA545C05D111
S315080005F04000494128BF41F0004130BD14F5800450
S315080006003CBF01F5801130BD01F0004545F0FE41C3
S3150800061041F470014FF0000030BD7FEA645C1ABFF8
S31508000620194610467FEA655C1CBF0B46024650EA2F
S31508000630013406BF52EA033591EA030F41F400215B
S3150800064030BD00BF90F0000F04BF0021704730B5E1
S315080006504FF4806404F132044FF000054FF00001B6
S3150800066050E700BF90F0000F04BF0021704730B577
S315080006704FF4806404F1320410F0004548BF40424C
S315080006804FF000013EE700BF42004FEAE2014FEAA1
S3150800069031014FEA02701FBF12F07F4393F07F4F7C
S315080006A081F06051704732F07F4208BF704793F07F
S315080006B07F4F04BF41F40021704730B54FF4607492
S315080006C001F0004521F000411CE700BF50EA010295
S315080006D008BF704730B54FF000050AE050EA01023E
S315080006E008BF704730B511F0004502D5404261EBAE
S315080006F041014FF4806404F132045FEA915C3FF4EF
S31508000700D8AE4FF003025FEADC0C18BF03325FEA8B
S31508000710DC0C18BF033202EBDC02C2F1200300FA3C
S3150800072003FC20FA02F001FA03FE40EA0E0021FA61
S3150800073002F11444BDE600BF53B94AB9002908BFFF
S3150800074000281CBF4FF0FF314FF0FF3000F0A8B96A
S31508000750ADF1080C6DE904CE00F026F8DDF804E0EA
S31508000760DDE9022304B070479FED0B6B41EC170BD4
S315080007709FED0B5B27EE066BBCEEC66BB8EE464BE1
S31508000780A4EE457BFCEEC77B16EE101A17EE900A10
S31508000790704700BFAFF30080000000000000F03D86
S315080007A0000000000000F0412DE9F047089D8E4644
S315080007B004468846002B4AD18A42174662D9B2FABD
S315080007C082F64EB1C6F1200301FA06F820FA03F3C1
S315080007D0B74043EA0808B4404FEA174E1FFA87FCA9
S315080007E0B8FBFEF1230C0EFB118843EA084301FB14
S315080007F00CF29A4209D9FB1801F1FF3080F0EA8021
S315080008009A4240F2E78002393B449A1AA3B2B2FBF5
S31508000810FEF00EFB102243EA024300FB0CFC9C454B
S3150800082009D9FB1800F1FF3280F0D6809C4540F2CA
S31508000830D3803B44023840EA0140A3EB0C03002175
S315080008401DB1F3400022C5E90032BDE8F0878B42AE
S3150800085005D90DB1C5E9000100210846F5E7B3FA47
S3150800086083F1002946D1734502D3824200F20581FD
S31508000870841A6EEB030201209046002DE5D0C5E9E7
S315080008800048E2E7002A00F09080B2FA82F6002ECD
S3150800089040F0A4808A1A030C4FEA174E80B2BCB205
S315080008A00121B2FBFEFC0EFB1C2243EA024304FBB9
S315080008B00CF29A4207D9FB180CF1FF3802D29A4279
S315080008C000F2E080C4469B1AB3FBFEF20EFB12331D
S315080008D040EA034302FB04F49C4207D9FB1802F1E1
S315080008E0FF3002D29C4200F2CA8002461B1B42EA33
S315080008F00C40A5E7C1F120068B4022FA06F71F43F4
S315080009000EFA01F420FA06F32EFA06FE4FEA174904
S31508000910234300FA01F81FFA87FCBEFBF9F01C0C0A
S3150800092009FB10EE44EA0E4400FB0CFEA64502FA4B
S3150800093001F209D93C1900F1FF3A80F09C80A645DE
S3150800094040F2998002383C44A4EB0E041FFA83FE59
S31508000950B4FBF9F309FB13444EEA044403FB0CFC0D
S31508000960A44508D93C1903F1FF3E80F08280A445CE
S315080009707FD9023B3C4443EA0040A4EB0C04A0FBAD
S3150800098002EC64457346E14662D35FD05DB1B8EBCD
S31508000990030264EB090404FA06F622FA01F31E437D
S315080009A0CC40C5E9006400214FE7B1FBF2FC010C1D
S315080009B041EA0E4180B240EA01423B4638463C468F
S315080009C0B846BE462026B1FBF7F1A2EB080241EA7B
S315080009D00C4166E7014618E710462CE7C6F12002E7
S315080009E02EFA02F3B740B14020FA02F24FEA174E48
S315080009F00A43B3FBFEF8BCB20EFB1833110C41EAEE
S31508000A00034108FB04F9B04089454FEA104380B218
S31508000A103ED9791808F1FF3C01D289451FD8A1EBC8
S31508000A200901B1FBFEF909FB04F80EFB191192B294
S31508000A3042EA0142424529D2BA1809F1FF31C4D225
S31508000A404245C2D2A9F102013A44BEE7F0459DD219
S31508000A50BEEB02036CEB070C0138E14696E7A7EB01
S31508000A6009094944A8F1020CB1FBFEF909FB04F88F
S31508000A70DBE773467FE7504666E70846FDE63B44F4
S31508000A80023A33E7ACF1020C3B441CE749469CE7C3
S31508000A90A1EB0901C446B1FBFEF909FB04F8C4E75A
S30908000AA0704700BFCE
S30708000AA470478B
S31508000AA810B50022064C4FF400631146204600F0A4
S31508000AB80BF820460021BDE8104000F009B800BF31
S31508000AC83C6B0024000000005FF800F05FE6019028
S30D08000AD85FF800F009E6019041
S31508000AE010B5074C10214FF400630022204600F091
S31508000AF00FF820461021BDE8104000F005B800BFE9
S31508000B003C6B0024000000005FF800F009E6019045
S30D08000B105FF800F05FE60190B2
S31508000B1810B50021474800F0A3F80121454800F020
S31508000B289FF8454C0021454800F09AF801214348AA
S31508000B3800F096F86379012B26D00123A06822686D
S31508000B48637102233B4923713D4BC3633D4B0364E1
S31508000B583D4BC364136843F480531360136843F426
S31508000B68005342F8203B4FF4A07300F081F80023A5
S31508000B786371002850D123681A6842F001021A6086
S31508000B881A6842F480321A60304C4FF4A072304921
S31508000B98304800F069F805222F49204600F064F825
S31508000BA8E36C2E4A1B6893422DD0183293422AD0FA
S31508000BB81832934227D01832934224D018329342D7
S31508000BC821D0183293421ED0183293421BD01832BD
S31508000BD8934218D002F55672934214D018329342AB
S31508000BE811D0183293420ED0183293420BD01832CD
S31508000BF8934208D01832934205D01832934202D04D
S31508000C08183293420DD11A6822F010021A601A682F
S31508000C1822F008021A6010BD236943F00403236111
S31508000C28B2E71A6822F002021A601A6822F0040269
S31508000C38F0E700BF0CD000303C6B00248CD20030A3
S31508000C4889E6019099E60190A5E60190C86C00240A
S31508000C580CD500302C6D002400D00030100002405E
S31508000C685FF800F04D0D00005FF800F07DDC01909C
S30D08000C785FF800F069EF019036
S31508000C80074B5A88188810449A881044DA881B89B2
S31508000C9010441844502380B2B0FBF3F0C0B270473A
S30908000CA000D0003042
S31508000CA8044B834205D1044B04481B68996B00F032
S31508000CB807B870472C6D0024FC6600244CD6003013
S30D08000CC85FF800F03D0A000088
S31508000CD0044B834205D1044B04481B68996B00F00A
S31508000CE007B870472C6D0024FC6600240CD500302C
S30D08000CF05FF800F03D0A000060
S31508000CF8044B834205D1044B04481B68996B00F0E2
S31508000D0807B870473C6B0024FC6600248CD2003078
S30D08000D185FF800F095110000D8
S31508000D20044B834205D1044B04481B68996B00F0B9
S31508000D3007B870473C6B0024FC6600240CD00030D2
S30D08000D405FF800F095110000B0
S31508000D48F0B585B0002309220A2701AC0193636030
S31508000D58C4F80730002918BF1346B1FBF7F607FB96
S31508000D68161531463035A554013AF3D1E11808F07D
S30B08000D783FFB05B0F0BDCB
S31508000D8030B58BB028221D4D002168461C4C08F052
S31508000D902BFB1C49684609F0AAF929696846FFF73A
S31508000DA0D3FF1949684608F027FB6969174802F016
S31508000DB0DFFF6946164800F03FF82146686900F0EB
S31508000DC02FF8012223466846114600F02DF82046E2
S31508000DD000F036F80F4B1860204600F035F86389A6
S31508000DE04BB9204600F024F8638923B90A4A1360F0
S31508000DF001220A4B1A6000200BB030BD641E002485
S31508000E00AC09002498940290A5940290AA940290A2
S31508000E10C4940290A8090024A4090024800F002481
S31508000E205FF800F0218802905FF800F07988029058
S31508000E305FF800F0318A02905FF800F02D660290A4
S31508000E405FF800F0118902905FF800F0258B029098
S31508000E5070B5134D134E2B683268934204DA124A62
S31508000E60D05C01332B6009E0B2F5007F07DA002475
S31508000E700E4B0F481C6000F02BF8204670BD0C4C3A
S31508000E80204600F01DF83060204600F01DF8638902
S31508000E9013B9204600F010F8064B18790123E1E74C
S31508000EA0A4090024A8090024C81E0024800F0024D1
S31508000EB0AC090024C41E00245FF800F0318A0290B1
S31508000EC05FF800F0118902905FF800F0258B029018
S30D08000ED05FF800F0098B02909F
S31508000ED81FB5D3B204460293C2F307230193C2F39C
S31508000EE807430093130E0A46044908F0ABF920464F
S31508000EF804B0BDE81040FFF701BA00BFD8940290C5
S31508000F0810B5044613460A46034908F09BF92046D5
S31108000F18BDE81040FFF7F2B9F094029013
S31508000F2410B5044653F832300A46044908F08CF9D9
S31508000F342046BDE81040FFF7E3B900BFFB940290D2
S31508000F4410B5044613460A46034908F07DF92046B7
S31108000F54BDE81040FFF7D4B9FB940290EA
S31508000F602DE9F04F9FB01822002101A808F03CFA9D
S31508000F702822002107A808F037FA3222002111A8F2
S31508000F8008F032FA9A4BD3F80090B9F1000F06D15F
S31508000F90984800F06DF948461FB0BDE8F08F964EA8
S31508000FA007A89649002509F0A2F8316907A8A846B6
S31508000FB0FFF7CAFE924907A82F4608F01DFA71697D
S31508000FC09048A94602F0D4FE07A98F4800F050F9C8
S31508000FD001A9706900F058F901AB0122022107A89E
S31508000FE0DFF884A200F048F901A800F051F901A839
S31508000FF000F056F9BDF80E3013B9B8F1000F1AD043
S31508001000394601A800F03CF901A800F041F901A809
S3150800101000F046F9B7F5007F09D1002101A800F0D4
S315080010202FF901A800F034F901A800F039F901A850
S3150800103000F032F9AFE7122D00F2BD80DFE805F0C7
S315080010400A212931394149535B636B757D858F992F
S31508001050A0AAB100326811A86C49A846FFF73CFF60
S315080010600125044607EB040B381DA144BBF5007F98
S31508001070504480F2A480224611A95F4609F03FF841
S31508001080B8E7726811A862490225FFF725FF0446EA
S31508001090E8E7B26811A85F490325FFF71DFF044674
S315080010A0E0E7F26811A85C490425FFF715FF044636
S315080010B0D8E7726911A859490525FFF70DFF0446B7
S315080010C0D0E7B26911A856490625FFF71DFF044661
S315080010D0C8E7544B11A896F82B2007255249FFF765
S315080010E021FF0446BEE7514A11A851490825FFF7D2
S315080010F029FF0446B6E74F4A11A84F490925FFF7C5
S3150800110021FF0446AEE74D4A11A84D490A25FFF7C7
S3150800111019FF0446A6E74B4B11A896F829200B257C
S315080011204949FFF7FFFE04469CE7F28B11A8474999
S315080011300C25FFF7E9FE044694E7328C11A84449CA
S315080011400D25FFF7E1FE04468CE7424B11A896F8F9
S315080011502C200E254049FFF7E5FE044682E73F4B63
S3150800116011A896F82D200F253D49FFF7DBFE04460A
S3150800117078E7012111A807F05FFC1025044671E7FE
S31508001180002111A807F058FC041E04BF4FF0000800
S31508001190112567E7012111A800F03AFF1225044638
S315080011A060E7002111A800F033FF041E04BF4FF0CA
S315080011B00008132556E700244FF0010852E7C7F543
S315080011C0007711A93A46A4EB070B08F098FF4FF4ED
S315080011D0007101A800F054F801A800F059F801A818
S315080011E000F05EF811AB5A461E48D91945E700BF0C
S315080011F0880F002406950290641E00249894029095
S31508001200A5940290AA9402903A950290529502905B
S315080012105D95029068950290739502907F9502906D
S31508001220889502902004002490950290921E00242E
S3150800123098950290A21E0024A1950290B21E002441
S31508001240A995029008040024B0950290B9950290D9
S31508001250C1950290D8030024CA950290C0030024C1
S31508001260D1950290C81E0024C41E00240000000068
S315080012705FF800F02D6602905FF800F0798802901A
S315080012805FF800F0558A02905FF800F02188029016
S315080012905FF800F0118902905FF800F0098B029060
S30D080012A05FF800F0258B0290AF
S315080012A8084BF02283F8232000229A600649074B48
S315080012B8D9634FF0E023064959619A6107221A61F2
S315080012C8704700BF00ED00E0290600000000000096
S309080012D8FFC3090039
S315080012DC10B40D4B1B24DC604C1E1C610B4C5C6162
S315080012EC9861BFF34F8F0AE0074B9B6813F0060F04
S315080012FCFAD0054B93F8203002F8013B0139002946
S3150800130CF2D15DF8044B70470050005203250005D6
S3150800131C10B5002407E022464FF480712046FFF7EB
S3130800132CD7FF04F58074B4F5803FF4D310BDE6
S3150800133C07E0064BDB6913F0400FFAD0034B9A62B1
S3150800134C01300278002AF4D1704700BF0010014022
S3150800135C00B583B000230193030903F130028DF81D
S3150800136C0420392A02D957338DF8043000F00F00BF
S3150800137C00F130038DF80530392B02D957308DF82A
S3150800138C050020238DF8063001A8FFF7D1FF03B01E
S3090800139C5DF804FBEB
S315080013A010B483B00468019401FA03FC019921EA98
S315080013B00C0101919A40019B1A430192019B03601B
S30D080013C003B05DF8044B704709
S315080013C808B50823012211460848FFF7E5FF084B28
S315080013D8CA225A6253225A621C2301221146054818
S315080013E8FFF7DAFFBFF34F8F08BD00BF0048025862
S30D080013F800400058E0440258C9
S3150800140008B51223022203211148FFF7C9FF042356
S3150800141007220F210F48FFF7C3FF03231A460721A8
S315080014200D48FFF7BDFF0423012211460B48FFF7BD
S31508001430B7FF0423002201210948FFF7B1FF094B32
S315080014400022DA624FF40B72DA6009221A6008BDCC
S31508001450000002582400025854440258F044025826
S30D080014609844025800100140EF
S3150800146808B514232A223F211848FFF795FF0823B1
S3150800147840F2666240F6FF711548FFF78DFF1423A0
S315080014883F2211461348FFF787FF1C230022032132
S315080014981148FFF781FF0C23042207210F48FFF79D
S315080014A87BFF0F23012211460D48FFF775FF0D4BE9
S315080014B80D4A9A6001225A604FF480521A600B4A04
S315080014C8DA6040F6F8729A6108BD00BF000802584B
S315080014D824080258080802584C440258504402582E
S315080014E8E8440258003C00400700072000004084F2
S315080014F820B14FF48032024B9A6170470122FAE70D
S30908001508000C02586B
S3150800150C82B00021019140F6633303FB00F0084BCF
S3150800151C83FB0023C017C0EBA312019102E0019BC9
S3150800152C01330193019B9342F9DB02B0704700BF6C
S3090800153CD34D62100B
S3150800154010B5054C00231A4601212046FFF728FF4F
S3110800155040F6F873A36110BD003C004093
S3150800155CF8B505460C4616460120FFF7C7FF174F88
S3150800156C7C601123002203211548FFF713FF002383
S3150800157C012211463846FFF70DFF092301221146B1
S3150800158C3846FFF707FF0AE00C4B5B6913F0020FAE
S3150800159CFAD015F8012B094B83F82020013C002CB6
S315080015ACF2D1064B5B6913F0080FFAD016B1FFF7A8
S315080015BCC1FFF8BD0020FFF799FFF8E7003C004093
S309080015CC0C3C004085
S315080015D0F8B505460C461646144F796011230222C3
S315080015E003211348FFF7DCFE002301221146384683
S315080015F0FFF7D6FE0923012211463846FFF7D0FE2B
S315080016000AE00A4B5B6913F0010FFAD0074B93F80F
S31508001610303005F8013B013C002CF2D116B1FFF73A
S315080016208FFFF8BD0020FFF767FFF8E7003C004092
S309080016300C3C004020
S3150800163410B582B000240194ADF8004066238DF8F5
S3150800164404302246012101A8FFF786FF99238DF865
S3150800165404302246012101A8FFF77EFF1920FFF76F
S3150800166453FF90238DF80430012204210DEB010069
S31508001674FFF772FF224602216846FFF7A7FF1648BE
S31508001684FFF75AFE9DF80000FFF766FE9DF8010075
S31508001694FFF762FE9DF80030C22B0AD0C22B03D195
S315080016A49DF80130182B0FD00C48FFF745FE02B001
S315080016B410BD9DF80120152AF0D10948FFF73CFE14
S315080016C4084B01221A60F2E70748FFF735FE054B77
S315080016D402221A60EBE700BFF8B900082CBA000822
S311080016E40CBA0008C80900241CBA00084B
S315080016F070B40E46039D10491B24CC605C1E0C6119
S3150800170040EA020C0D484CEA0000486112F4406FAA
S3150800171000D08E61BFF34F8F0AE0074A926812F035
S31508001720060FFAD0044A92F8202005F8012B013B4F
S31508001730002BF2D170BC7047005000520001000522
S3150800174008B500231A461F211648FFF729FE00236D
S315080017501F2211461448FFF723FE142301220321F2
S315080017601248FFF71DFE0023012203211048FFF748
S3150800177017FE1223022203210E48FFF711FE042347
S3150800178000220F210C48FFF70BFE122303221146F5
S315080017900A48FFF705FE1D23002207210848FFF720
S315080017A0FFFD08BD88440258E0440258001002585C
S315080017B0000C025800080258240802580808025863
S309080017C01044025869
S315080017C438B5344C0E23012211462046FFF7E6FDB0
S315080017D400234FF020124FF030112F48FFF7DEFD9B
S315080017E4082309220F212D48FFF7D8FD08230922CB
S315080017F40F212B48FFF7D2FD00234FF03012114674
S315080018042848FFF7CBFD16232A223F212648FFF74F
S31508001814C5FD0C2340F6991240F6FF712348FFF7DD
S31508001824BDFD16233F2211462148FFF7B7FD0423C1
S31508001834022203211F48FFF7B1FD082309220F21BD
S315080018441D48FFF7ABFD0423032211461B48FFF787
S31508001854A5FD1B4D1C23002203212846FFF79EFDE8
S315080018640423032211462846FFF798FD0E23012276
S3150800187411461448FFF792FD0E2300220121204643
S31508001884FFF78CFD104B4FF4A8125A600F4A1A60E2
S3150800189438BD00BF7C44025800040258200402588C
S315080018A42404025808040258000C0258240C02584E
S315080018B4080C025800100258201002580810025842
S315080018C44C440258D4440258005000520100000403
S315080018D410B50C4B02221A600A4B1B6813F0020F50
S315080018E4FAD1084B9B6813F0200FFAD1054C002255
S315080018F42260042303210448FFF750FD034B2360A9
S3150800190410BD00BF005000524C44025801000001AB
S3150800191482B00023019308E0019B01330193019AE5
S3150800192440F603239A42F7DD0138002802DD002336
S30D080019340193F4E702B07047C5
S3150800193C10B50E4B1B24DC60104340F480705861C4
S3150800194C12F4406F00D09961BFF34F8F0024074BF8
S3150800195C9B6813F0200F07D00120FFF7D1FD013447
S3150800196C42F210739C42F2DD10BD00BF00500052CB
S3150800197C30B585B005460024ADF80C402246214604
S3150800198C6620FFF7D5FF224621469920FFF7D0FFA0
S3150800199C1920FFF7B5FD03AB009302234FF4105241
S315080019AC21469020FFF79EFE0DB905B030BD1548AF
S315080019BCFFF7BEFC9DF80C00FFF7CAFC9DF80D005E
S315080019CCFFF7C6FC9DF80C30C22B09D0C22B03D1ED
S315080019DC9DF80D30182B0ED00B48FFF7A9FCE4E741
S315080019EC9DF80D20152AF1D10848FFF7A1FC084BE4
S315080019FC01221A60D9E70748FFF79AFC044B022222
S31508001A0C1A60D2E738BA00082CBA00080CBA0008D3
S30D08001A1CC40900241CBA0008E5
S31508001A2808B5FFF7CDFC174B1A6DA3F12963A3F583
S31508001A385923A3F647439A4200D008BD114B002202
S31508001A481A65FFF779FEFFF7D7FCFFF709FDFFF7D9
S31508001A58B5FE0D48FFF76EFCFFF7E8FD0120FFF716
S31508001A6889FF0A4B1B6813B1094B1B681BB9094840
S31508001A78FFF760FCFEE7FFF74DFCFFF711FC00F0E7
S31508001A880BF8FEE7004000584CBA0008C8090024BD
S31508001A98C409002468BA00085FF800F0BD0200000F
S31508001AA810B5144B1B24DC6040F00120586101393D
S31508001AB81961BFF34F8F08E00E4B9B6813F0040FAC
S31508001AC8FAD012F8011B0B4B19620A4B9B6813F0E4
S31508001AD8020FF1D00024074B9B6813F0200F07D09C
S31508001AE80120FFF70FFD013442F210739C42F2DD24
S30D08001AF810BD00BF00500052AA
S31508001B0008B5054B1B22DA60044A5A61BFF34F8FAA
S31508001B100220FFF7FFFE08BD00500052EB2D180FFC
S31508001B2038B5104C104B114D04F10F001049C4E99B
S31508001B300035104BA3600023A381A37308F0D7FADE
S31508001B400D4904F1190008F0D2FA0C4904F12900EC
S31508001B5008F0CDFA0A4904F1390008F0C8FA094B29
S31508001B601D6038BD900F0024D002A8C000E1F5051D
S31508001B70209B0290E80383062A9B0290339B0290DF
S30D08001B80429B0290880500242F
S31508001B8801380A280AD8DFE800F0060E161E221AB7
S31508001B9826313B4512000A68234B1A60224B5A68BD
S31508001BA8224B1A6070470A781F4B1A73F6E70A8899
S31508001BB81D4B5A81F2E70A881B4B1A81EEE70A6819
S31508001BC8194B5A60EAE70A78174B9A73E6E70A78D0
S31508001BD8154B5A73E2E70A68134BC3F80F204A688D
S31508001BE8C3F813200A89A3F81720D7E7104B01F181
S31508001BF8100251F8040B914243F8040BF9D1CDE7CA
S31508001C080C4B01F1100251F8040B914243F8040BEE
S31508001C18F9D1C3E7084B01F1280251F8040B9142A0
S31508001C2843F8040BF9D1B9E7900F00248805002476
S31108001C38A90F0024B90F0024C90F0024CE
S31508001C44F7B5284D022204460A262B46114603F008
S31508001C54ACF8AB1C204604220221102703F0A5F891
S31508001C646B1C20460522022103F09FF82B1F2046F1
S31508001C740322022103F07AF8AB1E20460B22022126
S31508001C8403F074F8A5F1080320460622022103F09E
S31508001C944EF8A5F10C0320460122022103F047F869
S31508001CA4EB1C204607220221009603F01BF805F1D7
S31508001CB40D03204608220221009703F013F805F1C4
S31508001CC41D03204609220221009703F00BF8282356
S31508001CD4324602210093204605F12D0303F002F84B
S30D08001CE403B0F0BD9C0F0024BB
S31508001CF07FB501284FF0000406460D46CDE902449B
S31508001D0000F388800123029395E0042EFAD192E02D
S31508001D10524B1B683BB9A4F10803022B03D8504861
S31508001D2000F0DAF80FE00C2C0DD8DFE804F0071104
S31508001D302214303E4750575E63686D00494AE96889
S31508001D40494802F0E5FA7268484B1A6004B070BD5B
S31508001D5002F0E2FBF7E7338964224548039303ABB5
S31508001D60009342F21073E96802F00AFB039B338181
S31508001D70E9E7738901223F48039303AB00934FF6C3
S31508001D80FF73E96802F0FCFA039B7381DBE773686B
S31508001D903C223948039303AB00934FF44873E96830
S31508001DA002F01AFB039B7360CDE70123334A3448DC
S31508001DB00093344BE96802F047FBC4E70123324A33
S31508001DC032480093324BE96802F03EFB3EE00123BD
S31508001DD0304A31480093314BE968ECE71023304A22
S31508001DE0E968304802F0A4FBADE70A232E4AE96801
S31508001DF02E48F7E710232E4AE9682E48F2E72823EB
S31508001E002D4AE9682D48EDE72D4800F065F800F001
S31508001E10B3FF98E702AA89682A4803F059FD012802
S31508001E20044602D00C2C7FF470AF032E7FF46AAF01
S31508001E30012C18BF0C24029B0A4E002B3FF468AFF6
S31508001E40214800F049F8062C7FF47DAF00231F4A8D
S31508001E501F4813601F4A136062E700BF880F0024FB
S31508001E60AA9B0290900F0024D39B02908805002419
S31508001E70EF9B0290119C0290339C02909E0F0024C7
S31508001E804F9C0290640000249D0F00245C9C0290E5
S31508001E90440000249C0F0024709C02902C0000240F
S31508001EA0B90F0024919C02909F0F0024A09C0290D9
S31508001EB0A90F0024B89C0290C90F0024C89C029060
S31508001EC0DA9C02907C000024549B0290FC2000249B
S31508001ED0F49C0290F82000245FF800F02D6602902A
S31508001EE038B5304C304D2168304800F089F82968FB
S31508001EF02F4801F03DFF2A7B2E4B216B03EBC203D3
S31508001F002D480CCB00F07CF8A1682C4800F078F836
S31508001F102B4B186800F078F80146254801F028FF91
S31508001F206A89A16D274800F06BF82A892169264835
S31508001F3000F066F86968254B2548B1FBF3F203FB08
S31508001F401213A16900F05CF8AA7B224B216A03EB05
S31508001F50C20321480CCB00F053F86A7B1F4BA16AD9
S31508001F6003EBC2031E480CCB00F04AF81D4B1B6856
S31508001F708BB105F12902A16C1B4800F041F805F167
S31508001F801902216C194800F03BF805F10F02A16B04
S31508001F90174800F035F8216D164A1748BDE838404D
S31508001FA000F02EB87C000024900F00240B9D0290B0
S31508001FB013DA02902C000024349D0290619D029051
S31508001FC0781600248A9D0290B79D029040420F0021
S31508001FD0E49D029064000024179E029044000024A9
S31508001FE0449E0290880F0024719E02909E9E029045
S31508001FF0CB9E0290C90F0024F89E029000000000B4
S315080020005FF800F02D6602905FF800F0CB4801906B
S3150800201010B52C4C69B1002323602B4A2B4B127B3D
S315080020202B49FEF77FFF01462368084601332360E4
S3150800203010BD23680A2BF7D801A252F823F000BF77
S315080020401B2000086D200008772000088120000862
S315080020508D200008952000089D200008A92000086A
S31508002060B3200008B9200008BF200008164A194BFB
S31508002070927B1949D5E7144A184B527B1849D0E781
S31508002080114B18491A89FEF73FFFCCE70E4B164944
S315080020905A89F8E70C4B15495A68F4E70A4B14496C
S315080020A01A68FEF719FFBEE7124A1349FEF74AFFF8
S315080020B0B9E7124A1249F9E7124A1349F6E7134AE9
S315080020C01349F3E78C0F0024900F00242C000024FA
S315080020D0259F029064000024319F0290440000244A
S315080020E0429F0290549F0290649F02906E9F0290B6
S315080020F0799F02909F0F0024879F0290A90F0024C2
S31508002100969F0290B90F0024A49F0290C90F00243D
S30908002110B19F0290DB
S315080021182DE9F04F002391B09E4C4620099300F014
S315080021282BFA2368FBB101229B4EDFF8DC829B4B16
S315080021381146F07903F040FD98F80C30BBB1984D7C
S3150800214808F13904974F2946204600F001FA98B154
S3150800215801223B46F079114603F02EFD4FF47A70BA
S3150800216800F00AFAEFE70A2000F006FAD9E7D8F8E5
S3150800217800308B4A1BBA1360894C20208A4B226888
S31508002188DFF888A21A600022114600F009FA874B80
S3150800219801220221CAF800000090F07903F00CFD2C
S315080021A8B8F80A202146DAF8000000F0E9F9DAF862
S315080021B80030012202210093F0797D4B03F0FCFCE4
S315080021C87C4B01221A6009A9DAF8000000F0C4F964
S315080021D878B9099B1A68B2F80890A9F118039BB24E
S315080021E8C92B05930AD909980028ECD000F0DCF920
S315080021F8E9E70021102002F097FCF4E76E4B1B680C
S31508002208002BF0D157680AAC6C4A136007F118021C
S315080022183B460792186822465968083303C214468B
S31508002228079A9342F6D10A9800F09EF90A9004464E
S315080022380B9800F099F90B900546BDF83E0000F09A
S31508002248B7F9BB685E4A5F491360FB680690536036
S315080022583B8AADF83E00A1F11A00138100F030FA66
S3150800226800F082F9D7F81230DFF8A4B1D3B9DBF851
S315080022780030012B05D0544B0122F079114603F0A2
S315080022889BFC0123CBF80030069ADFF888B1052AAB
S3150800229800F24481DFE812F03500C400FB000101B2
S315080022A8420134019842DBF8002026D198F80D300F
S315080022B8DBB9464B1B789806E6D5444B1B7813F0D2
S315080022C810030CBF022103218A42CBF80010DBD089
S315080022D83F49404AF079002B18BF0A463E4B009200
S315080022E80122114603F068FCCEE7013B012BCBD847
S315080022F8364B1B789B06C7D4DFE7012AC1D0374B74
S31508002308BAE7DBF80030B9F1190F03F10103CBF886
S31508002318003040F00381324B0022DFF8FC901A6047
S31508002328304BDFF8F8B01978C9F800400229CBF81D
S3150800233800500AD12C492D4800F012F92C490022E0
S31508002348284B0C602B491A700D60DBF800202A4BC5
S315080023582A4913441D4C8B4289BF294BCBF80030B8
S315080023689B18CBF8003082BFD9F800300133C9F87A
S3150800237800303B7E237000F007F9237801220321F9
S31508002388F0790193D9F8003000931E4B03F014FC3A
S3150800239829E700BFE0160024541E0024F29F029085
S315080023A87416002406A002907816002433A002901A
S315080023B855A00290A81200249C120024A0120024FA
S315080023C890120024B90F00247BA0029088120024DA
S315080023D8E69F0290EC9F02909EA00290BBA00290F6
S315080023E87C120024BC120024B4120024B81200245B
S315080023F8B0120024AC120024002D3101FFC99A3B03
S31508002408006396C5E7A00290900F0024A412002442
S315080024188C120024C012002484120024801200247E
S3150800242800F062FEDBF80430B9F1B90F03F10103D5
S31508002438CBF8043072D13C4907F1190000F0ACF822
S315080024483A4B2246384819782B4681F02001C1F3C1
S31508002458401100F09DF8364B197803297FF4C3AE6E
S31508002468DFF8E890334FD9F800303348E21A3B686A
S315080024780094EB1A00FB02330122F079CDE90153E7
S315080024882E4B03F099FBC9F800403D60ABE6DBF834
S3150800249808300133CBF80830A5E600F025FEDBF84E
S315080024A80C30B9F1BC0F03F10103CBF80C3035D168
S315080024B807F119001D4F1C4900F05AF839782B46C0
S315080024C8224681F020011848C1F3401100F060F84F
S315080024D898F80D30002B3FF486AE194B164A2B4454
S315080024E839781848934281F0200184BF0134164B85
S315080024F8C1F3401188BF5B19224600F049F872E615
S31508002508DBF81430B9F1E10F03F10103CBF8143005
S3150800251804D00599079800F093F964E6DBF81830B3
S315080025280133CBF818305EE6FC0F00248812002425
S315080025384C1E0024F40F002400CA9A3B23A10290DB
S31508002548002D31013C110024006396C5F80F0024BC
S315080025585FF800F0DD3201905FF800F0393201903B
S315080025685FF800F0057402905FF800F0CB48019018
S315080025785FF800F0251F00005FF800F04D05019090
S315080025885FF800F0F52D01905FF800F08D0900005E
S315080025985FF800F0650D00005FF800F0F51D000013
S315080025A85FF800F0B92C01905FF800F07D450190BE
S30D080025B85FF800F0C548019028
S315080025C0034B187801280ABF022200201A707047A8
S309080025D0BC12002407
S315080025D8194B13B55C7B012C0BD0022C22D034B9CD
S315080025E8164B186800F038F8154BC3E9000402B012
S315080025F810BD01A9684600F02BF8019B114AA3F5FE
S31508002608FA630F4C934289BF009B019303F1FF338A
S315080026180093009800F020F82060019800F01CF854
S315080026286060E4E7054B064C186800F015F8064B99
S3150800263820601868F2E700BF900F0024841200246F
S315080026482416002400CA9A3B8012002400000000C1
S315080026585FF800F0057402905FF800F0CB48019027
S31508002668F8B50F4610490968E1B1104E0C25DFF890
S3150800267844C031684D430CEB05044CF8050022723A
S31508002688002263720A4B62811868676000F014F8C2
S31508002698336801335A4203F0030302F0030258BFB2
S315080026A853423360F8BD00BFA812002490130024D3
S315080026B86C5F0024401600245FF800F06B07019051
S315080026C870B50546094E0C46FDF718FE294602461A
S315080026D8304600F00DF82046FDF710FE2146024662
S315080026E8304600F009F8C04370BD00BF506B00249F
S315080026F85FF800F04DE501905FF800F00DE50190F0
S315080027082DE9F041234E074600F108030D46D6F891
S315080027180F00D6F8131003C3B6F8172006F11901E7
S315080027281D481A80FFF7CCFF00F04EF81B4BC7F878
S315080027381200D3F80080B8F1000F28D100F048F845
S31508002748044620B90146BDE8F04102F0EDB9ADB23C
S31508002758294600F035F82A463946206800F02CF84C
S31508002768054640B14146022002F0DEF92046BDE89A
S31508002778F04100F019B80A4821467389094A0068E1
S3150800278800F016F80028F1D029460320ECE7BDE842
S31508002798F08100BF900F0024901200249C12002498
S315080027A8A4120024741600245FF800F07D450190F1
S315080027B85FF800F0B92E01905FF800F08562019085
S315080027C85FF800F0A14501905FF800F0CB4801904A
S30D080027D85FF800F06545019069
S315080027E037B5FFF7F9FE002000F02AF80F4C104D18
S315080027F02023E0820221237601226B7B0D48002BE1
S3150800280014BF1823192300930B4BC07903F0D8F98A
S315080028106B7B2046002B14BF18211921FFF774FF84
S31508002820064A13680133136003B030BD241600242A
S31508002830900F0024541E00244DA102907C160024FB
S30D080028405FF800F0C54801909D
S315080028480E4B70B50E4C064618680D4600F01CF877
S31508002858002320600520636000F01AF82A463146EE
S31508002868E08204F1180007F046FC29462046FFF7DF
S3150800287847FF044A53690133536170BD8412002423
S31508002888981300247C1600245FF800F0CB480190C2
S30D080028985FF800F0C548019045
S315080028A0F0B50C461F4E85B01746054600F050F8A1
S315080028B03060204600F04CF87060012000F04CF8BB
S315080028C0A022F08206F119001749377607F017FC9F
S315080028D0164B1B78022B14D1154E164F3368164922
S315080028E0EA1A3B681548E31A009501FB02330122F0
S315080028F00321CDE90143124BC07903F061F9356034
S315080029003C60104B1B781B0702D4062000F028F801
S31508002910B9210448FFF7F8FE0B4A536801335360A0
S3150800292005B0F0BD68150024EC1200244C1E0024E6
S31508002930E0120024DC12002400CA9A3B541E00242C
S315080029406DA10290881200247C1600240000000065
S315080029505FF800F0CB4801905FF800F0C548019099
S30D080029605FF800F04D05019037
S315080029682DE98048A44C8BB02368002B00F0A6807C
S31508002978DFF800B30122A14B11469BF8070003F0C4
S315080029881BF99F4C4FF0FF32216803A800F0DCF9C9
S31508002998DDE90323102AF5D10C229A49DFF8D892E3
S315080029A85343994DCA18CE589849536892F80980DE
S315080029B80093137A964A0193D9F800300133C9F877
S315080029C800302B689A188A427CD82A60914B924A1A
S315080029D8196839B1002119600121904B19604FF423
S315080029E8FA7313601368002B04DD013B13600BB9F7
S315080029F88A4A13608A4C236801332360FFF7DCFD93
S31508002A0808B1FFF7E9FE87491422DFF870A20968BA
S31508002A18BAF808300129B3FBF2F322685ED8934264
S31508002A2803DA00232360FFF7D7FE002EA9D07D4BD3
S31508002A381B68023B012BA4D87B4C21788A0603D451
S31508002A487A4B1B68002B9CD001F00203019A1A43A3
S31508002A5897D00023764FB01E06F59F7E1A463B6030
S31508002A6830F902CF6245A8BF62466345B8BF6346D8
S31508002A788645F5D19B1A3046002BC8BF3B6011F036
S31508002A8810076C4940F0FC8000F056F9B92239461F
S31508002A9869480297069706F0A3FC9AF80D30012BA9
S31508002AA800F09680022B00F0A380002B7FF469AF14
S31508002AB84246D9F80010614B186896E00A2000F0DB
S31508002AC84FF951E703F145435C4A03F5160303F545
S31508002AD8C6432B6013680133136077E7934248DAD5
S31508002AE80021102206A8216006F07AFCFFF770FD7F
S31508002AF8022000F031F9524C9AF80D30E082002B8A
S31508002B0864D0012B48D14F4B1B68002B5ED04E4F23
S31508002B1804F118004D4997F821307A1C06F092FB03
S31508002B2897F8223007F11102494904F1210006F005
S31508002B3889FBBA8C474906A806F084FB0698BDF8AF
S31508002B481C209DF81E30C4F82B00A4F82F2084F802
S31508002B5831303224344B1B78190702D4062000F08A
S31508002B68FFF821463648FFF7CBFD3B4A9368013301
S31508002B7893603A4C23680133FA2B23607FF755AFE5
S31508002B880027284B01229BF807001F601146344B83
S31508002B9803F012F8276048E7324B183403F1100798
S31508002BA81868083353F8041C2246BB4203C2144665
S31508002BB8F6D11A889B7822802B4AA37011682B4B6A
S31508002BC819609188927999809A71C2E71824C1E7A1
S31508002BD806AA02A9009800F0C7F8254A06A902A875
S31508002BE800F0A6F8424606990298FFF755FEC8E689
S31508002BF8424629685FE700BFA812002497A10290F9
S31508002C086C5F00244016002480120024FFC99A3BF2
S31508002C18002D310194130024E81200249C12002484
S31508002C28E41200248C12002488120024F8200024B8
S31508002C3870160024EC120024681500248412002457
S31508002C4834150024FC20002426170024ACA1029081
S31508002C58B4A10290BCA102907C160024A0120024FC
S31508002C68C4A10290550E0390680E03905F150024C0
S31508002C7800D3CEFE541E00247C120024900F002494
S31508002C8800F05EF800283FF47CAE224E0021BC22F4
S31508002C9830460291069106F0A3FB9AF80D30012BEF
S31508002CA826D0022B2ED04BB91B4B186800F03CF8DF
S31508002CB83060D9F8000000F037F87060032000F09B
S31508002CC84BF8A322F0821549154886F8188007F0AC
S31508002CD812FA23781B0702D4062000F041F8BC2113
S31508002CE80C48FFF70DFD0F4AD3680133D36048E651
S31508002CF806A902A800F02CF8029800F015F830602A
S31508002D080698D8E7044B186800F00EF8306028686B
S31508002D18D1E700BF7814002484120024EC1200249A
S31508002D28911400247C1600245FF800F0CB48019023
S31508002D385FF800F0197402905FF800F0991D00001A
S31508002D485FF800F0151E00005FF800F0BD07019057
S31508002D585FF800F0057402905FF800F0C548019026
S31508002D685FF800F04D0501905FF800F0B173029026
S31108002D78014B01221A60704794130024D6
S31508002D880A4608B509280AD8DFE800F03B053E09CF
S31508002D98092B2E0932384FF400511D482AE0072816
S31508002DA835D1032933D8DFE801F0020A181A0022B8
S31508002DB84FF48051164800F033F8002206E0012245
S31508002DC84FF48051124800F02BF801224FF40061A5
S31508002DD80F48BDE8084000F023B80022F0E70122B2
S31508002DE8E6E74FF48061D8E74FF48041094801E0E7
S31508002DF840210948002AECD00122EAE74FF40041AD
S31508002E08F4E74FF40041C8E74FF48041C5E708BD29
S31508002E1800100258000C025800080258000000006A
S30D08002E285FF800F0A109029011
S31508002E3008B500210620FFF7A7FF00210720FFF7A6
S31508002E40A3FF00210920FFF79FFF00210820FFF7B5
S31508002E509BFF01210520FFF797FF642000F044F847
S31508002E6000210520FFF790FF01210620FFF78CFFC0
S31508002E70642000F039F800210620FFF785FF0121BC
S31508002E800720FFF781FF642000F02EF802210720B3
S31508002E90FFF77AFF642000F027F803210720FFF7E1
S31508002EA073FF642000F020F800210720FFF76CFF6D
S31508002EB001210820FFF768FF642000F015F80021BB
S31508002EC00820FFF761FF01210920FFF75DFF642055
S31508002ED000F00AF809200021FFF756FF6420BDE834
S31508002EE0084000F001B800005FF800F04D050190B9
S31508002EF0B0FA80F210210248520900F005B800BF66
S31508002F0000100258000000005FF800F0A1090290C6
S31508002F10021E4FF04001024818BF012200F004B813
S31508002F20000C0258000000005FF800F0A1090290AA
S31508002F302021024808B500F003F808BD000C025825
S30D08002F405FF800F09509029004
S31508002F488021024808B500F003F808BD00080258B1
S30D08002F585FF800F095090290EC
S31508002F608021024808B500F003F808BD000C025895
S30D08002F705FF800F095090290D4
S31508002F784FF48071024808B500F006F808BD00BF8E
S31508002F8800080258000000005FF800F09509029052
S31508002F982021044808B500F007F8B0FA80F040097F
S31508002FA808BD00BF000402585FF800F095090290B2
S31508002FB830B58FB00D4604463422002101A806F024
S31508002FC80FFA32232A2101A85C43B4FBF5F49C4284
S31508002FD8A8BF1C46224606F003FA04F1380301A9DD
S31508002FE804480DEB03040A2304F8343C00F004F8FB
S31508002FF80FB030BD80A302905FF800F02D660290EE
S31508003008002302282DE9F34101930DD101AA496845
S31508003018294802F059FC019D4DB1284800F060F88E
S31508003028002002B0BDE8F08101230193F5E70138D5
S315080030380328F5D8DFE800F00206090F204B01221D
S315080030481A60EDE71E4B0022FAE7322200211D48D6
S3150800305806F0C6F9E4E71B4E00233246374632F82F
S31508003068021B01338D42B8BF0D46192BF7D11648F6
S31508003078002400F035F8DFF86080144800F030F8CE
S31508003088134800F02DF83388E21C214640460434DC
S3150800309800F026F8294636F8020BFFF789FF602C58
S315080030A8F1D121463A8E0B4800F01AF82946388E8F
S315080030B8FFF77EFFB4E700BF0401002483A302904C
S315080030C89017002494170024A1A30290C0A3029085
S315080030D82EA40290E2A30290D5A302900000000055
S30D080030E85FF800F02D66029066
S315080030F00F4B10491B6870B50F4C586A2368A3B16B
S315080031000B684CF24F360D4AC31A0D4D934296BFC3
S315080031100C4A1823B3FBF2F335F81320B24295BFD5
S315080031200132002325F813202360086070BD00BF14
S31508003130FC6600245417002490170024FF083D005D
S30D08003140941700240071020037
S31508003148002302282DE9F34101930DD101AA496804
S315080031582A4802F0B9FB019D4DB1294800F060F8EC
S31508003168002002B0BDE8F08101230193F5E7013894
S315080031780328F5D8DFE800F00206090F214B0122DB
S315080031881A60EDE71F4B0022FAE7322200211E4893
S3150800319806F026F9E4E71C4E00233246374632F88D
S315080031A8021B01338D42B8BF0D46192BF7D11748B4
S315080031B8002400F035F8DFF86480154800F030F888
S315080031C8144800F02DF8338804F1270221464046B2
S315080031D8283400F025F8294636F8020BFFF7E8FEEA
S315080031E8B4F5707FEFD121463A8E0B4800F018F8EF
S315080031F82946388EFFF7DCFEB2E700BF0401002433
S3150800320883A30290581700245C170024EFA30290A2
S3150800321815A402902CA402907DA4029070A4029092
S30D080032285FF800F02D66029024
S31508003230002313B5044601A96846CDE9003300F01A
S3150800324033F813490B680BB3009B124803F00302CB
S31508003250019B00FB0233104A934234BF0020012031
S3150800326002FB10330D4A181B0D4B4CF24F34984293
S3150800327096BF0C4B1820B0FBF3F032F81030A3427F
S3150800328095BF0133002322F810300B6002B010BD41
S315080032905817002400CA9A3B00286BEE5C170024D6
S315080032A0FFC99A3B005A62025FF800F00574029063
S311080032B04FF480324FF0104106F021BFA9
S30B080032BC0020FFF7F7BF32
S315080032C4034BD3F823200260B3F827308380704772
S309080032D4641E002442
S315080032D808B50120FFF708FE0A2000F009F80020C3
S315080032E8FFF702FE0A20BDE8084000F001B8000012
S30D080032F85FF800F0B5D401905F
S30708003300704706
S31508003308002373B5036006460B600D461360144622
S3150800331801931E2201AB0121134800F029F880B950
S31508003328019BC3F3002203F00703013B3260052B18
S3150800333816D8DFE803F0030D1515081200232B60CD
S31508003348236002B070BD4FF400532B600023F7E7E3
S3150800335800232B604FF48043F2E74FF40053F8E755
S3150800336800233360EDE700BFF06F0024000000007B
S30D080033785FF800F0E301029082
S31508003380F0B59FB004460D466422002105A806F054
S315080033902BF803AA04A902A8FFF7B6FF94F8313060
S315080033A0029EC3F3800355EA03020ED056B91C48A1
S315080033B000F04AF8204600F057F8204600F05CF87E
S315080033C01FB0F0BD0DB9002BFAD1012EF8D105A911
S315080033D0134800F03DF8049D039F05A910480B9576
S315080033E00A9700F02DF80E4800F03AF8204600F04B
S315080033F033F8204600F03CF80A4A0B4B0B49002FDD
S3150800340008BF13460A4A0B48002D08BF0A4631462C
S31508003410CDE90032084B3246007902F0D1FBCFE7FE
S31508003420F06F00247AA602907EA6029083A60290E8
S3150800343087A60290541E00248BA602900000000066
S315080034405FF800F0C90302905FF800F077FE01907C
S315080034505FF800F03D0202905FF800F0B55A01905F
S315080034605FF800F0F3FD01905FF800F0FD5A019057
S315080034705FF800F0515B01905FF800F0995B0190EE
S3150800348008B5024800F004F8002008BDFFA602901F
S30D080034905FF800F02D660290BA
S3070800349870476D
S315080034A037B50446104DFFF777FDA8B900F028F8A0
S315080034B00E4B1B8801930E4B009301220D4B0321E3
S315080034C0687B02F0D9FB0123084A20460A4903B063
S315080034D0BDE8304000F018B800F012F8064B1B881B
S315080034E00193064BE8E700BF541E0024DC170024AE
S315080034F023A7029001000002DE1700244DA70290C0
S315080035005FF800F0A9D401905FF800F061460290D8
S315080035100A4B1A68012A04D0022A09D03AB10022B5
S3150800352004E0074A4FF08071916102221A607047E1
S31508003530034A4FF480719161F1E700BFD817002460
S30908003540000002581F
S31508003544402307B58DF80730FEF7F8F8FEF738F983
S315080035540020FEF711FA002206201146FEF7ECF9C0
S3150800356401210DF107020846FEF79CFA3220FEF700
S31108003574CFF9FEF7C3FA03B05DF804FBBC
S3150800358008B572B6FEF7A6F9FEF7BAFA62B608BD2E
S31508003590024B00221B681A65704700BF4869002461
S315080035A00028034A034B126808BF002313657047B7
S30D080035B048690024B9A3624D25
S315080035B8F0B589B0002307460D466A464968674844
S315080035C8009302F081F9009C06462CB1644800F085
S315080035D8E3F8002009B0F0BD022861D0032800F0FE
S315080035E898800128F5D11422214603A8019405F0EC
S315080035F8F7FE082F029401D05A48E8E702AB63227F
S315080036082146A86802F07CF902AB0C2231468DF8EF
S315080036180700E86802F074F902AB1F2231468DF8F4
S315080036280500286902F06CF90723172221468DF848
S3150800363806008DF8043002AB686902F061F902AB3E
S315080036483B2221468DF80C00A86902F059F93B225D
S315080036588DF80D0002AB2146E86902F051F9029A85
S315080036688DF80E0004948DF80F40CDE906440AB18A
S315080036783D48ACE701A93D4800F08AF810B1029B1D
S3150800368801330293002203A9384800F08DF810B1D7
S31508003698029B01330293029B002BE9D1344896E733
S315080036A81422214603A8029405F09AFE314B1B689A
S315080036B80BB931488BE7314B02A92C4893F82620D9
S315080036C88DF80B2093F827208DF8092093F82820E1
S315080036D88DF80A2007228DF8082093F829208DF8F6
S315080036E80C2093F82A2093F82B308DF80D202246C3
S315080036F88DF80E3000F04CF80546224603A91B48FB
S3150800370800F052F80543EDB20DB11D485FE71D48B4
S315080037185DE72146142203A8029405F061FE2246B5
S3150800372803A9124800F044F8224602A90F4800F0F7
S3150800373837F89DF80B309DF80A209DF8091003F50F
S31508003748FA63114800F028F89DF80E309DF80D2008
S315080037589DF80C100D4800F01FF83AE7740100248C
S315080037684EA8029074A8029092A80290486900246C
S31508003778C1A80290FC200024D0A80290261700248D
S31508003788F3A8029011A902902CA902903CA90290CC
S315080037985FF800F0673D02905FF800F02D6602902A
S315080037A85FF800F0553E02905FF800F0A33C0290DF
S30D080037B85FF800F00F3E0290D5
S315080037C038B54FF48033064D14468AB2AB610146CC
S315080037D00A23044800F008F80CB90123AB6138BD88
S315080037E0000C0258386800245FF800F0CD410290BA
S315080037F00023F7B5052701938DF80330012500F05E
S315080038002BF8104E00F1FA0400F026F8A04203D96E
S31508003810FA34052000F01CF8012201A88DF804707E
S315080038201146FFF7CDFF0A2301220DF103013046A9
S3150800383000F016F8044B9D619DF80330DB07E3D4CE
S3150800384003B0F0BD38680024000C025800000000E0
S315080038505FF800F04D0501905FF800F0A9D40190DB
S30D080038605FF800F00144029034
S3150800386830B5002485B066230121224603A80394AF
S31508003878ADF808408DF80C30FFF79EFF99232246CD
S31508003888012103A88DF80C30FFF796FF01200124C3
S3150800389800F052F890230122042103A88DF80C3071
S315080038A8FFF78AFF0A23022202A91B4800F048F8F4
S315080038B81A4B1B4D22469C6103219DF8093001933A
S315080038C89DF808300093174B287B02F075F99DF888
S315080038D80830C22B18D19DF80930287B152B08D13A
S315080038E8114B2246022102F067F9104B1C6005B0FD
S315080038F830BD182B08D10E4B2246022102F05CF97E
S315080039080A4B02221A60F2E701220A4B287B114663
S3150800391802F052F9EBE700BF38680024000C025899
S31508003928541E00240FAA029033AA0290F41B0024FE
S315080039384DAA029068AA02905FF800F0B5D40190E3
S30D080039485FF800F0014402904B
S31508003950F0B5274F85B00026054600910122254B74
S315080039600C46387B032102968DF80C6002F028F984
S3150800397006233246012102A88DF80830FFF720FFFA
S3150800398075BB1D48C4F30743C4F30721E2B20068B8
S31508003990012816D1202264BA04218DF809308DF841
S315080039A008202A46ADF80A4002A8FFF709FFFFF7E4
S315080039B01FFF124B01220321387B02F001F905B0E3
S315080039C0F0BD2120E40D8DF80B1005218DF80C2093
S315080039D02A468DF808008DF809408DF80A30E3E785
S315080039E0012DE4D16023324629468DF80830DBE7FD
S315080039F0541E00248DAA0290F41B0024A4AA029047
S31508003A007FB5002306462248154602930C468DF8D4
S31508003A100C30204BCDE9001201220321007B02F075
S31508003A20CFF8B5F5803F00D3FEE71B4AC4F307433A
S31508003A30C4F30720E1B21268012A1AD1032164BA35
S31508003A408DF809308DF808100421ADF80A4002A84F
S31508003A50124CFFF7B5FE3146AAB2104800F028F816
S31508003A60204600F021F80128FAD10D4B986104B0E0
S31508003A7070BD1322240E8DF80C1005218DF8082030
S31508003A8001228DF809408DF80A308DF80B00DEE723
S31508003A90541E0024B8AA0290F41B00243868002497
S31508003AA0000C0258000000005FF800F00D4D02906F
S30D08003AB05FF800F0D948029006
S31508003AB82DE9F04FDFF8E09085B04FF00008DFF801
S31508003AC8DCA0DFF8DCB007460C4616462F4BCDE9D6
S31508003AD800120122032199F80C0002F06DF8B0458E
S31508003AE809D32B4B0122032199F80C0005B0BDE830
S31508003AF8F04F02F061B824F0FF05A6EB0803002290
S31508003B0801212D1B02A8029205F580758DF80C2057
S31508003B189D4228BF1D4606238DF80830FFF74CFE40
S31508003B281C4AC4F30743C4F30720E1B21268012A02
S31508003B381DD102218DF8093063BA8DF808100421C1
S31508003B48ADF80A3002A8FFF737FE3946AAB250463A
S31508003B5800F02AF8504600F02BF80128FAD1CBF8DD
S31508003B6818002C44A8442F44FFF73EFEB7E7122254
S31508003B788DF80C108DF80A3005218DF80820220ECC
S31508003B888DF80B008DF809200122DBE7D6AA0290EA
S31508003B98F4AA0290F41B0024541E00243868002452
S31508003BA8000C0258000000005FF800F07547029004
S30D08003BB85FF800F00D4D0290C4
S31508003BC0F0B5074685B0124800260C461546114B37
S31508003BD00396CDE9001201220321007B01F0F0FFD4
S31508003BE0B123324603A801218DF80C30FFF7E8FD12
S31508003BF02A4621463846FFF703FFC12332460121EC
S31508003C0003A88DF80C30FFF7DBFD05B0F0BD00BF4B
S30D08003C10541E002408AB0290C3
S31508003C18F7B50024B12305460E46174601A82246DD
S31508003C28012101948DF80430FFF7C6FD3A4631465E
S31508003C382846FFF73DFFC1232246012101A88DF832
S30F08003C480430FFF7B9FD03B0F0BD24
S31508003C582DE9FF41324D0026324B01220321287BEC
S31508003C688DF80E604FF02B088DF80F6001F0A4FF51
S31508003C78012201240DF10E002B4F11468DF80E80F6
S31508003C88FFF79AFD0DF10F010A230122274800F0D4
S31508003C985BF8BC619DF80F30224603210093244B3C
S31508003CA8287B01F089FF0623324621460DF10E00CE
S31508003CB88DF80E30FFF780FD2F23324621460DF189
S31508003CC80E008DF80E30FFF777FD052000F038F85E
S31508003CD8224621460DF10E008DF80E80FFF76CFD81
S31508003CE822460DF10F010A23104800F02DF8BC6191
S31508003CF89DF80F302246032100930E4B287B01F0CE
S31508003D085BFF9DF80F302246032113F0020F287B2C
S31508003D1814BF094B094B01F04FFF04B0BDE8F08109
S31508003D28541E002429AB0290000C02583868002457
S31508003D3840AB029064AB029087AB02909AAB0290B4
S31508003D485FF800F04D0501905FF800F00144029015
S31508003D5852F831200146014800F002B854D30290BF
S30D08003D685FF800F02D660290D9
S31508003D70CBB207B50193C1F307230A0E0093C1F32B
S31508003D8007430146024800F007F803B05DF804FB54
S31508003D90ACAE0290000000005FF800F02D660290BD
S31508003DA02DE9F04F89B00023496807AA934807937D
S31508003DB001F08EFD079B33B1914800F09DFA002073
S31508003DC009B0BDE8F08F1D28DFF8B09218BF054688
S31508003DD000F1010006BF1D23012503460593059B37
S31508003DE09D42ECDAD9F800604EB9A5F10A03012B19
S31508003DF005D83546834800F07FFA0135EFE76B1E94
S31508003E001B2BFAD8DFE813F01C00220026002A0034
S31508003E102E00440059005D0065006D0071007700B2
S31508003E2040018B01390078017E01830187018D01EC
S31508003E30930174009901A701350041003E00FB017A
S31508003E40714B72481968FFF793FFD6E76E4B7048B7
S31508003E505968F8E76C4B6F489968F4E76A4B6E48FF
S31508003E60D968F0E700F050FA01466C4800F044FAC9
S31508003E70C3E7654B6A485969E5E7634B69499A6937
S31508003E80694823E004F064FDB7E7FEF729F8B4E7CC
S31508003E90664F0026DFF8E8816549664800F02CFA87
S31508003EA0013617F8011F404600F026FA052EF7D10D
S31508003EB0554B614893F82810D8E7534B5F491A6960
S31508003EC0DEE7514B5E48998B1A7F090A00F014FA0F
S31508003ED093E74D4B5B4A93F829105B48FFF73CFF85
S31508003EE08BE75A4A5A495B48F0E75B4A5B49FAE767
S31508003EF05B4A5C49F7E7DFF88C815B4F5B4E98F8C5
S31508003F000030316857F83320594800F0F5F998F829
S31508003F100130B16857F83320554800F0EDF998F8A4
S31508003F200230316957F83320514800F0E5F998F81E
S31508003F300330B16957F833204D4800F0DDF998F899
S31508003F400430316A57F83320494800F0D5F998F813
S31508003F500530B16A57F83320454800F0CDF998F88E
S31508003F600630316B57F83320414800F0C5F998F808
S31508003F700730B16B57F833203D4800F0BDF998F883
S31508003F800830316C57F83320394800F0B5F998F8FD
S31508003F900930B16C57F83320354800F0ADF998F878
S31508003FA00A30316D57F83320314800F0A5F998F8F2
S31508003FB00B30B16D57F833202D4800F09DF998F86D
S31508003FC00C30316E57F83320294800F095F998F8E7
S31508003FD00D30B16E57F83320254800F08DF998F862
S31508003FE00E30316F57F83320214800F085F9214803
S31508003FF000F082F9204800F07FF9FEE6C4020024AA
S31508004000BCAE0290AA9B0290641E0024E8AE029001
S31508004010FBAE02900AAF02901DAF029029AF029044
S3150800402053AF029069AF029081AF0290861E0024BA
S3150800403088AF02909CAF0290F3D60290A7AF029089
S31508004040BDAF029008040024E1AF0290921E00243E
S31508004050FDAF029054D30290A21E002413B0029022
S31508004060B21E002428B002901C0200244402002438
S315080040703FB0029048B002907AB00290880F0024B0
S31508004080A0AF0290541E00246F4800F035F96F481F
S3150800409000F032F96E4800F02FF96E4800F02CF95E
S315080040A06D4800F029F96D4800F026F9674800F0D8
S315080040B023F96B4800F020F96A4800F01DF96A48B0
S315080040C000F01AF9694800F017F9694800F014F980
S315080040D0684800F011F9684800F00EF9674800F0E2
S315080040E00BF95A4800F008F9654800F005F96548E3
S315080040F000F002F955487EE7634B644A93F82B10A3
S315080041006348EBE6634B644A19786448E6E65E4B17
S315080041106349DA8BB4E65C4B62491A8CB0E66248AE
S3150800412069E7594B614A93F82C106148D6E6564B15
S31508004130604A93F82D106048D0E6604F0026DFF8F5
S31508004140A8813146013617F8012B404600F0D4F80D
S31508004150082EF6D151E600F0D3F84FF47A720646E7
S31508004160DFF888A1DFF88881B0FBF2F102FB1102C3
S31508004170534800F0C1F800221746DAF80030A3EBDE
S31508004180070B0BF11F0BDBF100030BF01F0B03F002
S315080041901F0358BFC3F1000B0C2303FB0B835B689B
S315080041A02BB32AB9474800F0A7F8474800F0A4F807
S315080041B00C234FF47A7203FB0BFB58F80BC008EB81
S315080041C00B0EA6EB0C00DEF808B0B0FBF2F3BCFB56
S315080041D0F2F102FB130002FB11C2CDE902BBDEF8C5
S315080041E0044000900194394800F086F8012201370E
S315080041F0202FC2D10AB93648FDE63648FBE64FF00D
S31508004200000B354E0627DFF8DCA0D84616F8012B3A
S3150800421072B10BF1010B4146304800F06DF89BFB7B
S31508004220F7F307FB13B3052B02D1504600F064F8E9
S3150800423008F10108B8F1200FE8D1BBF1000F01D150
S315080042402748D8E62748D6E6B2B0029043B6029089
S31508004250C6B00290D5B00290E4B0029006B10290C2
S3150800426026B1029034B1029044B1029054B1029042
S3150800427062B1029071B1029080B102908FB1029042
S315080042809EB10290B4B10290641E0024200400245A
S31508004290CAB10290381E0024C4010024E0B102907D
S315080042A0F5B1029006B2029021B20290D80300241A
S315080042B03AB20290C00300244AB202904C1E00246F
S315080042C06BB2029091B20290CCB2029007B3029000
S315080042D02FB302903BB302900000803883B302905C
S315080042E092B3029012DA029057B20290B41C0024DC
S315080042F0B81C0024000000005FF800F02D6602904C
S315080043005FF800F0A9D401905FF800F0116D0290F3
S3150800431030B585B000230446084603A9154603931D
S3150800432000F022F820B90D4800F022F805B030BD9B
S31508004330039800F021F82860C3B22146020E0193C3
S31508004340C0F307230093C0F30743054800F010F8AD
S31508004350044B012283F82A20E8E700BFB3B3029092
S31508004360C7B30290641E00245FF800F005C80190E8
S315080043705FF800F02D6602905FF800F0CB480190D8
S3150800438073B514461D46002306462A460846019379
S31508004390214601AB01F0B8FA019B024633B12A4621
S315080043A02146084800F014F802B070BD069B314655
S315080043B01860054800F00CF8044B012283F82A20FF
S315080043C0F2E700BFDBB302900FB40290641E00242C
S30D080043D05FF800F02D6602906B
S315080043D8F0B51E4685B000231546124C07460393CA
S315080043E80623084604FB06F2009303AB04FB05F113
S315080043F801F0B2FA039B33B1324629460A4800F05F
S315080044081BF805B0F0BD90FBF4F20A9B3946186014
S3150800441804FB1203054800F00FF8054B012283F840
S315080044282A20EEE740420F00DBB302901AB4029046
S31508004438641E0024000000005FF800F02D66029054
S315080044482DE9F341002407469046184601AA1E4658
S31508004458089D019401F038FA019B8BB1104D11485B
S3150800446800F02AF856F8341029B90F4800F024F84D
S3150800447802B0BDE8F0812846013400F01DF8F1E7DE
S3150800448842B288F800003946084856F8322000F043
S3150800449813F8002DECD0064B012283F82A20E7E70B
S315080044A89CAF02902BB4029012DA029052B4029092
S315080044B8641E0024000000005FF800F02D660290D4
S315080044C8002373B5044616460B4801AA01930D4600
S315080044D801F0FAF9019B23B1084800F015F802B073
S315080044E870BD2A4630702146054800F00DF8054B80
S315080044F8012283F82A20F2E7380400245DB40290E2
S3150800450852B40290641E00245FF800F02D660290EB
S31508004518014800F005B800BF9FB4029000000000EB
S30D080045285FF800F02D66029011
S31508004530F8B5074615461E460C4619B10846FBF758
S31508004540E1FE20B90D48BDE8F84000F021B8B042B8
S3150800455001DB0B48F7E732460021284604F044FF02
S315080045602146284605F0C3FD22463946054800F08F
S315080045700FF8054B012283F82A20F8BDC8B402902B
S31508004580DBB4029052B40290641E002400000000BE
S30D080045905FF800F02D660290A9
S31508004598F0B58BB0002305460C4603AA4968964829
S315080045A8CDE9033301F090F9039B1BB1934800F05A
S315080045B8B3FA51E0022D07DC1C2803D8904BC340F8
S315080045C8DB0701D48F48F2E78F4B1B682BB9A0F19C
S315080045D80A03012B01D88D48E9E701381C283BD87E
S315080045E8DFE810F01D002A002E00320038003800D7
S315080045F85B003800E900F200F90003013800BA0147
S315080046084100B301EB01F401030212021902FE008C
S3150800461820023D023D00560051004C0238007C4AF3
S31508004628A1687C48FFF770FE7B4800F075FA7B485E
S3150800463800F072FA7A48BAE77A4AA1687A48F1E73E
S315080046487A4AA1687A48EDE77A4AA1687A48FFF76C
S315080046585BFE01E0FFF75CFF00200BB0F0BD774A70
S31508004668A1687748F3E76A4D4FF416627548AB694F
S31508004678049304AB00934FF4E133A168FFF77CFE7B
S31508004688049BAB61D0E72146284604F075F8E3E7B2
S3150800469821462846FDF728FBDEE70023032D059368
S315080046A80893ADF8243007D1A1686748FBF71CFEC4
S315080046B810B9FFF7CDFACFE7554B1B69013301D07F
S315080046C8624874E7052D01D0614870E7002205ABFA
S315080046D8A068114601F014F905ABFF22002105462A
S315080046E8E06801F00DF905AB074663220021206949
S315080046F801F006F9059B06460BB1564857E70346E7
S315080047083A462946544800F007FA544800F004FA8D
S31508004718534800F001FA534800F0FEF9524800F0F1
S31508004728FBF9062108A800F0FBF9032841D14F49EF
S3150800473808A8FBF7D9FD0446002838D14C4800F0EC
S31508004748EBF906A92B0E4B48CDE906444A4C2370CB
S315080047582B0CE57063702B0AA772A370E67200F03B
S31508004768D7F9054607A9434800F0D2F9284310F0B7
S31508004778FF0104D0414800F0CFF9414817E7069AE7
S315080047882046130EE27123F0030343F00203237154
S31508004798130C6371130AA371079B1A0E1B0C22725A
S315080047A80C226372FFF734FAFFF752FAE5E7354841
S315080047B8FDE63548FBE60123344A35480093354B70
S315080047C8A168FFF73DFE2FE71023334AA16833484F
S315080047D8FFF7AAFE40E71023314AA1683148F7E7F0
S315080047E81023314AA1683148F2E70023042D0893BB
S315080047F860D02F48DBE600BFC4020024ECB4029060
S315080048080002031117B50290880F0024AA9B02908C
S31508004818641E0024E8AE02903FB9029081B902905E
S31508004828B1B90290681E0024FBAE02906C1E0024E3
S315080048380AAF0290701E00241DAF0290781E00244D
S315080048483AB502904FB502905EB502909FB40290B1
S3150800485863B50290B9B50290CCB50290FEB5029040
S315080048682AB6029059B602909CB60290B5B602903E
S31508004878B9B602906C6900240CDA0030CDB60290FD
S31508004888FDB6029029B702903CB702908D1E002407
S3150800489847B7029008040024921E0024FDAF029030
S315080048A8A21E002413B00290B21E002428B002905B
S315080048B863B7029008AAA168764801F005F808AA1D
S315080048C80546E168744800F0FFFF089A03460AB1EE
S315080048D872486CE6681E0E283FF6BEAEDFE800F0A2
S315080048E8080B0E1114171A1D202326292C2F3200FF
S315080048F86B4A1370B0E66A4A5370ADE6684A937015
S31508004908AAE6674AD370A7E6654A1371A4E6644A15
S315080049185371A1E6624A93719EE6614AD3719BE692
S315080049285F4A137298E65E4A537295E65C4A937232
S3150800493892E65B4AD3728FE6594A13738CE6584A4D
S31508004948537389E6564A937386E60123554A5648A9
S315080049580093564BA16834E70023032D089303D028
S31508004968534800F0D9F85FE608AAA168514800F04C
S31508004978ABFF089B002BF3D14F4C88B1012816D002
S3150800498894F82B20494B4B4953F8323051F83010DC
S31508004998A2694A4800F0C0F8012384F82A3043E699
S315080049A84FF4E133A361012384F82B30E8E74FF489
S315080049B8165384F82B00A361E2E70023404A4148CE
S315080049C80093414BA168FFF73BFD45E63A4D0122A6
S315080049D83E48EB8B049304AB00934FF6FF73A1682C
S315080049E8FFF7CAFC049BEB831EE6334D01223848C1
S315080049F82B8C049304AB00934FF47A73A168FFF7E2
S31508004A08BBFC049B2B8427E60123324A32480093D1
S31508004A18324BA168D7E70123314A32480093324B13
S31508004A28A168D0E70026042D089604D008212F4847
S31508004A3800F072F810E608AB07223146A06800F0C5
S31508004A485FFF08AB0546FF223146E06800F058FFCD
S31508004A58089B0BB12648AAE5264B5855FCE5022DB6
S31508004A6802D0254800F058F8244A20230021013BA3
S31508004A78516002F10C02FAD1214898E5022D02D0BC
S31508004A881D4800F049F8202200211E4804F0A8FC19
S31508004A981D488CE5440200241C020024AFB7029086
S31508004AA8541E00248F1E0024CAB102902004002434
S31508004AB8E7B70290AC010024641E002411B80290DE
S31508004AC8381E0024E0B10290C4010024F5B1029012
S31508004AD83AB80290901E002455B80290D8030024CC
S31508004AE8911E00244AB20290C003002460B80290BE
S31508004AF89AB802904C1E0024CFB80290B81C00241D
S31508004B08F0B802900000803818B90290000000003A
S31508004B185FF800F0D13A02905FF800F02D6602902F
S30D08004B285FF800F0A166029097
S31508004B3007B50A4A135CFF2B1CBF0133135449B946
S31508004B40135C0122CDE9000305481146054B407860
S31508004B5001F036F803B05DF804FB00BF00008038AA
S30D08004B60541E0024D9B9029085
S31508004B6870B50B4D0C230B4E2C685C433319C3E9FF
S31508004B78010100F011F82B68305101335A4203F04D
S31508004B881F0302F01F0258BF53422B6070BD00BFB7
S31508004B98B41C0024B81C00245FF800F0A9D40190BE
S31508004BA82DE9F04FA9B0DFF89CA0DFF8A4900546D8
S31508004BB80DF11808DFF89CB00F4616460021872223
S31508004BC8404604F00DFC05F01F0439461D48C4F19B
S31508004BD82004B44228BF34462246361B05F08BFA11
S31508004BE85B46012203212744CDE9005499F80600BB
S31508004BF800F0E2FF082322461249404601F0A0F8D1
S31508004C08114B00220321CDF8008099F8060000F020
S31508004C18D3FFA021A3B20D48AAB22544CDE900A323
S31508004C28022300F019F84FF0FF32012102A800F01C
S31508004C381BF80A2000F014F8002EC4DC29B0BDE8D9
S31508004C48F08F00BF2CDA0030A7AC0290706A0024F7
S31508004C58541E0024A4C002905FF800F0E90C0290E4
S31508004C685FF800F04D0501905FF800F0AF05019078
S31508004C7830B58DB00D4604462B22002101A804F054
S31508004C88AFFB002D4FF00402074B18BF4FF0FF3358
S31508004C9820680DEB02010193FFF782FF23680433AE
S31108004CA823600DB030BD00BFEFBEADBAF2
S31508004CB87FB50022064B012168460592196000F067
S31508004CC80BF8022105A8FFF7D3FF07B05DF804FB28
S31508004CD8401E0024000000005FF800F0AF050190B0
S31508004CE82DE9F0418CB01E4604468846129D1746A3
S31508004CF800212B2201A804F073FB2A4631460DF140
S31508004D0807008DF804808DF805708DF8065005F0B3
S31508004D18F2F9EA1C01A92068FFF742FF2368033362
S30F08004D282B4423600CB0BDE8F081AF
S31508004D32F0B58DB004460F46164600212B2201A86F
S31508004D421D4604F050FB0423072201A98DF80630FC
S31508004D522B682068CDF807308DF804708DF8056049
S31308004D62FFF721FF2368073323600DB0F0BD6D
S31508004D70F0B58DB004460F46164600212B2201A831
S31508004D801D4604F031FB0223052201A98DF80630E1
S31508004D902B882068ADF807308DF804708DF805600B
S31308004DA0FFF702FF2368053323600DB0F0BD50
S31508004DAEF0B58DB004460F46164600212B2201A8F3
S31508004DBE1D4604F012FB0123042220688DF80630E6
S31508004DCE2B780DEB02018DF804708DF807308DF8EF
S31508004DDE0560FFF7E2FE2368043323600DB0F0BDCD
S31508004DF01FB5094B0121094A1960106038B14FF0F7
S31508004E00FF32684600F00CF805B05DF804FB1A6836
S31508004E10002AFCD1F8E700BF3C1E0024401E0024EF
S30D08004E205FF800F0AF050190F0
S31508004E282DE9F043A5B00C46054600210DF1080802
S31508004E38174687221E464046DFF8789004F0D0FACF
S31508004E48A021A3B2CDF800901648019302232A8818
S31508004E5800F032F83046FFF7C7FFBEB101940122C9
S31508004E682B680321104E0093104BB07900F0A4FE6E
S31508004E782B2322464946404600F062FFCDF80080BB
S31508004E880B4B00220321B07900F096FE2246094909
S31508004E98384605F030F92B6823442B6025B0BDE861
S31508004EA8F08300BF706A0024541E0024B8C002901C
S31508004EB8A7AC02902CDA00305FF800F0050E0290D5
S31508004EC82DE9F04F0025A3B004462B22294609A848
S31508004ED8089504F085FA974B1C6024B12A460121E7
S31508004EE804A800F04DF9234609AA042108A8FFF7E3
S31508004EF897FF914B099A9A427DD1904EDFF868A29E
S31508004F083822002114A8042704F06AFA089D022307
S31508004F18A021AAB28A48CDE9006700F029F92046F7
S31508004F28FFF762FFBCB1874B01220321CDE9005781
S31508004F389AF8060000F040FE3B463A46314614A861
S31508004F4800F0FEFE14AB0022032100937E4B9AF86C
S31508004F58060000F031FEB3780435F27803F1FF381D
S31508004F68023B96F80090282B77788DF82420089528
S31508004F7861D81FFA88F3A021AAB27148CDE900635F
S31508004F88022300F0F5F82046FFF72EFFD4B1DFF824
S31508004F98D8B101226D4B03210095CDE901789BF81C
S31508004FA8060000F009FE0F234246644914A800F0DB
S31508004FB8C7FE14AB002203210093634B9BF8060037
S31508004FC800F0FAFD4544424631460DF1250005F044
S31508004FD892F80895B9F1000F34D17B1E112B38D8F1
S31508004FE8DFE803F03B3F4347375369774F595F6418
S31508004FF837379399854B0023089314B1544800F022
S31508005008BBF8544C0C2200212046FEF7D5FD524B1E
S3150800501862680898C3F823202289A3F827202268FB
S3150800502812BA1A61628952BA9A83002283F82A2028
S3150800503823B0BDE8F08FB8F1000FCBD0B9F1000F57
S31508005048DFD0FF27B9F1010F6BD109A9384603F05C
S31508005058F1FAFF2F7FF454AFD3E73F4B099A1A604A
S315080050684EE73D4B099A5A604AE73B4B099A9A60BC
S3150800507846E7394B099ADA6042E7374B099A5A6183
S315080050883EE7354B099A9A613AE79DF82420324B50
S3150800509883F8292034E79DF824202F4B83F82B2002
S315080050A82EE72D4BBDF82420DA8329E72A4BBDF8CD
S315080050B824201A8424E709AD284A0DAF2B4608325E
S315080050C803CBBB4242F8080C42F8041C1D46F5D12E
S315080050D816E709AD224A0DAF2B46083203CBBB4269
S315080050E842F8080C42F8041C1D46F5D108E709AD34
S315080050F81C4A0DAF2B46083203CBBB4242F8080CB4
S3150800510842F8041C1D46F5D1FAE69DF82420124BF0
S3150800511883F82C20F4E69DF824200F4B83F82D20DD
S31508005128EEE6B9F1020F94D109A93846FCF728FD2D
S315080051388FE700BF401E0024EFBEADBA2CDA003058
S31508005148706A0024E3C00290A7AC0290F7C00290E8
S31508005158CCC002901CDA0030641E0024921E00247B
S31508005168A21E0024B21E0024541E002400000000BB
S315080051785FF800F0050E02905FF800F02D660290C1
S30D080051885FF800F0AF05019085
S3150800519070B50020FFF798FE054600283ED1294C39
S315080051A06FF0FF03284A0126284984F8220004F1F3
S315080051B02E0084F82960A685C4E90023244BC4E997
S315080051C0023303F55B43C73363614FF4E133A361ED
S315080051D04FF4FA63E3836423238440F2011363855F
S315080051E004F085FF1B4904F13E0004F080FF1022FD
S315080051F0294604F14E0004F0F7F803F0F5F9FCF738
S315080052008FFC84F8226005F0010105200135FDF7C1
S31508005210BBFD642000F024F80B2DF4D10E4B0222BE
S315080052201A7001225A709A70DA701A715A719A7144
S31508005230DA711A725A729A72DA721A735A739A73FE
S3150800524070BD00BF641E0024E202A8C00EC1029011
S315080052500102A8C017C10290541E002400000000D5
S30D080052605FF800F0B5D40190D7
S31508005268F0B59BB0002705460C4606AA4968974834
S31508005278069700F029FB069E2EB1954800F040F9DE
S3150800528800201BB0F0BD431E042B0FD8DFE803F03F
S31508005298039EA3A6A9008F4B099710938E4B0C97CC
S315080052A81B6843B98D4800F02BF9099E31468C488E
S315080052B800F026F9E4E701258A4B8B4C002229469B
S315080052C802A81D6000F024F9022109A8FFF7D0FCFE
S315080052D82A462346002109A81025FFF726FD231D7F
S315080052E80222002109A8FFF720FD04F1080303227A
S315080052F8002109A8FFF719FD04F10C03042200216F
S3150800530809A8FFF712FD04F114031222002109A8BF
S31508005318FFF70BFD04F118030922002109A8FFF776
S3150800532804FD04F129030622002109A8FFF73BFD1D
S3150800533804F12B030A22002109A8FFF734FD04F11A
S315080053481E030B22002109A8FFF70EFD04F120030E
S315080053580C22002109A8FFF707FD04F12E030722EE
S31508005368002109A80095FFF7BBFC04F13E030822B3
S31508005378002109A80095FFF7B3FC04F14E03112292
S31508005388002109A80095FFF7ABFC04F12C030F22AE
S31508005398002109A8FFF707FD04F12D032A46002175
S315080053A809A8FFF700FD09A803F090F909A8FCF772
S315080053B845FC10ABFF22002109A8FFF7B6FC00211F
S315080053C80CA8FFF755FC84F82A706EE70120FFF74A
S315080053D877FD06466AE7FBF7BFFDFAE7FBF7CCFC5D
S315080053E8F7E7102200210CA803F0FAFF002128226B
S315080053F810A803F0F5FF384B00211B68ADF82C10F0
S31508005408CDE90911CDE907111BB9384800F078F834
S315080054184CE7042D27D108AB4FF40052A06800F0DA
S315080054286FFA08AB014605464FF40052E06800F0EB
S3150800543867FA089B044633B12D4800F061F8089BC3
S31508005448002B7FF433AF0121264B2A4E00222A4F20
S3150800545802A8196000F05CF80795079BA34209D9CA
